{
  "abi": [
    {
      "inputs": [],
      "name": "BuyTickets",
      "outputs": [],
      "stateMutability": "payable",
      "type": "function"
    },
    {
      "inputs": [],
      "name": "DrawWinnerTicket",
      "outputs": [],
      "stateMutability": "nonpayable",
      "type": "function"
    },
    {
      "inputs": [
        {
          "internalType": "bytes32",
          "name": "requestId",
          "type": "bytes32"
        },
        {
          "internalType": "bytes",
          "name": "data",
          "type": "bytes"
        }
      ],
      "name": "fulfillUint256",
      "outputs": [],
      "stateMutability": "nonpayable",
      "type": "function"
    },
    {
      "inputs": [],
      "name": "makeRequestUint256",
      "outputs": [],
      "stateMutability": "nonpayable",
      "type": "function"
    },
    {
      "inputs": [
        {
          "internalType": "address",
          "name": "_airnodeRrpAddress",
          "type": "address"
        }
      ],
      "stateMutability": "nonpayable",
      "type": "constructor"
    },
    {
      "anonymous": false,
      "inputs": [
        {
          "indexed": true,
          "internalType": "bytes32",
          "name": "requestId",
          "type": "bytes32"
        },
        {
          "indexed": false,
          "internalType": "uint256",
          "name": "response",
          "type": "uint256"
        }
      ],
      "name": "ReceivedUint256",
      "type": "event"
    },
    {
      "inputs": [],
      "name": "RefundAll",
      "outputs": [],
      "stateMutability": "nonpayable",
      "type": "function"
    },
    {
      "anonymous": false,
      "inputs": [
        {
          "indexed": true,
          "internalType": "bytes32",
          "name": "requestId",
          "type": "bytes32"
        }
      ],
      "name": "RequestedUint256",
      "type": "event"
    },
    {
      "inputs": [],
      "name": "restartDraw",
      "outputs": [],
      "stateMutability": "nonpayable",
      "type": "function"
    },
    {
      "inputs": [
        {
          "internalType": "address",
          "name": "_airnode",
          "type": "address"
        },
        {
          "internalType": "bytes32",
          "name": "_endpointIdUint256",
          "type": "bytes32"
        },
        {
          "internalType": "address",
          "name": "_sponsorWallet",
          "type": "address"
        }
      ],
      "name": "setRequestParameters",
      "outputs": [],
      "stateMutability": "nonpayable",
      "type": "function"
    },
    {
      "inputs": [
        {
          "internalType": "address payable",
          "name": "_sponsorWallet",
          "type": "address"
        }
      ],
      "name": "setSponsorWallet",
      "outputs": [],
      "stateMutability": "nonpayable",
      "type": "function"
    },
    {
      "inputs": [],
      "name": "startRandomNumber",
      "outputs": [],
      "stateMutability": "nonpayable",
      "type": "function"
    },
    {
      "inputs": [],
      "name": "WithdrawCommission",
      "outputs": [],
      "stateMutability": "nonpayable",
      "type": "function"
    },
    {
      "inputs": [],
      "name": "WithdrawWinnings",
      "outputs": [],
      "stateMutability": "nonpayable",
      "type": "function"
    },
    {
      "inputs": [],
      "name": "airnode",
      "outputs": [
        {
          "internalType": "address",
          "name": "",
          "type": "address"
        }
      ],
      "stateMutability": "view",
      "type": "function"
    },
    {
      "inputs": [],
      "name": "airnodeRrp",
      "outputs": [
        {
          "internalType": "contract IAirnodeRrpV0",
          "name": "",
          "type": "address"
        }
      ],
      "stateMutability": "view",
      "type": "function"
    },
    {
      "inputs": [],
      "name": "checkWinningsAmount",
      "outputs": [
        {
          "internalType": "uint256",
          "name": "",
          "type": "uint256"
        }
      ],
      "stateMutability": "view",
      "type": "function"
    },
    {
      "inputs": [],
      "name": "CurrentWinningReward",
      "outputs": [
        {
          "internalType": "uint256",
          "name": "",
          "type": "uint256"
        }
      ],
      "stateMutability": "view",
      "type": "function"
    },
    {
      "inputs": [],
      "name": "duration",
      "outputs": [
        {
          "internalType": "uint256",
          "name": "",
          "type": "uint256"
        }
      ],
      "stateMutability": "view",
      "type": "function"
    },
    {
      "inputs": [],
      "name": "endpointIdUint256",
      "outputs": [
        {
          "internalType": "bytes32",
          "name": "",
          "type": "bytes32"
        }
      ],
      "stateMutability": "view",
      "type": "function"
    },
    {
      "inputs": [
        {
          "internalType": "bytes32",
          "name": "",
          "type": "bytes32"
        }
      ],
      "name": "expectingRequestWithIdToBeFulfilled",
      "outputs": [
        {
          "internalType": "bool",
          "name": "",
          "type": "bool"
        }
      ],
      "stateMutability": "view",
      "type": "function"
    },
    {
      "inputs": [],
      "name": "expiration",
      "outputs": [
        {
          "internalType": "uint256",
          "name": "",
          "type": "uint256"
        }
      ],
      "stateMutability": "view",
      "type": "function"
    },
    {
      "inputs": [],
      "name": "getTickets",
      "outputs": [
        {
          "internalType": "address[]",
          "name": "",
          "type": "address[]"
        }
      ],
      "stateMutability": "view",
      "type": "function"
    },
    {
      "inputs": [
        {
          "internalType": "address",
          "name": "addr",
          "type": "address"
        }
      ],
      "name": "getWinningsForAddress",
      "outputs": [
        {
          "internalType": "uint256",
          "name": "",
          "type": "uint256"
        }
      ],
      "stateMutability": "view",
      "type": "function"
    },
    {
      "inputs": [],
      "name": "IsWinner",
      "outputs": [
        {
          "internalType": "bool",
          "name": "",
          "type": "bool"
        }
      ],
      "stateMutability": "view",
      "type": "function"
    },
    {
      "inputs": [],
      "name": "lastWinner",
      "outputs": [
        {
          "internalType": "address",
          "name": "",
          "type": "address"
        }
      ],
      "stateMutability": "view",
      "type": "function"
    },
    {
      "inputs": [],
      "name": "lastWinnerAmount",
      "outputs": [
        {
          "internalType": "uint256",
          "name": "",
          "type": "uint256"
        }
      ],
      "stateMutability": "view",
      "type": "function"
    },
    {
      "inputs": [],
      "name": "lotteryOperator",
      "outputs": [
        {
          "internalType": "address",
          "name": "",
          "type": "address"
        }
      ],
      "stateMutability": "view",
      "type": "function"
    },
    {
      "inputs": [],
      "name": "maxTickets",
      "outputs": [
        {
          "internalType": "uint256",
          "name": "",
          "type": "uint256"
        }
      ],
      "stateMutability": "view",
      "type": "function"
    },
    {
      "inputs": [],
      "name": "operatorTotalCommission",
      "outputs": [
        {
          "internalType": "uint256",
          "name": "",
          "type": "uint256"
        }
      ],
      "stateMutability": "view",
      "type": "function"
    },
    {
      "inputs": [],
      "name": "RemainingTickets",
      "outputs": [
        {
          "internalType": "uint256",
          "name": "",
          "type": "uint256"
        }
      ],
      "stateMutability": "view",
      "type": "function"
    },
    {
      "inputs": [],
      "name": "sponsorWallet",
      "outputs": [
        {
          "internalType": "address",
          "name": "",
          "type": "address"
        }
      ],
      "stateMutability": "view",
      "type": "function"
    },
    {
      "inputs": [],
      "name": "ticketCommission",
      "outputs": [
        {
          "internalType": "uint256",
          "name": "",
          "type": "uint256"
        }
      ],
      "stateMutability": "view",
      "type": "function"
    },
    {
      "inputs": [],
      "name": "ticketPrice",
      "outputs": [
        {
          "internalType": "uint256",
          "name": "",
          "type": "uint256"
        }
      ],
      "stateMutability": "view",
      "type": "function"
    },
    {
      "inputs": [
        {
          "internalType": "uint256",
          "name": "",
          "type": "uint256"
        }
      ],
      "name": "tickets",
      "outputs": [
        {
          "internalType": "address",
          "name": "",
          "type": "address"
        }
      ],
      "stateMutability": "view",
      "type": "function"
    },
    {
      "inputs": [],
      "name": "winningNumber",
      "outputs": [
        {
          "internalType": "uint256",
          "name": "",
          "type": "uint256"
        }
      ],
      "stateMutability": "view",
      "type": "function"
    },
    {
      "inputs": [
        {
          "internalType": "address",
          "name": "",
          "type": "address"
        }
      ],
      "name": "winnings",
      "outputs": [
        {
          "internalType": "uint256",
          "name": "",
          "type": "uint256"
        }
      ],
      "stateMutability": "view",
      "type": "function"
    }
  ],
  "devdoc": {
    "kind": "dev",
    "methods": {},
    "version": 1
  },
  "evm": {
    "assembly": "    /* \"Lottery.sol\":191:6968  contract Lottery is RrpRequesterV0 {... */\n  mstore(0x40, 0xa0)\n    /* \"Lottery.sol\":729:730  0 */\n  0x00\n    /* \"Lottery.sol\":688:730  uint256 public operatorTotalCommission = 0 */\n  0x02\n  sstore\n    /* \"Lottery.sol\":2077:2246  constructor(address _airnodeRrpAddress) RrpRequesterV0(_airnodeRrpAddress) {... */\n  callvalue\n  dup1\n  iszero\n  tag_1\n  jumpi\n  0x00\n  dup1\n  revert\ntag_1:\n  pop\n  mload(0x40)\n  sub(codesize, bytecodeSize)\n  dup1\n  bytecodeSize\n  dup4\n  codecopy\n  dup2\n  add\n  0x40\n  dup2\n  swap1\n  mstore\n  tag_2\n  swap2\n  tag_3\n  jump\t// in\ntag_2:\n  sub(shl(0xa0, 0x01), 0x01)\n    /* \"@api3/airnode-protocol/contracts/rrp/requesters/RrpRequesterV0.sol\":937:976   */\n  dup2\n  and\n  0x80\n  dup2\n  swap1\n  mstore\n    /* \"@api3/airnode-protocol/contracts/rrp/requesters/RrpRequesterV0.sol\":986:1054   */\n  mload(0x40)\n  shl(0xe2, 0x2b77c09f)\n  dup2\n  mstore\n    /* \"@api3/airnode-protocol/contracts/rrp/requesters/RrpRequesterV0.sol\":1042:1046   */\n  address\n    /* \"@api3/airnode-protocol/contracts/rrp/requesters/RrpRequesterV0.sol\":986:1054   */\n  0x04\n  dup3\n  add\n    /* \"#utility.yul\":477:528   */\n  mstore\n    /* \"@api3/airnode-protocol/contracts/rrp/requesters/RrpRequesterV0.sol\":1049:1053   */\n  0x01\n    /* \"#utility.yul\":544:562   */\n  0x24\n  dup3\n  add\n    /* \"#utility.yul\":537:587   */\n  mstore\n    /* \"@api3/airnode-protocol/contracts/rrp/requesters/RrpRequesterV0.sol\":937:976   */\n  dup3\n  swap2\n  swap1\n    /* \"@api3/airnode-protocol/contracts/rrp/requesters/RrpRequesterV0.sol\":986:1033   */\n  0xaddf027c\n  swap1\n    /* \"#utility.yul\":450:468   */\n  0x44\n  add\n    /* \"@api3/airnode-protocol/contracts/rrp/requesters/RrpRequesterV0.sol\":986:1054   */\n  0x00\n  mload(0x40)\n  dup1\n  dup4\n  sub\n  dup2\n  0x00\n  dup8\n  dup1\n  extcodesize\n  iszero\n  dup1\n  iszero\n  tag_9\n  jumpi\n  0x00\n  dup1\n  revert\ntag_9:\n  pop\n  gas\n  call\n  iszero\n  dup1\n  iszero\n  tag_11\n  jumpi\n  returndatasize\n  0x00\n  dup1\n  returndatacopy\n  revert(0x00, returndatasize)\ntag_11:\n  pop\n  pop\n    /* \"Lottery.sol\":2162:2177  lotteryOperator */\n  0x01\n    /* \"Lottery.sol\":2162:2190  lotteryOperator = msg.sender */\n  dup1\n  sload\n  not(sub(shl(0xa0, 0x01), 0x01))\n  and\n    /* \"Lottery.sol\":2180:2190  msg.sender */\n  caller\n    /* \"Lottery.sol\":2162:2190  lotteryOperator = msg.sender */\n  or\n  swap1\n  sstore\n  pop\n    /* \"Lottery.sol\":2213:2239  block.timestamp + duration */\n  tag_13\n  swap2\n  pop\n    /* \"Lottery.sol\":482:492  30 minutes */\n  0x0708\n  swap1\n  pop\n    /* \"Lottery.sol\":2213:2228  block.timestamp */\n  timestamp\n    /* \"Lottery.sol\":2213:2239  block.timestamp + duration */\n  tag_14\n  jump\t// in\ntag_13:\n    /* \"Lottery.sol\":2200:2210  expiration */\n  0x00\n    /* \"Lottery.sol\":2200:2239  expiration = block.timestamp + duration */\n  sstore\n  pop\n    /* \"Lottery.sol\":191:6968  contract Lottery is RrpRequesterV0 {... */\n  jump(tag_16)\n    /* \"#utility.yul\":14:304   */\ntag_3:\n    /* \"#utility.yul\":84:90   */\n  0x00\n    /* \"#utility.yul\":137:139   */\n  0x20\n    /* \"#utility.yul\":125:134   */\n  dup3\n    /* \"#utility.yul\":116:123   */\n  dup5\n    /* \"#utility.yul\":112:135   */\n  sub\n    /* \"#utility.yul\":108:140   */\n  slt\n    /* \"#utility.yul\":105:157   */\n  iszero\n  tag_18\n  jumpi\n    /* \"#utility.yul\":153:154   */\n  0x00\n    /* \"#utility.yul\":150:151   */\n  dup1\n    /* \"#utility.yul\":143:155   */\n  revert\n    /* \"#utility.yul\":105:157   */\ntag_18:\n    /* \"#utility.yul\":179:195   */\n  dup2\n  mload\n  sub(shl(0xa0, 0x01), 0x01)\n    /* \"#utility.yul\":224:255   */\n  dup2\n  and\n    /* \"#utility.yul\":214:256   */\n  dup2\n  eq\n    /* \"#utility.yul\":204:274   */\n  tag_19\n  jumpi\n    /* \"#utility.yul\":270:271   */\n  0x00\n    /* \"#utility.yul\":267:268   */\n  dup1\n    /* \"#utility.yul\":260:272   */\n  revert\n    /* \"#utility.yul\":204:274   */\ntag_19:\n    /* \"#utility.yul\":293:298   */\n  swap4\n    /* \"#utility.yul\":14:304   */\n  swap3\n  pop\n  pop\n  pop\n  jump\t// out\n    /* \"#utility.yul\":598:820   */\ntag_14:\n    /* \"#utility.yul\":663:672   */\n  dup1\n  dup3\n  add\n    /* \"#utility.yul\":684:694   */\n  dup1\n  dup3\n  gt\n    /* \"#utility.yul\":681:814   */\n  iszero\n  tag_22\n  jumpi\n    /* \"#utility.yul\":736:746   */\n  0x4e487b71\n    /* \"#utility.yul\":731:734   */\n  0xe0\n    /* \"#utility.yul\":727:747   */\n  shl\n    /* \"#utility.yul\":724:725   */\n  0x00\n    /* \"#utility.yul\":717:748   */\n  mstore\n    /* \"#utility.yul\":771:775   */\n  0x11\n    /* \"#utility.yul\":768:769   */\n  0x04\n    /* \"#utility.yul\":761:776   */\n  mstore\n    /* \"#utility.yul\":799:803   */\n  0x24\n    /* \"#utility.yul\":796:797   */\n  0x00\n    /* \"#utility.yul\":789:804   */\n  revert\n    /* \"#utility.yul\":681:814   */\ntag_22:\n    /* \"#utility.yul\":598:820   */\n  swap3\n  swap2\n  pop\n  pop\n  jump\t// out\ntag_16:\n    /* \"Lottery.sol\":191:6968  contract Lottery is RrpRequesterV0 {... */\n  mload(0x80)\n  codecopy(0x00, dataOffset(sub_0), dataSize(sub_0))\n  0x00\n  assignImmutable(\"0x805d9adab435ca9ab8652c0f90e7e682f0cf17d8f3ef39fc5a18f42017987c3c\")\n  return(0x00, dataSize(sub_0))\nstop\n\nsub_0: assembly {\n        /* \"Lottery.sol\":191:6968  contract Lottery is RrpRequesterV0 {... */\n      mstore(0x40, 0x80)\n      jumpi(tag_1, lt(calldatasize, 0x04))\n      shr(0xe0, calldataload(0x00))\n      dup1\n      0x71bab666\n      gt\n      tag_36\n      jumpi\n      dup1\n      0xa88f4672\n      gt\n      tag_37\n      jumpi\n      dup1\n      0xdd64e534\n      gt\n      tag_38\n      jumpi\n      dup1\n      0xea3a1499\n      gt\n      tag_39\n      jumpi\n      dup1\n      0xea3a1499\n      eq\n      tag_33\n      jumpi\n      dup1\n      0xf2613269\n      eq\n      tag_34\n      jumpi\n      dup1\n      0xfe188184\n      eq\n      tag_35\n      jumpi\n      0x00\n      dup1\n      revert\n    tag_39:\n      dup1\n      0xdd64e534\n      eq\n      tag_31\n      jumpi\n      dup1\n      0xdea12bad\n      eq\n      tag_32\n      jumpi\n      0x00\n      dup1\n      revert\n    tag_38:\n      dup1\n      0xa88f4672\n      eq\n      tag_27\n      jumpi\n      dup1\n      0xba946d79\n      eq\n      tag_28\n      jumpi\n      dup1\n      0xbf90fb4e\n      eq\n      tag_29\n      jumpi\n      dup1\n      0xc6944fa0\n      eq\n      tag_30\n      jumpi\n      0x00\n      dup1\n      revert\n    tag_37:\n      dup1\n      0x93a563b5\n      gt\n      tag_40\n      jumpi\n      dup1\n      0x93a563b5\n      eq\n      tag_23\n      jumpi\n      dup1\n      0x96c85ef3\n      eq\n      tag_24\n      jumpi\n      dup1\n      0x9b894703\n      eq\n      tag_25\n      jumpi\n      dup1\n      0xa36ff4d8\n      eq\n      tag_26\n      jumpi\n      0x00\n      dup1\n      revert\n    tag_40:\n      dup1\n      0x71bab666\n      eq\n      tag_19\n      jumpi\n      dup1\n      0x7bdf2525\n      eq\n      tag_20\n      jumpi\n      dup1\n      0x851244f7\n      eq\n      tag_21\n      jumpi\n      dup1\n      0x91d8b14e\n      eq\n      tag_22\n      jumpi\n      0x00\n      dup1\n      revert\n    tag_36:\n      dup1\n      0x4664611e\n      gt\n      tag_41\n      jumpi\n      dup1\n      0x50b44712\n      gt\n      tag_42\n      jumpi\n      dup1\n      0x5a58acdd\n      gt\n      tag_43\n      jumpi\n      dup1\n      0x5a58acdd\n      eq\n      tag_16\n      jumpi\n      dup1\n      0x6032a4f9\n      eq\n      tag_17\n      jumpi\n      dup1\n      0x71827b7b\n      eq\n      tag_18\n      jumpi\n      0x00\n      dup1\n      revert\n    tag_43:\n      dup1\n      0x50b44712\n      eq\n      tag_14\n      jumpi\n      dup1\n      0x55fbe857\n      eq\n      tag_15\n      jumpi\n      0x00\n      dup1\n      revert\n    tag_42:\n      dup1\n      0x4664611e\n      eq\n      tag_10\n      jumpi\n      dup1\n      0x4665096d\n      eq\n      tag_11\n      jumpi\n      dup1\n      0x4788af7c\n      eq\n      tag_12\n      jumpi\n      dup1\n      0x4ed02622\n      eq\n      tag_13\n      jumpi\n      0x00\n      dup1\n      revert\n    tag_41:\n      dup1\n      0x1209b1f6\n      gt\n      tag_44\n      jumpi\n      dup1\n      0x1209b1f6\n      eq\n      tag_6\n      jumpi\n      dup1\n      0x35580df2\n      eq\n      tag_7\n      jumpi\n      dup1\n      0x3718d90a\n      eq\n      tag_8\n      jumpi\n      dup1\n      0x37c28e63\n      eq\n      tag_9\n      jumpi\n      0x00\n      dup1\n      revert\n    tag_44:\n      dup1\n      0x06f7f3bf\n      eq\n      tag_2\n      jumpi\n      dup1\n      0x0789c607\n      eq\n      tag_3\n      jumpi\n      dup1\n      0x07b9fc57\n      eq\n      tag_4\n      jumpi\n      dup1\n      0x0fb5a6b4\n      eq\n      tag_5\n      jumpi\n    tag_1:\n      0x00\n      dup1\n      revert\n        /* \"Lottery.sol\":833:864  uint256 public lastWinnerAmount */\n    tag_2:\n      callvalue\n      dup1\n      iszero\n      tag_45\n      jumpi\n      0x00\n      dup1\n      revert\n    tag_45:\n      pop\n      tag_46\n      sload(0x04)\n      dup2\n      jump\n    tag_46:\n      mload(0x40)\n        /* \"#utility.yul\":160:185   */\n      swap1\n      dup2\n      mstore\n        /* \"#utility.yul\":148:150   */\n      0x20\n        /* \"#utility.yul\":133:151   */\n      add\n        /* \"Lottery.sol\":833:864  uint256 public lastWinnerAmount */\n    tag_48:\n      mload(0x40)\n      dup1\n      swap2\n      sub\n      swap1\n      return\n        /* \"Lottery.sol\":5579:5787  function checkWinningsAmount() public view returns (uint256) {... */\n    tag_3:\n      callvalue\n      dup1\n      iszero\n      tag_50\n      jumpi\n      0x00\n      dup1\n      revert\n    tag_50:\n      pop\n        /* \"Lottery.sol\":5683:5693  msg.sender */\n      caller\n        /* \"Lottery.sol\":5631:5638  uint256 */\n      0x00\n        /* \"Lottery.sol\":5731:5747  winnings[winner] */\n      swap1\n      dup2\n      mstore\n        /* \"Lottery.sol\":5731:5739  winnings */\n      0x06\n        /* \"Lottery.sol\":5731:5747  winnings[winner] */\n      0x20\n      mstore\n      0x40\n      swap1\n      keccak256\n      sload\n        /* \"Lottery.sol\":5579:5787  function checkWinningsAmount() public view returns (uint256) {... */\n      jump(tag_46)\n        /* \"Lottery.sol\":1349:1381  bytes32 public endpointIdUint256 */\n    tag_4:\n      callvalue\n      dup1\n      iszero\n      tag_54\n      jumpi\n      0x00\n      dup1\n      revert\n    tag_54:\n      pop\n      tag_46\n      sload(0x0a)\n      dup2\n      jump\n        /* \"Lottery.sol\":447:492  uint256 public constant duration = 30 minutes */\n    tag_5:\n      callvalue\n      dup1\n      iszero\n      tag_59\n      jumpi\n      0x00\n      dup1\n      revert\n    tag_59:\n      pop\n      tag_46\n        /* \"Lottery.sol\":482:492  30 minutes */\n      0x0708\n        /* \"Lottery.sol\":447:492  uint256 public constant duration = 30 minutes */\n      dup2\n      jump\n        /* \"Lottery.sol\":232:280  uint256 public constant ticketPrice = 0.01 ether */\n    tag_6:\n      callvalue\n      dup1\n      iszero\n      tag_63\n      jumpi\n      0x00\n      dup1\n      revert\n    tag_63:\n      pop\n      tag_46\n        /* \"Lottery.sol\":270:280  0.01 ether */\n      0x2386f26fc10000\n        /* \"Lottery.sol\":232:280  uint256 public constant ticketPrice = 0.01 ether */\n      dup2\n      jump\n        /* \"Lottery.sol\":6369:6630  function WithdrawCommission() public isOperator {... */\n    tag_7:\n      callvalue\n      dup1\n      iszero\n      tag_67\n      jumpi\n      0x00\n      dup1\n      revert\n    tag_67:\n      pop\n      tag_68\n      tag_69\n      jump\t// in\n    tag_68:\n      stop\n        /* \"Lottery.sol\":3279:3754  function fulfillUint256(bytes32 requestId, bytes calldata data)... */\n    tag_8:\n      callvalue\n      dup1\n      iszero\n      tag_70\n      jumpi\n      0x00\n      dup1\n      revert\n    tag_70:\n      pop\n      tag_68\n      tag_72\n      calldatasize\n      0x04\n      tag_73\n      jump\t// in\n    tag_72:\n      tag_74\n      jump\t// in\n        /* \"Lottery.sol\":2716:2861  function setSponsorWallet(address payable _sponsorWallet)... */\n    tag_9:\n      callvalue\n      dup1\n      iszero\n      tag_75\n      jumpi\n      0x00\n      dup1\n      revert\n    tag_75:\n      pop\n      tag_68\n      tag_77\n      calldatasize\n      0x04\n      tag_78\n      jump\t// in\n    tag_77:\n      tag_79\n      jump\t// in\n        /* \"Lottery.sol\":911:939  uint256 public winningNumber */\n    tag_10:\n      callvalue\n      dup1\n      iszero\n      tag_80\n      jumpi\n      0x00\n      dup1\n      revert\n    tag_80:\n      pop\n      tag_46\n      sload(0x05)\n      dup2\n      jump\n        /* \"Lottery.sol\":535:560  uint256 public expiration */\n    tag_11:\n      callvalue\n      dup1\n      iszero\n      tag_84\n      jumpi\n      0x00\n      dup1\n      revert\n    tag_84:\n      pop\n      tag_46\n      sload(0x00)\n      dup2\n      jump\n        /* \"Lottery.sol\":4663:5365  function DrawWinnerTicket() public isOperator {... */\n    tag_12:\n      callvalue\n      dup1\n      iszero\n      tag_88\n      jumpi\n      0x00\n      dup1\n      revert\n    tag_88:\n      pop\n      tag_68\n      tag_90\n      jump\t// in\n        /* \"Lottery.sol\":3869:3961  function getTickets() public view returns (address[] memory) {... */\n    tag_13:\n      callvalue\n      dup1\n      iszero\n      tag_91\n      jumpi\n      0x00\n      dup1\n      revert\n    tag_91:\n      pop\n      tag_92\n      tag_93\n      jump\t// in\n    tag_92:\n      mload(0x40)\n      tag_48\n      swap2\n      swap1\n      tag_95\n      jump\t// in\n        /* \"Lottery.sol\":1060:1084  address[] public tickets */\n    tag_14:\n      callvalue\n      dup1\n      iszero\n      tag_96\n      jumpi\n      0x00\n      dup1\n      revert\n    tag_96:\n      pop\n      tag_97\n      tag_98\n      calldatasize\n      0x04\n      tag_99\n      jump\t// in\n    tag_98:\n      tag_100\n      jump\t// in\n    tag_97:\n      mload(0x40)\n      sub(shl(0xa0, 0x01), 0x01)\n        /* \"#utility.yul\":2512:2567   */\n      swap1\n      swap2\n      and\n        /* \"#utility.yul\":2494:2568   */\n      dup2\n      mstore\n        /* \"#utility.yul\":2482:2484   */\n      0x20\n        /* \"#utility.yul\":2467:2485   */\n      add\n        /* \"Lottery.sol\":1060:1084  address[] public tickets */\n      tag_48\n        /* \"#utility.yul\":2348:2574   */\n      jump\n        /* \"Lottery.sol\":3760:3833  function startRandomNumber() public {... */\n    tag_15:\n      callvalue\n      dup1\n      iszero\n      tag_103\n      jumpi\n      0x00\n      dup1\n      revert\n    tag_103:\n      pop\n      tag_68\n      tag_105\n      jump\t// in\n        /* \"Lottery.sol\":623:653  address public lotteryOperator */\n    tag_16:\n      callvalue\n      dup1\n      iszero\n      tag_106\n      jumpi\n      0x00\n      dup1\n      revert\n    tag_106:\n      pop\n      sload(0x01)\n      tag_97\n      swap1\n      sub(shl(0xa0, 0x01), 0x01)\n      and\n      dup2\n      jump\n        /* \"Lottery.sol\":363:417  uint256 public constant ticketCommission = 0.001 ether */\n    tag_17:\n      callvalue\n      dup1\n      iszero\n      tag_110\n      jumpi\n      0x00\n      dup1\n      revert\n    tag_110:\n      pop\n      tag_46\n        /* \"Lottery.sol\":406:417  0.001 ether */\n      0x038d7ea4c68000\n        /* \"Lottery.sol\":363:417  uint256 public constant ticketCommission = 0.001 ether */\n      dup2\n      jump\n        /* \"Lottery.sol\":5793:6024  function WithdrawWinnings() public isWinner {... */\n    tag_18:\n      callvalue\n      dup1\n      iszero\n      tag_114\n      jumpi\n      0x00\n      dup1\n      revert\n    tag_114:\n      pop\n      tag_68\n      tag_116\n      jump\t// in\n        /* \"@api3/airnode-protocol/contracts/rrp/requesters/RrpRequesterV0.sol\":199:240   */\n    tag_19:\n      callvalue\n      dup1\n      iszero\n      tag_117\n      jumpi\n      0x00\n      dup1\n      revert\n    tag_117:\n      pop\n      tag_97\n      immutable(\"0x805d9adab435ca9ab8652c0f90e7e682f0cf17d8f3ef39fc5a18f42017987c3c\")\n      dup2\n      jump\n        /* \"Lottery.sol\":2273:2689  function setRequestParameters(... */\n    tag_20:\n      callvalue\n      dup1\n      iszero\n      tag_122\n      jumpi\n      0x00\n      dup1\n      revert\n    tag_122:\n      pop\n      tag_68\n      tag_124\n      calldatasize\n      0x04\n      tag_125\n      jump\t// in\n    tag_124:\n      tag_126\n      jump\t// in\n        /* \"Lottery.sol\":1119:1186  mapping(bytes32 => bool) public expectingRequestWithIdToBeFulfilled */\n    tag_21:\n      callvalue\n      dup1\n      iszero\n      tag_127\n      jumpi\n      0x00\n      dup1\n      revert\n    tag_127:\n      pop\n      tag_128\n      tag_129\n      calldatasize\n      0x04\n      tag_99\n      jump\t// in\n    tag_129:\n      mstore(0x20, 0x08)\n      0x00\n      swap1\n      dup2\n      mstore\n      0x40\n      swap1\n      keccak256\n      sload\n      0xff\n      and\n      dup2\n      jump\n    tag_128:\n      mload(0x40)\n        /* \"#utility.yul\":3658:3672   */\n      swap1\n      iszero\n        /* \"#utility.yul\":3651:3673   */\n      iszero\n        /* \"#utility.yul\":3633:3674   */\n      dup2\n      mstore\n        /* \"#utility.yul\":3621:3623   */\n      0x20\n        /* \"#utility.yul\":3606:3624   */\n      add\n        /* \"Lottery.sol\":1119:1186  mapping(bytes32 => bool) public expectingRequestWithIdToBeFulfilled */\n      tag_48\n        /* \"#utility.yul\":3493:3680   */\n      jump\n        /* \"Lottery.sol\":4086:4657  function BuyTickets() public payable {... */\n    tag_22:\n      tag_68\n      tag_135\n      jump\t// in\n        /* \"Lottery.sol\":6857:6966  function RemainingTickets() public view returns (uint256) {... */\n    tag_23:\n      callvalue\n      dup1\n      iszero\n      tag_136\n      jumpi\n      0x00\n      dup1\n      revert\n    tag_136:\n      pop\n      tag_46\n      tag_138\n      jump\t// in\n        /* \"Lottery.sol\":6636:6731  function IsWinner() public view returns (bool) {... */\n    tag_24:\n      callvalue\n      dup1\n      iszero\n      tag_140\n      jumpi\n      0x00\n      dup1\n      revert\n    tag_140:\n      pop\n        /* \"Lottery.sol\":6709:6719  msg.sender */\n      caller\n        /* \"Lottery.sol\":6677:6681  bool */\n      0x00\n        /* \"Lottery.sol\":6700:6720  winnings[msg.sender] */\n      swap1\n      dup2\n      mstore\n        /* \"Lottery.sol\":6700:6708  winnings */\n      0x06\n        /* \"Lottery.sol\":6700:6720  winnings[msg.sender] */\n      0x20\n      mstore\n      0x40\n      swap1\n      keccak256\n      sload\n        /* \"Lottery.sol\":6700:6724  winnings[msg.sender] > 0 */\n      iszero\n      iszero\n        /* \"Lottery.sol\":6636:6731  function IsWinner() public view returns (bool) {... */\n      jump(tag_128)\n        /* \"Lottery.sol\":286:326  uint256 public constant maxTickets = 100 */\n    tag_25:\n      callvalue\n      dup1\n      iszero\n      tag_144\n      jumpi\n      0x00\n      dup1\n      revert\n    tag_144:\n      pop\n      tag_46\n        /* \"Lottery.sol\":323:326  100 */\n      0x64\n        /* \"Lottery.sol\":286:326  uint256 public constant maxTickets = 100 */\n      dup2\n      jump\n        /* \"Lottery.sol\":1321:1343  address public airnode */\n    tag_26:\n      callvalue\n      dup1\n      iszero\n      tag_148\n      jumpi\n      0x00\n      dup1\n      revert\n    tag_148:\n      pop\n      sload(0x09)\n      tag_97\n      swap1\n      sub(shl(0xa0, 0x01), 0x01)\n      and\n      dup2\n      jump\n        /* \"Lottery.sol\":6030:6363  function RefundAll() public {... */\n    tag_27:\n      callvalue\n      dup1\n      iszero\n      tag_152\n      jumpi\n      0x00\n      dup1\n      revert\n    tag_152:\n      pop\n      tag_68\n      tag_154\n      jump\t// in\n        /* \"Lottery.sol\":688:730  uint256 public operatorTotalCommission = 0 */\n    tag_28:\n      callvalue\n      dup1\n      iszero\n      tag_155\n      jumpi\n      0x00\n      dup1\n      revert\n    tag_155:\n      pop\n      tag_46\n      sload(0x02)\n      dup2\n      jump\n        /* \"Lottery.sol\":1387:1415  address public sponsorWallet */\n    tag_29:\n      callvalue\n      dup1\n      iszero\n      tag_159\n      jumpi\n      0x00\n      dup1\n      revert\n    tag_159:\n      pop\n      sload(0x0b)\n      tag_97\n      swap1\n      sub(shl(0xa0, 0x01), 0x01)\n      and\n      dup2\n      jump\n        /* \"Lottery.sol\":6737:6851  function CurrentWinningReward() public view returns (uint256) {... */\n    tag_30:\n      callvalue\n      dup1\n      iszero\n      tag_163\n      jumpi\n      0x00\n      dup1\n      revert\n    tag_163:\n      pop\n      tag_46\n      tag_165\n      jump\t// in\n        /* \"Lottery.sol\":3967:4080  function getWinningsForAddress(address addr) public view returns (uint256) {... */\n    tag_31:\n      callvalue\n      dup1\n      iszero\n      tag_167\n      jumpi\n      0x00\n      dup1\n      revert\n    tag_167:\n      pop\n      tag_46\n      tag_169\n      calldatasize\n      0x04\n      tag_78\n      jump\t// in\n    tag_169:\n      sub(shl(0xa0, 0x01), 0x01)\n        /* \"Lottery.sol\":4059:4073  winnings[addr] */\n      and\n        /* \"Lottery.sol\":4033:4040  uint256 */\n      0x00\n        /* \"Lottery.sol\":4059:4073  winnings[addr] */\n      swap1\n      dup2\n      mstore\n        /* \"Lottery.sol\":4059:4067  winnings */\n      0x06\n        /* \"Lottery.sol\":4059:4073  winnings[addr] */\n      0x20\n      mstore\n      0x40\n      swap1\n      keccak256\n      sload\n      swap1\n        /* \"Lottery.sol\":3967:4080  function getWinningsForAddress(address addr) public view returns (uint256) {... */\n      jump\n        /* \"Lottery.sol\":2867:3273  function makeRequestUint256() public {... */\n    tag_32:\n      callvalue\n      dup1\n      iszero\n      tag_173\n      jumpi\n      0x00\n      dup1\n      revert\n    tag_173:\n      pop\n      tag_68\n      tag_175\n      jump\t// in\n        /* \"Lottery.sol\":973:1016  mapping(address => uint256) public winnings */\n    tag_33:\n      callvalue\n      dup1\n      iszero\n      tag_176\n      jumpi\n      0x00\n      dup1\n      revert\n    tag_176:\n      pop\n      tag_46\n      tag_178\n      calldatasize\n      0x04\n      tag_78\n      jump\t// in\n    tag_178:\n      mstore(0x20, 0x06)\n      0x00\n      swap1\n      dup2\n      mstore\n      0x40\n      swap1\n      keccak256\n      sload\n      dup2\n      jump\n        /* \"Lottery.sol\":5371:5573  function restartDraw() public isOperator {... */\n    tag_34:\n      callvalue\n      dup1\n      iszero\n      tag_181\n      jumpi\n      0x00\n      dup1\n      revert\n    tag_181:\n      pop\n      tag_68\n      tag_183\n      jump\t// in\n        /* \"Lottery.sol\":768:793  address public lastWinner */\n    tag_35:\n      callvalue\n      dup1\n      iszero\n      tag_184\n      jumpi\n      0x00\n      dup1\n      revert\n    tag_184:\n      pop\n      sload(0x03)\n      tag_97\n      swap1\n      sub(shl(0xa0, 0x01), 0x01)\n      and\n      dup2\n      jump\n        /* \"Lottery.sol\":6369:6630  function WithdrawCommission() public isOperator {... */\n    tag_69:\n        /* \"Lottery.sol\":1549:1564  lotteryOperator */\n      and(sub(shl(0xa0, 0x01), 0x01), sload(0x01))\n        /* \"Lottery.sol\":1535:1545  msg.sender */\n      caller\n        /* \"Lottery.sol\":1535:1564  msg.sender == lotteryOperator */\n      eq\n        /* \"Lottery.sol\":1513:1625  require(... */\n      tag_190\n      jumpi\n      mload(0x40)\n      shl(0xe5, 0x461bcd)\n      dup2\n      mstore\n        /* \"#utility.yul\":4147:4149   */\n      0x20\n        /* \"Lottery.sol\":1513:1625  require(... */\n      0x04\n      dup3\n      add\n        /* \"#utility.yul\":4129:4150   */\n      mstore\n        /* \"#utility.yul\":4186:4188   */\n      0x22\n        /* \"#utility.yul\":4166:4184   */\n      0x24\n      dup3\n      add\n        /* \"#utility.yul\":4159:4189   */\n      mstore\n        /* \"#utility.yul\":4225:4259   */\n      0x43616c6c6572206973206e6f7420746865206c6f7474657279206f7065726174\n        /* \"#utility.yul\":4205:4223   */\n      0x44\n      dup3\n      add\n        /* \"#utility.yul\":4198:4260   */\n      mstore\n      shl(0xf1, 0x37b9)\n        /* \"#utility.yul\":4276:4294   */\n      0x64\n      dup3\n      add\n        /* \"#utility.yul\":4269:4301   */\n      mstore\n        /* \"#utility.yul\":4318:4337   */\n      0x84\n      add\n        /* \"Lottery.sol\":1513:1625  require(... */\n    tag_191:\n      mload(0x40)\n      dup1\n      swap2\n      sub\n      swap1\n      revert\n    tag_190:\n        /* \"Lottery.sol\":6514:6537  operatorTotalCommission */\n      0x02\n      dup1\n      sload\n        /* \"Lottery.sol\":6427:6451  address payable operator */\n      0x00\n        /* \"Lottery.sol\":6547:6574  operatorTotalCommission = 0 */\n      swap2\n      dup3\n      swap1\n      sstore\n        /* \"Lottery.sol\":6585:6623  operator.transfer(commission2Transfer) */\n      mload(0x40)\n        /* \"Lottery.sol\":6462:6472  msg.sender */\n      caller\n      swap3\n      dup4\n      swap2\n        /* \"Lottery.sol\":6585:6623  operator.transfer(commission2Transfer) */\n      dup4\n      iszero\n      0x08fc\n      mul\n      swap2\n        /* \"Lottery.sol\":6514:6537  operatorTotalCommission */\n      dup5\n      swap2\n        /* \"Lottery.sol\":6585:6623  operator.transfer(commission2Transfer) */\n      swap1\n      dup2\n        /* \"Lottery.sol\":6427:6451  address payable operator */\n      dup2\n        /* \"Lottery.sol\":6585:6623  operator.transfer(commission2Transfer) */\n      dup2\n        /* \"Lottery.sol\":6514:6537  operatorTotalCommission */\n      dup6\n        /* \"Lottery.sol\":6462:6472  msg.sender */\n      dup9\n        /* \"Lottery.sol\":6585:6623  operator.transfer(commission2Transfer) */\n      dup9\n      call\n      swap4\n      pop\n      pop\n      pop\n      pop\n      iszero\n      dup1\n      iszero\n      tag_195\n      jumpi\n      returndatasize\n      0x00\n      dup1\n      returndatacopy\n      revert(0x00, returndatasize)\n    tag_195:\n      pop\n        /* \"Lottery.sol\":6417:6630  {... */\n      pop\n      pop\n        /* \"Lottery.sol\":6369:6630  function WithdrawCommission() public isOperator {... */\n      jump\t// out\n        /* \"Lottery.sol\":3279:3754  function fulfillUint256(bytes32 requestId, bytes calldata data)... */\n    tag_74:\n        /* \"@api3/airnode-protocol/contracts/rrp/requesters/RrpRequesterV0.sol\":464:474   */\n      caller\n      sub(shl(0xa0, 0x01), 0x01)\n        /* \"@api3/airnode-protocol/contracts/rrp/requesters/RrpRequesterV0.sol\":486:496   */\n      immutable(\"0x805d9adab435ca9ab8652c0f90e7e682f0cf17d8f3ef39fc5a18f42017987c3c\")\n        /* \"@api3/airnode-protocol/contracts/rrp/requesters/RrpRequesterV0.sol\":464:497   */\n      and\n      eq\n        /* \"@api3/airnode-protocol/contracts/rrp/requesters/RrpRequesterV0.sol\":456:524   */\n      tag_197\n      jumpi\n      mload(0x40)\n      shl(0xe5, 0x461bcd)\n      dup2\n      mstore\n        /* \"#utility.yul\":4550:4552   */\n      0x20\n        /* \"@api3/airnode-protocol/contracts/rrp/requesters/RrpRequesterV0.sol\":456:524   */\n      0x04\n      dup3\n      add\n        /* \"#utility.yul\":4532:4553   */\n      mstore\n        /* \"#utility.yul\":4589:4591   */\n      0x16\n        /* \"#utility.yul\":4569:4587   */\n      0x24\n      dup3\n      add\n        /* \"#utility.yul\":4562:4592   */\n      mstore\n        /* \"#utility.yul\":4628:4652   */\n      0x43616c6c6572206e6f74204169726e6f64652052525000000000000000000000\n        /* \"#utility.yul\":4608:4626   */\n      0x44\n      dup3\n      add\n        /* \"#utility.yul\":4601:4653   */\n      mstore\n        /* \"#utility.yul\":4670:4688   */\n      0x64\n      add\n        /* \"@api3/airnode-protocol/contracts/rrp/requesters/RrpRequesterV0.sol\":456:524   */\n      tag_191\n        /* \"#utility.yul\":4348:4694   */\n      jump\n        /* \"@api3/airnode-protocol/contracts/rrp/requesters/RrpRequesterV0.sol\":456:524   */\n    tag_197:\n        /* \"Lottery.sol\":3418:3464  expectingRequestWithIdToBeFulfilled[requestId] */\n      0x00\n      dup4\n      dup2\n      mstore\n        /* \"Lottery.sol\":3418:3453  expectingRequestWithIdToBeFulfilled */\n      0x08\n        /* \"Lottery.sol\":3418:3464  expectingRequestWithIdToBeFulfilled[requestId] */\n      0x20\n      mstore\n      0x40\n      swap1\n      keccak256\n      sload\n      0xff\n      and\n        /* \"Lottery.sol\":3397:3510  require(... */\n      tag_201\n      jumpi\n      mload(0x40)\n      shl(0xe5, 0x461bcd)\n      dup2\n      mstore\n        /* \"#utility.yul\":4901:4903   */\n      0x20\n        /* \"Lottery.sol\":3397:3510  require(... */\n      0x04\n      dup3\n      add\n        /* \"#utility.yul\":4883:4904   */\n      mstore\n        /* \"#utility.yul\":4940:4942   */\n      0x14\n        /* \"#utility.yul\":4920:4938   */\n      0x24\n      dup3\n      add\n        /* \"#utility.yul\":4913:4943   */\n      mstore\n        /* \"#utility.yul\":4979:5001   */\n      0x52657175657374204944206e6f74206b6e6f776e000000000000000000000000\n        /* \"#utility.yul\":4959:4977   */\n      0x44\n      dup3\n      add\n        /* \"#utility.yul\":4952:5002   */\n      mstore\n        /* \"#utility.yul\":5019:5037   */\n      0x64\n      add\n        /* \"Lottery.sol\":3397:3510  require(... */\n      tag_191\n        /* \"#utility.yul\":4699:5043   */\n      jump\n        /* \"Lottery.sol\":3397:3510  require(... */\n    tag_201:\n        /* \"Lottery.sol\":3569:3574  false */\n      0x00\n        /* \"Lottery.sol\":3520:3566  expectingRequestWithIdToBeFulfilled[requestId] */\n      dup4\n      dup2\n      mstore\n        /* \"Lottery.sol\":3520:3555  expectingRequestWithIdToBeFulfilled */\n      0x08\n        /* \"Lottery.sol\":3520:3566  expectingRequestWithIdToBeFulfilled[requestId] */\n      0x20\n      mstore\n      0x40\n      dup2\n      keccak256\n        /* \"Lottery.sol\":3520:3574  expectingRequestWithIdToBeFulfilled[requestId] = false */\n      dup1\n      sload\n      not(0xff)\n      and\n      swap1\n      sstore\n        /* \"Lottery.sol\":3606:3633  abi.decode(data, (uint256)) */\n      tag_204\n      dup3\n      dup5\n      add\n        /* \"Lottery.sol\":3617:3621  data */\n      dup5\n        /* \"Lottery.sol\":3606:3633  abi.decode(data, (uint256)) */\n      tag_99\n      jump\t// in\n    tag_204:\n        /* \"Lottery.sol\":3674:3681  tickets */\n      0x07\n        /* \"Lottery.sol\":3674:3688  tickets.length */\n      sload\n        /* \"Lottery.sol\":3584:3633  uint256 qrngUint256 = abi.decode(data, (uint256)) */\n      swap1\n      swap2\n      pop\n        /* \"Lottery.sol\":3674:3692  tickets.length + 1 */\n      tag_205\n      swap1\n        /* \"Lottery.sol\":3691:3692  1 */\n      0x01\n        /* \"Lottery.sol\":3674:3692  tickets.length + 1 */\n      tag_206\n      jump\t// in\n    tag_205:\n        /* \"Lottery.sol\":3659:3693  qrngUint256 % (tickets.length + 1) */\n      tag_207\n      swap1\n        /* \"Lottery.sol\":3659:3670  qrngUint256 */\n      dup3\n        /* \"Lottery.sol\":3659:3693  qrngUint256 % (tickets.length + 1) */\n      tag_208\n      jump\t// in\n    tag_207:\n        /* \"Lottery.sol\":3643:3656  winningNumber */\n      0x05\n        /* \"Lottery.sol\":3643:3693  winningNumber = qrngUint256 % (tickets.length + 1) */\n      sstore\n        /* \"Lottery.sol\":3708:3747  ReceivedUint256(requestId, qrngUint256) */\n      mload(0x40)\n        /* \"#utility.yul\":160:185   */\n      dup2\n      dup2\n      mstore\n        /* \"Lottery.sol\":3724:3733  requestId */\n      dup5\n      swap1\n        /* \"Lottery.sol\":3708:3747  ReceivedUint256(requestId, qrngUint256) */\n      0x1ca47bacd454c26163f84eff4aa514e291ba9fa67ad6029e39567c122bbed30f\n      swap1\n        /* \"#utility.yul\":148:150   */\n      0x20\n        /* \"#utility.yul\":133:151   */\n      add\n        /* \"Lottery.sol\":3708:3747  ReceivedUint256(requestId, qrngUint256) */\n      mload(0x40)\n      dup1\n      swap2\n      sub\n      swap1\n      log2\n        /* \"Lottery.sol\":3387:3754  {... */\n      pop\n        /* \"Lottery.sol\":3279:3754  function fulfillUint256(bytes32 requestId, bytes calldata data)... */\n      pop\n      pop\n      pop\n      jump\t// out\n        /* \"Lottery.sol\":2716:2861  function setSponsorWallet(address payable _sponsorWallet)... */\n    tag_79:\n        /* \"Lottery.sol\":1549:1564  lotteryOperator */\n      and(sub(shl(0xa0, 0x01), 0x01), sload(0x01))\n        /* \"Lottery.sol\":1535:1545  msg.sender */\n      caller\n        /* \"Lottery.sol\":1535:1564  msg.sender == lotteryOperator */\n      eq\n        /* \"Lottery.sol\":1513:1625  require(... */\n      tag_211\n      jumpi\n      mload(0x40)\n      shl(0xe5, 0x461bcd)\n      dup2\n      mstore\n        /* \"#utility.yul\":4147:4149   */\n      0x20\n        /* \"Lottery.sol\":1513:1625  require(... */\n      0x04\n      dup3\n      add\n        /* \"#utility.yul\":4129:4150   */\n      mstore\n        /* \"#utility.yul\":4186:4188   */\n      0x22\n        /* \"#utility.yul\":4166:4184   */\n      0x24\n      dup3\n      add\n        /* \"#utility.yul\":4159:4189   */\n      mstore\n        /* \"#utility.yul\":4225:4259   */\n      0x43616c6c6572206973206e6f7420746865206c6f7474657279206f7065726174\n        /* \"#utility.yul\":4205:4223   */\n      0x44\n      dup3\n      add\n        /* \"#utility.yul\":4198:4260   */\n      mstore\n      shl(0xf1, 0x37b9)\n        /* \"#utility.yul\":4276:4294   */\n      0x64\n      dup3\n      add\n        /* \"#utility.yul\":4269:4301   */\n      mstore\n        /* \"#utility.yul\":4318:4337   */\n      0x84\n      add\n        /* \"Lottery.sol\":1513:1625  require(... */\n      tag_191\n        /* \"#utility.yul\":3945:4343   */\n      jump\n        /* \"Lottery.sol\":1513:1625  require(... */\n    tag_211:\n        /* \"Lottery.sol\":2824:2837  sponsorWallet */\n      0x0b\n        /* \"Lottery.sol\":2824:2854  sponsorWallet = _sponsorWallet */\n      dup1\n      sload\n      not(sub(shl(0xa0, 0x01), 0x01))\n      and\n      sub(shl(0xa0, 0x01), 0x01)\n      swap3\n      swap1\n      swap3\n      and\n      swap2\n      swap1\n      swap2\n      or\n      swap1\n      sstore\n        /* \"Lottery.sol\":2716:2861  function setSponsorWallet(address payable _sponsorWallet)... */\n      jump\t// out\n        /* \"Lottery.sol\":4663:5365  function DrawWinnerTicket() public isOperator {... */\n    tag_90:\n        /* \"Lottery.sol\":1549:1564  lotteryOperator */\n      and(sub(shl(0xa0, 0x01), 0x01), sload(0x01))\n        /* \"Lottery.sol\":1535:1545  msg.sender */\n      caller\n        /* \"Lottery.sol\":1535:1564  msg.sender == lotteryOperator */\n      eq\n        /* \"Lottery.sol\":1513:1625  require(... */\n      tag_215\n      jumpi\n      mload(0x40)\n      shl(0xe5, 0x461bcd)\n      dup2\n      mstore\n        /* \"#utility.yul\":4147:4149   */\n      0x20\n        /* \"Lottery.sol\":1513:1625  require(... */\n      0x04\n      dup3\n      add\n        /* \"#utility.yul\":4129:4150   */\n      mstore\n        /* \"#utility.yul\":4186:4188   */\n      0x22\n        /* \"#utility.yul\":4166:4184   */\n      0x24\n      dup3\n      add\n        /* \"#utility.yul\":4159:4189   */\n      mstore\n        /* \"#utility.yul\":4225:4259   */\n      0x43616c6c6572206973206e6f7420746865206c6f7474657279206f7065726174\n        /* \"#utility.yul\":4205:4223   */\n      0x44\n      dup3\n      add\n        /* \"#utility.yul\":4198:4260   */\n      mstore\n      shl(0xf1, 0x37b9)\n        /* \"#utility.yul\":4276:4294   */\n      0x64\n      dup3\n      add\n        /* \"#utility.yul\":4269:4301   */\n      mstore\n        /* \"#utility.yul\":4318:4337   */\n      0x84\n      add\n        /* \"Lottery.sol\":1513:1625  require(... */\n      tag_191\n        /* \"#utility.yul\":3945:4343   */\n      jump\n        /* \"Lottery.sol\":1513:1625  require(... */\n    tag_215:\n        /* \"Lottery.sol\":4727:4734  tickets */\n      0x07\n        /* \"Lottery.sol\":4727:4741  tickets.length */\n      sload\n        /* \"Lottery.sol\":4719:4775  require(tickets.length > 0, \"No tickets were purchased\") */\n      tag_218\n      jumpi\n      mload(0x40)\n      shl(0xe5, 0x461bcd)\n      dup2\n      mstore\n        /* \"#utility.yul\":5761:5763   */\n      0x20\n        /* \"Lottery.sol\":4719:4775  require(tickets.length > 0, \"No tickets were purchased\") */\n      0x04\n      dup3\n      add\n        /* \"#utility.yul\":5743:5764   */\n      mstore\n        /* \"#utility.yul\":5800:5802   */\n      0x19\n        /* \"#utility.yul\":5780:5798   */\n      0x24\n      dup3\n      add\n        /* \"#utility.yul\":5773:5803   */\n      mstore\n        /* \"#utility.yul\":5839:5866   */\n      0x4e6f207469636b65747320776572652070757263686173656400000000000000\n        /* \"#utility.yul\":5819:5837   */\n      0x44\n      dup3\n      add\n        /* \"#utility.yul\":5812:5867   */\n      mstore\n        /* \"#utility.yul\":5884:5902   */\n      0x64\n      add\n        /* \"Lottery.sol\":4719:4775  require(tickets.length > 0, \"No tickets were purchased\") */\n      tag_191\n        /* \"#utility.yul\":5559:5908   */\n      jump\n        /* \"Lottery.sol\":4719:4775  require(tickets.length > 0, \"No tickets were purchased\") */\n    tag_218:\n        /* \"Lottery.sol\":4988:5008  makeRequestUint256() */\n      tag_221\n        /* \"Lottery.sol\":4988:5006  makeRequestUint256 */\n      tag_175\n        /* \"Lottery.sol\":4988:5008  makeRequestUint256() */\n      jump\t// in\n    tag_221:\n        /* \"Lottery.sol\":5019:5033  address winner */\n      0x00\n        /* \"Lottery.sol\":5036:5043  tickets */\n      0x07\n        /* \"Lottery.sol\":5044:5057  winningNumber */\n      sload(0x05)\n        /* \"Lottery.sol\":5036:5058  tickets[winningNumber] */\n      dup2\n      sload\n      dup2\n      lt\n      tag_223\n      jumpi\n      tag_223\n      tag_224\n      jump\t// in\n    tag_223:\n      0x00\n      swap2\n      dup3\n      mstore\n      0x20\n      swap1\n      swap2\n      keccak256\n      add\n      sload\n        /* \"Lottery.sol\":5068:5078  lastWinner */\n      0x03\n        /* \"Lottery.sol\":5068:5087  lastWinner = winner */\n      dup1\n      sload\n      not(sub(shl(0xa0, 0x01), 0x01))\n      and\n      sub(shl(0xa0, 0x01), 0x01)\n        /* \"Lottery.sol\":5036:5058  tickets[winningNumber] */\n      swap1\n      swap3\n      and\n        /* \"Lottery.sol\":5068:5087  lastWinner = winner */\n      swap2\n      dup3\n      or\n      swap1\n      sstore\n        /* \"Lottery.sol\":5036:5058  tickets[winningNumber] */\n      swap1\n      pop\n        /* \"Lottery.sol\":5136:5166  ticketPrice - ticketCommission */\n      tag_226\n        /* \"Lottery.sol\":406:417  0.001 ether */\n      0x038d7ea4c68000\n        /* \"Lottery.sol\":270:280  0.01 ether */\n      0x2386f26fc10000\n        /* \"Lottery.sol\":5136:5166  ticketPrice - ticketCommission */\n      tag_227\n      jump\t// in\n    tag_226:\n        /* \"Lottery.sol\":5118:5125  tickets */\n      0x07\n        /* \"Lottery.sol\":5118:5132  tickets.length */\n      sload\n        /* \"Lottery.sol\":5118:5167  tickets.length * (ticketPrice - ticketCommission) */\n      tag_228\n      swap2\n      swap1\n      tag_229\n      jump\t// in\n    tag_228:\n      sub(shl(0xa0, 0x01), 0x01)\n        /* \"Lottery.sol\":5097:5113  winnings[winner] */\n      dup3\n      and\n      0x00\n      swap1\n      dup2\n      mstore\n        /* \"Lottery.sol\":5097:5105  winnings */\n      0x06\n        /* \"Lottery.sol\":5097:5113  winnings[winner] */\n      0x20\n      mstore\n      0x40\n      dup2\n      keccak256\n        /* \"Lottery.sol\":5097:5168  winnings[winner] += (tickets.length * (ticketPrice - ticketCommission)) */\n      dup1\n      sload\n        /* \"Lottery.sol\":5097:5113  winnings[winner] */\n      swap1\n      swap2\n      swap1\n        /* \"Lottery.sol\":5097:5168  winnings[winner] += (tickets.length * (ticketPrice - ticketCommission)) */\n      tag_230\n      swap1\n      dup5\n      swap1\n      tag_206\n      jump\t// in\n    tag_230:\n      swap1\n      swap2\n      sstore\n      pop\n      pop\n      sub(shl(0xa0, 0x01), 0x01)\n        /* \"Lottery.sol\":5197:5213  winnings[winner] */\n      dup2\n      and\n      0x00\n      swap1\n      dup2\n      mstore\n        /* \"Lottery.sol\":5197:5205  winnings */\n      0x06\n        /* \"Lottery.sol\":5197:5213  winnings[winner] */\n      0x20\n      mstore\n      0x40\n      swap1\n      keccak256\n      sload\n        /* \"Lottery.sol\":5178:5194  lastWinnerAmount */\n      0x04\n        /* \"Lottery.sol\":5178:5213  lastWinnerAmount = winnings[winner] */\n      sstore\n        /* \"Lottery.sol\":5251:5258  tickets */\n      0x07\n        /* \"Lottery.sol\":5251:5265  tickets.length */\n      sload\n        /* \"Lottery.sol\":5251:5284  tickets.length * ticketCommission */\n      tag_231\n      swap1\n        /* \"Lottery.sol\":406:417  0.001 ether */\n      0x038d7ea4c68000\n      swap1\n        /* \"Lottery.sol\":5251:5284  tickets.length * ticketCommission */\n      tag_229\n      jump\t// in\n    tag_231:\n        /* \"Lottery.sol\":5223:5246  operatorTotalCommission */\n      0x02\n      0x00\n        /* \"Lottery.sol\":5223:5285  operatorTotalCommission += (tickets.length * ticketCommission) */\n      dup3\n      dup3\n      sload\n      tag_232\n      swap2\n      swap1\n      tag_206\n      jump\t// in\n    tag_232:\n      swap1\n      swap2\n      sstore\n      pop\n        /* \"Lottery.sol\":5295:5309  delete tickets */\n      tag_233\n      swap1\n      pop\n        /* \"Lottery.sol\":5302:5309  tickets */\n      0x07\n      0x00\n        /* \"Lottery.sol\":5295:5309  delete tickets */\n      tag_234\n      jump\t// in\n    tag_233:\n        /* \"Lottery.sol\":5332:5358  block.timestamp + duration */\n      tag_235\n        /* \"Lottery.sol\":482:492  30 minutes */\n      0x0708\n        /* \"Lottery.sol\":5332:5347  block.timestamp */\n      timestamp\n        /* \"Lottery.sol\":5332:5358  block.timestamp + duration */\n      tag_206\n      jump\t// in\n    tag_235:\n        /* \"Lottery.sol\":5319:5329  expiration */\n      0x00\n        /* \"Lottery.sol\":5319:5358  expiration = block.timestamp + duration */\n      sstore\n      pop\n        /* \"Lottery.sol\":4663:5365  function DrawWinnerTicket() public isOperator {... */\n      jump\t// out\n        /* \"Lottery.sol\":3869:3961  function getTickets() public view returns (address[] memory) {... */\n    tag_93:\n        /* \"Lottery.sol\":3912:3928  address[] memory */\n      0x60\n        /* \"Lottery.sol\":3947:3954  tickets */\n      0x07\n        /* \"Lottery.sol\":3940:3954  return tickets */\n      dup1\n      sload\n      dup1\n      0x20\n      mul\n      0x20\n      add\n      mload(0x40)\n      swap1\n      dup2\n      add\n      0x40\n      mstore\n      dup1\n      swap3\n      swap2\n      swap1\n      dup2\n      dup2\n      mstore\n      0x20\n      add\n      dup3\n      dup1\n      sload\n      dup1\n      iszero\n      tag_237\n      jumpi\n      0x20\n      mul\n      dup3\n      add\n      swap2\n      swap1\n      0x00\n      mstore\n      keccak256(0x00, 0x20)\n      swap1\n    tag_238:\n      dup2\n      sload\n      sub(shl(0xa0, 0x01), 0x01)\n      and\n      dup2\n      mstore\n      0x01\n      swap1\n      swap2\n      add\n      swap1\n      0x20\n      add\n      dup1\n      dup4\n      gt\n      tag_238\n      jumpi\n    tag_237:\n      pop\n      pop\n      pop\n      pop\n      pop\n      swap1\n      pop\n        /* \"Lottery.sol\":3869:3961  function getTickets() public view returns (address[] memory) {... */\n      swap1\n      jump\t// out\n        /* \"Lottery.sol\":1060:1084  address[] public tickets */\n    tag_100:\n      0x07\n      dup2\n      dup2\n      sload\n      dup2\n      lt\n      tag_239\n      jumpi\n      0x00\n      dup1\n      revert\n    tag_239:\n      0x00\n      swap2\n      dup3\n      mstore\n      0x20\n      swap1\n      swap2\n      keccak256\n      add\n      sload\n      sub(shl(0xa0, 0x01), 0x01)\n      and\n      swap1\n      pop\n      dup2\n      jump\t// out\n        /* \"Lottery.sol\":3760:3833  function startRandomNumber() public {... */\n    tag_105:\n        /* \"Lottery.sol\":3806:3826  makeRequestUint256() */\n      tag_242\n        /* \"Lottery.sol\":3806:3824  makeRequestUint256 */\n      tag_175\n        /* \"Lottery.sol\":3806:3826  makeRequestUint256() */\n      jump\t// in\n    tag_242:\n        /* \"Lottery.sol\":3760:3833  function startRandomNumber() public {... */\n      jump\t// out\n        /* \"Lottery.sol\":5793:6024  function WithdrawWinnings() public isWinner {... */\n    tag_116:\n        /* \"Lottery.sol\":6709:6719  msg.sender */\n      caller\n        /* \"Lottery.sol\":6677:6681  bool */\n      0x00\n        /* \"Lottery.sol\":6700:6720  winnings[msg.sender] */\n      swap1\n      dup2\n      mstore\n        /* \"Lottery.sol\":6700:6708  winnings */\n      0x06\n        /* \"Lottery.sol\":6700:6720  winnings[msg.sender] */\n      0x20\n      mstore\n      0x40\n      swap1\n      keccak256\n      sload\n        /* \"Lottery.sol\":1726:1771  require(IsWinner(), \"Caller is not a winner\") */\n      tag_245\n      jumpi\n      mload(0x40)\n      shl(0xe5, 0x461bcd)\n      dup2\n      mstore\n        /* \"#utility.yul\":6553:6555   */\n      0x20\n        /* \"Lottery.sol\":1726:1771  require(IsWinner(), \"Caller is not a winner\") */\n      0x04\n      dup3\n      add\n        /* \"#utility.yul\":6535:6556   */\n      mstore\n        /* \"#utility.yul\":6592:6594   */\n      0x16\n        /* \"#utility.yul\":6572:6590   */\n      0x24\n      dup3\n      add\n        /* \"#utility.yul\":6565:6595   */\n      mstore\n        /* \"#utility.yul\":6631:6655   */\n      0x43616c6c6572206973206e6f7420612077696e6e657200000000000000000000\n        /* \"#utility.yul\":6611:6629   */\n      0x44\n      dup3\n      add\n        /* \"#utility.yul\":6604:6656   */\n      mstore\n        /* \"#utility.yul\":6673:6691   */\n      0x64\n      add\n        /* \"Lottery.sol\":1726:1771  require(IsWinner(), \"Caller is not a winner\") */\n      tag_191\n        /* \"#utility.yul\":6351:6697   */\n      jump\n        /* \"Lottery.sol\":1726:1771  require(IsWinner(), \"Caller is not a winner\") */\n    tag_245:\n        /* \"Lottery.sol\":5880:5890  msg.sender */\n      caller\n        /* \"Lottery.sol\":5847:5869  address payable winner */\n      0x00\n        /* \"Lottery.sol\":5928:5944  winnings[winner] */\n      dup2\n      dup2\n      mstore\n        /* \"Lottery.sol\":5928:5936  winnings */\n      0x06\n        /* \"Lottery.sol\":5928:5944  winnings[winner] */\n      0x20\n      mstore\n      0x40\n      dup1\n      dup3\n      keccak256\n      dup1\n      sload\n        /* \"Lottery.sol\":5954:5974  winnings[winner] = 0 */\n      swap1\n      dup4\n      swap1\n      sstore\n        /* \"Lottery.sol\":5985:6017  winner.transfer(reward2Transfer) */\n      swap1\n      mload\n        /* \"Lottery.sol\":5928:5944  winnings[winner] */\n      swap1\n      swap2\n        /* \"Lottery.sol\":5880:5890  msg.sender */\n      dup4\n      swap2\n        /* \"Lottery.sol\":5985:6017  winner.transfer(reward2Transfer) */\n      dup4\n      iszero\n      0x08fc\n      mul\n      swap2\n        /* \"Lottery.sol\":5928:5944  winnings[winner] */\n      dup5\n      swap2\n        /* \"Lottery.sol\":5985:6017  winner.transfer(reward2Transfer) */\n      swap1\n      dup2\n        /* \"Lottery.sol\":5847:5869  address payable winner */\n      dup2\n        /* \"Lottery.sol\":5985:6017  winner.transfer(reward2Transfer) */\n      dup2\n        /* \"Lottery.sol\":5928:5944  winnings[winner] */\n      dup6\n        /* \"Lottery.sol\":5880:5890  msg.sender */\n      dup9\n        /* \"Lottery.sol\":5985:6017  winner.transfer(reward2Transfer) */\n      dup9\n      call\n      swap4\n      pop\n      pop\n      pop\n      pop\n      iszero\n      dup1\n      iszero\n      tag_195\n      jumpi\n      returndatasize\n      0x00\n      dup1\n      returndatacopy\n      revert(0x00, returndatasize)\n        /* \"Lottery.sol\":2273:2689  function setRequestParameters(... */\n    tag_126:\n        /* \"Lottery.sol\":2546:2553  airnode */\n      0x09\n        /* \"Lottery.sol\":2546:2564  airnode = _airnode */\n      dup1\n      sload\n      sub(shl(0xa0, 0x01), 0x01)\n      dup1\n      dup7\n      and\n      not(sub(shl(0xa0, 0x01), 0x01))\n      swap3\n      dup4\n      and\n      or\n      swap1\n      swap3\n      sstore\n        /* \"Lottery.sol\":2574:2591  endpointIdUint256 */\n      0x0a\n        /* \"Lottery.sol\":2574:2612  endpointIdUint256 = _endpointIdUint256 */\n      dup5\n      swap1\n      sstore\n        /* \"Lottery.sol\":2622:2635  sponsorWallet */\n      0x0b\n        /* \"Lottery.sol\":2622:2652  sponsorWallet = _sponsorWallet */\n      dup1\n      sload\n      swap3\n      dup5\n      and\n      swap3\n      swap1\n      swap2\n      and\n      swap2\n      swap1\n      swap2\n      or\n      swap1\n      sstore\n        /* \"Lottery.sol\":2663:2682  startRandomNumber() */\n      tag_195\n        /* \"Lottery.sol\":2663:2680  startRandomNumber */\n      tag_105\n        /* \"Lottery.sol\":2663:2682  startRandomNumber() */\n      jump\t// in\n        /* \"Lottery.sol\":4086:4657  function BuyTickets() public payable {... */\n    tag_135:\n        /* \"Lottery.sol\":4154:4177  msg.value % ticketPrice */\n      tag_254\n        /* \"Lottery.sol\":270:280  0.01 ether */\n      0x2386f26fc10000\n        /* \"Lottery.sol\":4154:4163  msg.value */\n      callvalue\n        /* \"Lottery.sol\":4154:4177  msg.value % ticketPrice */\n      tag_208\n      jump\t// in\n    tag_254:\n        /* \"Lottery.sol\":4154:4182  msg.value % ticketPrice == 0 */\n      iszero\n        /* \"Lottery.sol\":4277:4306  Strings.toString(ticketPrice) */\n      tag_255\n        /* \"Lottery.sol\":270:280  0.01 ether */\n      0x2386f26fc10000\n        /* \"Lottery.sol\":4277:4293  Strings.toString */\n      tag_256\n        /* \"Lottery.sol\":4277:4306  Strings.toString(ticketPrice) */\n      jump\t// in\n    tag_255:\n        /* \"Lottery.sol\":4196:4346  string.concat(... */\n      add(0x20, mload(0x40))\n      tag_257\n      swap2\n      swap1\n      tag_258\n      jump\t// in\n    tag_257:\n      mload(0x40)\n      0x20\n      dup2\n      dup4\n      sub\n      sub\n      dup2\n      mstore\n      swap1\n      0x40\n      mstore\n        /* \"Lottery.sol\":4133:4356  require(... */\n      swap1\n      tag_259\n      jumpi\n      mload(0x40)\n      shl(0xe5, 0x461bcd)\n      dup2\n      mstore\n      0x04\n      add\n      tag_191\n      swap2\n      swap1\n      tag_261\n      jump\t// in\n    tag_259:\n      pop\n        /* \"Lottery.sol\":4366:4391  uint256 numOfTicketsToBuy */\n      0x00\n        /* \"Lottery.sol\":4394:4417  msg.value / ticketPrice */\n      tag_262\n        /* \"Lottery.sol\":270:280  0.01 ether */\n      0x2386f26fc10000\n        /* \"Lottery.sol\":4394:4403  msg.value */\n      callvalue\n        /* \"Lottery.sol\":4394:4417  msg.value / ticketPrice */\n      tag_263\n      jump\t// in\n    tag_262:\n        /* \"Lottery.sol\":4366:4417  uint256 numOfTicketsToBuy = msg.value / ticketPrice */\n      swap1\n      pop\n        /* \"Lottery.sol\":4470:4488  RemainingTickets() */\n      tag_264\n        /* \"Lottery.sol\":4470:4486  RemainingTickets */\n      tag_138\n        /* \"Lottery.sol\":4470:4488  RemainingTickets() */\n      jump\t// in\n    tag_264:\n        /* \"Lottery.sol\":4449:4466  numOfTicketsToBuy */\n      dup2\n        /* \"Lottery.sol\":4449:4488  numOfTicketsToBuy <= RemainingTickets() */\n      gt\n      iszero\n        /* \"Lottery.sol\":4428:4543  require(... */\n      tag_265\n      jumpi\n      mload(0x40)\n      shl(0xe5, 0x461bcd)\n      dup2\n      mstore\n        /* \"#utility.yul\":8291:8293   */\n      0x20\n        /* \"Lottery.sol\":4428:4543  require(... */\n      0x04\n      dup3\n      add\n        /* \"#utility.yul\":8273:8294   */\n      mstore\n        /* \"#utility.yul\":8330:8332   */\n      0x1d\n        /* \"#utility.yul\":8310:8328   */\n      0x24\n      dup3\n      add\n        /* \"#utility.yul\":8303:8333   */\n      mstore\n        /* \"#utility.yul\":8369:8400   */\n      0x4e6f7420656e6f756768207469636b65747320617661696c61626c652e000000\n        /* \"#utility.yul\":8349:8367   */\n      0x44\n      dup3\n      add\n        /* \"#utility.yul\":8342:8401   */\n      mstore\n        /* \"#utility.yul\":8418:8436   */\n      0x64\n      add\n        /* \"Lottery.sol\":4428:4543  require(... */\n      tag_191\n        /* \"#utility.yul\":8089:8442   */\n      jump\n        /* \"Lottery.sol\":4428:4543  require(... */\n    tag_265:\n        /* \"Lottery.sol\":4559:4568  uint256 i */\n      0x00\n        /* \"Lottery.sol\":4554:4651  for (uint256 i = 0; i < numOfTicketsToBuy; i++) {... */\n    tag_268:\n        /* \"Lottery.sol\":4578:4595  numOfTicketsToBuy */\n      dup2\n        /* \"Lottery.sol\":4574:4575  i */\n      dup2\n        /* \"Lottery.sol\":4574:4595  i < numOfTicketsToBuy */\n      lt\n        /* \"Lottery.sol\":4554:4651  for (uint256 i = 0; i < numOfTicketsToBuy; i++) {... */\n      iszero\n      tag_269\n      jumpi\n        /* \"Lottery.sol\":4616:4623  tickets */\n      0x07\n        /* \"Lottery.sol\":4616:4640  tickets.push(msg.sender) */\n      dup1\n      sload\n      0x01\n      dup2\n      add\n      dup3\n      sstore\n      0x00\n      swap2\n      swap1\n      swap2\n      mstore\n      0xa66cc928b5edb82af9bd49922954155ab7b0942694bea4ce44661d9a8736c688\n      add\n      dup1\n      sload\n      not(sub(shl(0xa0, 0x01), 0x01))\n      and\n        /* \"Lottery.sol\":4629:4639  msg.sender */\n      caller\n        /* \"Lottery.sol\":4616:4640  tickets.push(msg.sender) */\n      or\n      swap1\n      sstore\n        /* \"Lottery.sol\":4597:4600  i++ */\n      dup1\n      tag_272\n      dup2\n      tag_273\n      jump\t// in\n    tag_272:\n      swap2\n      pop\n      pop\n        /* \"Lottery.sol\":4554:4651  for (uint256 i = 0; i < numOfTicketsToBuy; i++) {... */\n      jump(tag_268)\n    tag_269:\n      pop\n        /* \"Lottery.sol\":4123:4657  {... */\n      pop\n        /* \"Lottery.sol\":4086:4657  function BuyTickets() public payable {... */\n      jump\t// out\n        /* \"Lottery.sol\":6857:6966  function RemainingTickets() public view returns (uint256) {... */\n    tag_138:\n        /* \"Lottery.sol\":6945:6952  tickets */\n      0x07\n        /* \"Lottery.sol\":6945:6959  tickets.length */\n      sload\n        /* \"Lottery.sol\":6906:6913  uint256 */\n      0x00\n      swap1\n        /* \"Lottery.sol\":6932:6959  maxTickets - tickets.length */\n      tag_275\n      swap1\n        /* \"Lottery.sol\":323:326  100 */\n      0x64\n        /* \"Lottery.sol\":6932:6959  maxTickets - tickets.length */\n      tag_227\n      jump\t// in\n    tag_275:\n        /* \"Lottery.sol\":6925:6959  return maxTickets - tickets.length */\n      swap1\n      pop\n        /* \"Lottery.sol\":6857:6966  function RemainingTickets() public view returns (uint256) {... */\n      swap1\n      jump\t// out\n        /* \"Lottery.sol\":6030:6363  function RefundAll() public {... */\n    tag_154:\n        /* \"Lottery.sol\":6095:6105  expiration */\n      sload(0x00)\n        /* \"Lottery.sol\":6076:6091  block.timestamp */\n      timestamp\n        /* \"Lottery.sol\":6076:6105  block.timestamp >= expiration */\n      lt\n      iszero\n        /* \"Lottery.sol\":6068:6137  require(block.timestamp >= expiration, \"the lottery not expired yet\") */\n      tag_278\n      jumpi\n      mload(0x40)\n      shl(0xe5, 0x461bcd)\n      dup2\n      mstore\n        /* \"#utility.yul\":8789:8791   */\n      0x20\n        /* \"Lottery.sol\":6068:6137  require(block.timestamp >= expiration, \"the lottery not expired yet\") */\n      0x04\n      dup3\n      add\n        /* \"#utility.yul\":8771:8792   */\n      mstore\n        /* \"#utility.yul\":8828:8830   */\n      0x1b\n        /* \"#utility.yul\":8808:8826   */\n      0x24\n      dup3\n      add\n        /* \"#utility.yul\":8801:8831   */\n      mstore\n        /* \"#utility.yul\":8867:8896   */\n      0x746865206c6f7474657279206e6f742065787069726564207965740000000000\n        /* \"#utility.yul\":8847:8865   */\n      0x44\n      dup3\n      add\n        /* \"#utility.yul\":8840:8897   */\n      mstore\n        /* \"#utility.yul\":8914:8932   */\n      0x64\n      add\n        /* \"Lottery.sol\":6068:6137  require(block.timestamp >= expiration, \"the lottery not expired yet\") */\n      tag_191\n        /* \"#utility.yul\":8587:8938   */\n      jump\n        /* \"Lottery.sol\":6068:6137  require(block.timestamp >= expiration, \"the lottery not expired yet\") */\n    tag_278:\n        /* \"Lottery.sol\":6153:6162  uint256 i */\n      0x00\n        /* \"Lottery.sol\":6148:6333  for (uint256 i = 0; i < tickets.length; i++) {... */\n    tag_281:\n        /* \"Lottery.sol\":6172:6179  tickets */\n      0x07\n        /* \"Lottery.sol\":6172:6186  tickets.length */\n      sload\n        /* \"Lottery.sol\":6168:6186  i < tickets.length */\n      dup2\n      lt\n        /* \"Lottery.sol\":6148:6333  for (uint256 i = 0; i < tickets.length; i++) {... */\n      iszero\n      tag_282\n      jumpi\n        /* \"Lottery.sol\":6207:6225  address payable to */\n      0x00\n        /* \"Lottery.sol\":6236:6243  tickets */\n      0x07\n        /* \"Lottery.sol\":6244:6245  i */\n      dup3\n        /* \"Lottery.sol\":6236:6246  tickets[i] */\n      dup2\n      sload\n      dup2\n      lt\n      tag_285\n      jumpi\n      tag_285\n      tag_224\n      jump\t// in\n    tag_285:\n      0x00\n      swap2\n      dup3\n      mstore\n      0x20\n      dup3\n      keccak256\n      add\n      sload\n        /* \"Lottery.sol\":6261:6268  tickets */\n      0x07\n        /* \"Lottery.sol\":6261:6271  tickets[i] */\n      dup1\n      sload\n      sub(shl(0xa0, 0x01), 0x01)\n        /* \"Lottery.sol\":6236:6246  tickets[i] */\n      swap1\n      swap3\n      and\n      swap4\n      pop\n        /* \"Lottery.sol\":6261:6268  tickets */\n      swap1\n        /* \"Lottery.sol\":6269:6270  i */\n      dup5\n      swap1\n        /* \"Lottery.sol\":6261:6271  tickets[i] */\n      dup2\n      lt\n      tag_288\n      jumpi\n      tag_288\n      tag_224\n      jump\t// in\n    tag_288:\n      0x00\n      swap2\n      dup3\n      mstore\n      0x20\n      dup3\n      keccak256\n      add\n        /* \"Lottery.sol\":6261:6284  tickets[i] = address(0) */\n      dup1\n      sload\n      not(sub(shl(0xa0, 0x01), 0x01))\n      and\n      sub(shl(0xa0, 0x01), 0x01)\n      swap4\n      dup5\n      and\n      or\n      swap1\n      sstore\n        /* \"Lottery.sol\":6298:6322  to.transfer(ticketPrice) */\n      mload(0x40)\n        /* \"Lottery.sol\":6298:6309  to.transfer */\n      swap2\n      dup4\n      and\n      swap2\n        /* \"Lottery.sol\":270:280  0.01 ether */\n      0x2386f26fc10000\n      swap1\n        /* \"Lottery.sol\":6261:6271  tickets[i] */\n      dup3\n        /* \"Lottery.sol\":6298:6322  to.transfer(ticketPrice) */\n      dup2\n        /* \"Lottery.sol\":6261:6271  tickets[i] */\n      dup2\n        /* \"Lottery.sol\":6298:6322  to.transfer(ticketPrice) */\n      dup2\n        /* \"Lottery.sol\":270:280  0.01 ether */\n      dup6\n        /* \"Lottery.sol\":6298:6309  to.transfer */\n      dup9\n        /* \"Lottery.sol\":6261:6271  tickets[i] */\n      dup4\n        /* \"Lottery.sol\":6298:6322  to.transfer(ticketPrice) */\n      call\n      swap4\n      pop\n      pop\n      pop\n      pop\n      iszero\n      dup1\n      iszero\n      tag_291\n      jumpi\n      returndatasize\n      0x00\n      dup1\n      returndatacopy\n      revert(0x00, returndatasize)\n    tag_291:\n      pop\n        /* \"Lottery.sol\":6193:6333  {... */\n      pop\n        /* \"Lottery.sol\":6188:6191  i++ */\n      dup1\n      dup1\n      tag_292\n      swap1\n      tag_273\n      jump\t// in\n    tag_292:\n      swap2\n      pop\n      pop\n        /* \"Lottery.sol\":6148:6333  for (uint256 i = 0; i < tickets.length; i++) {... */\n      jump(tag_281)\n    tag_282:\n      pop\n        /* \"Lottery.sol\":6342:6356  delete tickets */\n      tag_242\n        /* \"Lottery.sol\":6349:6356  tickets */\n      0x07\n      0x00\n        /* \"Lottery.sol\":6342:6356  delete tickets */\n      tag_234\n      jump\t// in\n        /* \"Lottery.sol\":6737:6851  function CurrentWinningReward() public view returns (uint256) {... */\n    tag_165:\n        /* \"Lottery.sol\":6816:6823  tickets */\n      0x07\n        /* \"Lottery.sol\":6816:6830  tickets.length */\n      sload\n        /* \"Lottery.sol\":6790:6797  uint256 */\n      0x00\n      swap1\n        /* \"Lottery.sol\":6816:6844  tickets.length * ticketPrice */\n      tag_275\n      swap1\n        /* \"Lottery.sol\":270:280  0.01 ether */\n      0x2386f26fc10000\n      swap1\n        /* \"Lottery.sol\":6816:6844  tickets.length * ticketPrice */\n      tag_229\n      jump\t// in\n        /* \"Lottery.sol\":2867:3273  function makeRequestUint256() public {... */\n    tag_175:\n        /* \"Lottery.sol\":2974:2981  airnode */\n      sload(0x09)\n        /* \"Lottery.sol\":2995:3012  endpointIdUint256 */\n      sload(0x0a)\n        /* \"Lottery.sol\":3053:3066  sponsorWallet */\n      sload(0x0b)\n        /* \"Lottery.sol\":2934:3161  airnodeRrp.makeFullRequest(... */\n      mload(0x40)\n      shl(0xe0, 0x6e6be03f)\n      dup2\n      mstore\n      sub(shl(0xa0, 0x01), 0x01)\n        /* \"Lottery.sol\":2974:2981  airnode */\n      swap4\n      dup5\n      and\n        /* \"Lottery.sol\":2934:3161  airnodeRrp.makeFullRequest(... */\n      0x04\n      dup3\n      add\n        /* \"#utility.yul\":9353:9387   */\n      mstore\n        /* \"#utility.yul\":9403:9421   */\n      0x24\n      dup2\n      add\n        /* \"#utility.yul\":9396:9430   */\n      swap3\n      swap1\n      swap3\n      mstore\n        /* \"Lottery.sol\":3034:3038  this */\n      address\n        /* \"#utility.yul\":9446:9464   */\n      0x44\n      dup4\n      add\n        /* \"#utility.yul\":9439:9482   */\n      dup2\n      swap1\n      mstore\n        /* \"Lottery.sol\":3053:3066  sponsorWallet */\n      swap1\n      dup4\n      and\n        /* \"#utility.yul\":9498:9516   */\n      0x64\n      dup4\n      add\n        /* \"#utility.yul\":9491:9534   */\n      mstore\n        /* \"#utility.yul\":9550:9569   */\n      0x84\n      dup3\n      add\n        /* \"#utility.yul\":9543:9587   */\n      mstore\n      shl(0xe1, 0x1b8c6c85)\n        /* \"#utility.yul\":9603:9622   */\n      0xa4\n      dup3\n      add\n        /* \"#utility.yul\":9596:9658   */\n      mstore\n        /* \"#utility.yul\":9640:9643   */\n      0xe0\n        /* \"#utility.yul\":9674:9693   */\n      0xc4\n      dup3\n      add\n        /* \"#utility.yul\":9667:9699   */\n      mstore\n        /* \"Lottery.sol\":2914:2931  bytes32 requestId */\n      0x00\n        /* \"#utility.yul\":9715:9734   */\n      0xe4\n      dup3\n      add\n        /* \"#utility.yul\":9708:9738   */\n      dup2\n      swap1\n      mstore\n        /* \"Lottery.sol\":2914:2931  bytes32 requestId */\n      swap2\n        /* \"Lottery.sol\":2934:2944  airnodeRrp */\n      immutable(\"0x805d9adab435ca9ab8652c0f90e7e682f0cf17d8f3ef39fc5a18f42017987c3c\")\n        /* \"Lottery.sol\":2934:2960  airnodeRrp.makeFullRequest */\n      and\n      swap1\n      0x6e6be03f\n      swap1\n        /* \"#utility.yul\":9755:9774   */\n      0x0104\n      add\n        /* \"Lottery.sol\":2934:3161  airnodeRrp.makeFullRequest(... */\n      0x20\n      mload(0x40)\n      dup1\n      dup4\n      sub\n      dup2\n      0x00\n      dup8\n      gas\n      call\n      iszero\n      dup1\n      iszero\n      tag_301\n      jumpi\n      returndatasize\n      0x00\n      dup1\n      returndatacopy\n      revert(0x00, returndatasize)\n    tag_301:\n      pop\n      pop\n      pop\n      pop\n      mload(0x40)\n      returndatasize\n      not(0x1f)\n      0x1f\n      dup3\n      add\n      and\n      dup3\n      add\n      dup1\n      0x40\n      mstore\n      pop\n      dup2\n      add\n      swap1\n      tag_302\n      swap2\n      swap1\n      tag_303\n      jump\t// in\n    tag_302:\n        /* \"Lottery.sol\":3171:3217  expectingRequestWithIdToBeFulfilled[requestId] */\n      0x00\n      dup2\n      dup2\n      mstore\n        /* \"Lottery.sol\":3171:3206  expectingRequestWithIdToBeFulfilled */\n      0x08\n        /* \"Lottery.sol\":3171:3217  expectingRequestWithIdToBeFulfilled[requestId] */\n      0x20\n      mstore\n      0x40\n      dup1\n      dup3\n      keccak256\n        /* \"Lottery.sol\":3171:3224  expectingRequestWithIdToBeFulfilled[requestId] = true */\n      dup1\n      sload\n      not(0xff)\n      and\n        /* \"Lottery.sol\":3220:3224  true */\n      0x01\n        /* \"Lottery.sol\":3171:3224  expectingRequestWithIdToBeFulfilled[requestId] = true */\n      or\n      swap1\n      sstore\n        /* \"Lottery.sol\":3239:3266  RequestedUint256(requestId) */\n      mload\n        /* \"Lottery.sol\":2914:3161  bytes32 requestId = airnodeRrp.makeFullRequest(... */\n      swap2\n      swap3\n      pop\n      dup3\n      swap2\n        /* \"Lottery.sol\":3239:3266  RequestedUint256(requestId) */\n      0xcba2da2f3c0c732a104019a3104936397dde7343964c1518ceb760052e4537b1\n      swap2\n        /* \"Lottery.sol\":3171:3217  expectingRequestWithIdToBeFulfilled[requestId] */\n      swap1\n        /* \"Lottery.sol\":3239:3266  RequestedUint256(requestId) */\n      log2\n        /* \"Lottery.sol\":2904:3273  {... */\n      pop\n        /* \"Lottery.sol\":2867:3273  function makeRequestUint256() public {... */\n      jump\t// out\n        /* \"Lottery.sol\":5371:5573  function restartDraw() public isOperator {... */\n    tag_183:\n        /* \"Lottery.sol\":1549:1564  lotteryOperator */\n      and(sub(shl(0xa0, 0x01), 0x01), sload(0x01))\n        /* \"Lottery.sol\":1535:1545  msg.sender */\n      caller\n        /* \"Lottery.sol\":1535:1564  msg.sender == lotteryOperator */\n      eq\n        /* \"Lottery.sol\":1513:1625  require(... */\n      tag_305\n      jumpi\n      mload(0x40)\n      shl(0xe5, 0x461bcd)\n      dup2\n      mstore\n        /* \"#utility.yul\":4147:4149   */\n      0x20\n        /* \"Lottery.sol\":1513:1625  require(... */\n      0x04\n      dup3\n      add\n        /* \"#utility.yul\":4129:4150   */\n      mstore\n        /* \"#utility.yul\":4186:4188   */\n      0x22\n        /* \"#utility.yul\":4166:4184   */\n      0x24\n      dup3\n      add\n        /* \"#utility.yul\":4159:4189   */\n      mstore\n        /* \"#utility.yul\":4225:4259   */\n      0x43616c6c6572206973206e6f7420746865206c6f7474657279206f7065726174\n        /* \"#utility.yul\":4205:4223   */\n      0x44\n      dup3\n      add\n        /* \"#utility.yul\":4198:4260   */\n      mstore\n      shl(0xf1, 0x37b9)\n        /* \"#utility.yul\":4276:4294   */\n      0x64\n      dup3\n      add\n        /* \"#utility.yul\":4269:4301   */\n      mstore\n        /* \"#utility.yul\":4318:4337   */\n      0x84\n      add\n        /* \"Lottery.sol\":1513:1625  require(... */\n      tag_191\n        /* \"#utility.yul\":3945:4343   */\n      jump\n        /* \"Lottery.sol\":1513:1625  require(... */\n    tag_305:\n        /* \"Lottery.sol\":5430:5437  tickets */\n      0x07\n        /* \"Lottery.sol\":5430:5444  tickets.length */\n      sload\n        /* \"Lottery.sol\":5430:5449  tickets.length == 0 */\n      iszero\n        /* \"Lottery.sol\":5422:5492  require(tickets.length == 0, \"Cannot Restart Draw as Draw is in play\") */\n      tag_308\n      jumpi\n      mload(0x40)\n      shl(0xe5, 0x461bcd)\n      dup2\n      mstore\n        /* \"#utility.yul\":10176:10178   */\n      0x20\n        /* \"Lottery.sol\":5422:5492  require(tickets.length == 0, \"Cannot Restart Draw as Draw is in play\") */\n      0x04\n      dup3\n      add\n        /* \"#utility.yul\":10158:10179   */\n      mstore\n        /* \"#utility.yul\":10215:10217   */\n      0x26\n        /* \"#utility.yul\":10195:10213   */\n      0x24\n      dup3\n      add\n        /* \"#utility.yul\":10188:10218   */\n      mstore\n        /* \"#utility.yul\":10254:10288   */\n      0x43616e6e6f742052657374617274204472617720617320447261772069732069\n        /* \"#utility.yul\":10234:10252   */\n      0x44\n      dup3\n      add\n        /* \"#utility.yul\":10227:10289   */\n      mstore\n        /* \"#utility.yul\":10325:10333   */\n      0x6e20706c61790000000000000000000000000000000000000000000000000000\n        /* \"#utility.yul\":10305:10323   */\n      0x64\n      dup3\n      add\n        /* \"#utility.yul\":10298:10334   */\n      mstore\n        /* \"#utility.yul\":10351:10370   */\n      0x84\n      add\n        /* \"Lottery.sol\":5422:5492  require(tickets.length == 0, \"Cannot Restart Draw as Draw is in play\") */\n      tag_191\n        /* \"#utility.yul\":9974:10376   */\n      jump\n        /* \"Lottery.sol\":5422:5492  require(tickets.length == 0, \"Cannot Restart Draw as Draw is in play\") */\n    tag_308:\n        /* \"Lottery.sol\":5503:5517  delete tickets */\n      tag_311\n        /* \"Lottery.sol\":5510:5517  tickets */\n      0x07\n      0x00\n        /* \"Lottery.sol\":5503:5517  delete tickets */\n      tag_234\n      jump\t// in\n    tag_311:\n        /* \"Lottery.sol\":5540:5566  block.timestamp + duration */\n      tag_312\n        /* \"Lottery.sol\":482:492  30 minutes */\n      0x0708\n        /* \"Lottery.sol\":5540:5555  block.timestamp */\n      timestamp\n        /* \"Lottery.sol\":5540:5566  block.timestamp + duration */\n      tag_206\n      jump\t// in\n    tag_312:\n        /* \"Lottery.sol\":5527:5537  expiration */\n      0x00\n        /* \"Lottery.sol\":5527:5566  expiration = block.timestamp + duration */\n      sstore\n        /* \"Lottery.sol\":5371:5573  function restartDraw() public isOperator {... */\n      jump\t// out\n        /* \"@openzeppelin/contracts/utils/Strings.sol\":415:1111   */\n    tag_256:\n        /* \"@openzeppelin/contracts/utils/Strings.sol\":471:484   */\n      0x60\n        /* \"@openzeppelin/contracts/utils/Strings.sol\":520:534   */\n      0x00\n        /* \"@openzeppelin/contracts/utils/Strings.sol\":537:554   */\n      tag_314\n        /* \"@openzeppelin/contracts/utils/Strings.sol\":548:553   */\n      dup4\n        /* \"@openzeppelin/contracts/utils/Strings.sol\":537:547   */\n      tag_315\n        /* \"@openzeppelin/contracts/utils/Strings.sol\":537:554   */\n      jump\t// in\n    tag_314:\n        /* \"@openzeppelin/contracts/utils/Strings.sol\":557:558   */\n      0x01\n        /* \"@openzeppelin/contracts/utils/Strings.sol\":537:558   */\n      add\n        /* \"@openzeppelin/contracts/utils/Strings.sol\":520:558   */\n      swap1\n      pop\n        /* \"@openzeppelin/contracts/utils/Strings.sol\":572:592   */\n      0x00\n        /* \"@openzeppelin/contracts/utils/Strings.sol\":606:612   */\n      dup2\n        /* \"@openzeppelin/contracts/utils/Strings.sol\":595:613   */\n      0xffffffffffffffff\n      dup2\n      gt\n      iszero\n      tag_317\n      jumpi\n      tag_317\n      tag_318\n      jump\t// in\n    tag_317:\n      mload(0x40)\n      swap1\n      dup1\n      dup3\n      mstore\n      dup1\n      0x1f\n      add\n      not(0x1f)\n      and\n      0x20\n      add\n      dup3\n      add\n      0x40\n      mstore\n      dup1\n      iszero\n      tag_319\n      jumpi\n      0x20\n      dup3\n      add\n      dup2\n      dup1\n      calldatasize\n      dup4\n      calldatacopy\n      add\n      swap1\n      pop\n    tag_319:\n      pop\n        /* \"@openzeppelin/contracts/utils/Strings.sol\":572:613   */\n      swap1\n      pop\n        /* \"@openzeppelin/contracts/utils/Strings.sol\":733:761   */\n      dup2\n      dup2\n      add\n        /* \"@openzeppelin/contracts/utils/Strings.sol\":749:751   */\n      0x20\n        /* \"@openzeppelin/contracts/utils/Strings.sol\":733:761   */\n      add\n        /* \"@openzeppelin/contracts/utils/Strings.sol\":788:1068   */\n    tag_320:\n      not(0x00)\n        /* \"@openzeppelin/contracts/utils/Strings.sol\":819:824   */\n      add\n        /* \"@openzeppelin/contracts/utils/Strings.sol\":958:966   */\n      0x3031323334353637383961626364656600000000000000000000000000000000\n        /* \"@openzeppelin/contracts/utils/Strings.sol\":953:955   */\n      0x0a\n        /* \"@openzeppelin/contracts/utils/Strings.sol\":942:956   */\n      dup7\n      mod\n        /* \"@openzeppelin/contracts/utils/Strings.sol\":937:967   */\n      byte\n        /* \"@openzeppelin/contracts/utils/Strings.sol\":819:824   */\n      dup2\n        /* \"@openzeppelin/contracts/utils/Strings.sol\":924:968   */\n      mstore8\n        /* \"@openzeppelin/contracts/utils/Strings.sol\":1012:1014   */\n      0x0a\n        /* \"@openzeppelin/contracts/utils/Strings.sol\":1003:1014   */\n      dup6\n      div\n      swap5\n      pop\n        /* \"@openzeppelin/contracts/utils/Strings.sol\":1032:1053   */\n      dup5\n        /* \"@openzeppelin/contracts/utils/Strings.sol\":788:1068   */\n      tag_320\n        /* \"@openzeppelin/contracts/utils/Strings.sol\":1032:1053   */\n      jumpi\n      pop\n        /* \"@openzeppelin/contracts/utils/Strings.sol\":1088:1094   */\n      swap4\n        /* \"@openzeppelin/contracts/utils/Strings.sol\":415:1111   */\n      swap3\n      pop\n      pop\n      pop\n      jump\t// out\n        /* \"@openzeppelin/contracts/utils/math/Math.sol\":9889:10779   */\n    tag_315:\n        /* \"@openzeppelin/contracts/utils/math/Math.sol\":9942:9949   */\n      0x00\n      dup1\n        /* \"@openzeppelin/contracts/utils/math/Math.sol\":10026:10032   */\n      0x184f03e93ff9f4daa797ed6e38ed64bf6a1f010000000000000000\n        /* \"@openzeppelin/contracts/utils/math/Math.sol\":10017:10032   */\n      dup4\n      lt\n        /* \"@openzeppelin/contracts/utils/math/Math.sol\":10013:10112   */\n      tag_327\n      jumpi\n        /* \"@openzeppelin/contracts/utils/math/Math.sol\":10061:10067   */\n      0x184f03e93ff9f4daa797ed6e38ed64bf6a1f010000000000000000\n        /* \"@openzeppelin/contracts/utils/math/Math.sol\":10052:10067   */\n      dup4\n      div\n      swap3\n      pop\n        /* \"@openzeppelin/contracts/utils/math/Math.sol\":10095:10097   */\n      0x40\n        /* \"@openzeppelin/contracts/utils/math/Math.sol\":10085:10097   */\n      add\n        /* \"@openzeppelin/contracts/utils/math/Math.sol\":10013:10112   */\n    tag_327:\n        /* \"@openzeppelin/contracts/utils/math/Math.sol\":10138:10144   */\n      0x04ee2d6d415b85acef8100000000\n        /* \"@openzeppelin/contracts/utils/math/Math.sol\":10129:10134   */\n      dup4\n        /* \"@openzeppelin/contracts/utils/math/Math.sol\":10129:10144   */\n      lt\n        /* \"@openzeppelin/contracts/utils/math/Math.sol\":10125:10224   */\n      tag_330\n      jumpi\n        /* \"@openzeppelin/contracts/utils/math/Math.sol\":10173:10179   */\n      0x04ee2d6d415b85acef8100000000\n        /* \"@openzeppelin/contracts/utils/math/Math.sol\":10164:10179   */\n      dup4\n      div\n      swap3\n      pop\n        /* \"@openzeppelin/contracts/utils/math/Math.sol\":10207:10209   */\n      0x20\n        /* \"@openzeppelin/contracts/utils/math/Math.sol\":10197:10209   */\n      add\n        /* \"@openzeppelin/contracts/utils/math/Math.sol\":10125:10224   */\n    tag_330:\n        /* \"@openzeppelin/contracts/utils/math/Math.sol\":10250:10256   */\n      0x2386f26fc10000\n        /* \"@openzeppelin/contracts/utils/math/Math.sol\":10241:10246   */\n      dup4\n        /* \"@openzeppelin/contracts/utils/math/Math.sol\":10241:10256   */\n      lt\n        /* \"@openzeppelin/contracts/utils/math/Math.sol\":10237:10336   */\n      tag_333\n      jumpi\n        /* \"@openzeppelin/contracts/utils/math/Math.sol\":10285:10291   */\n      0x2386f26fc10000\n        /* \"@openzeppelin/contracts/utils/math/Math.sol\":10276:10291   */\n      dup4\n      div\n      swap3\n      pop\n        /* \"@openzeppelin/contracts/utils/math/Math.sol\":10319:10321   */\n      0x10\n        /* \"@openzeppelin/contracts/utils/math/Math.sol\":10309:10321   */\n      add\n        /* \"@openzeppelin/contracts/utils/math/Math.sol\":10237:10336   */\n    tag_333:\n        /* \"@openzeppelin/contracts/utils/math/Math.sol\":10362:10367   */\n      0x05f5e100\n        /* \"@openzeppelin/contracts/utils/math/Math.sol\":10353:10358   */\n      dup4\n        /* \"@openzeppelin/contracts/utils/math/Math.sol\":10353:10367   */\n      lt\n        /* \"@openzeppelin/contracts/utils/math/Math.sol\":10349:10445   */\n      tag_336\n      jumpi\n        /* \"@openzeppelin/contracts/utils/math/Math.sol\":10396:10401   */\n      0x05f5e100\n        /* \"@openzeppelin/contracts/utils/math/Math.sol\":10387:10401   */\n      dup4\n      div\n      swap3\n      pop\n        /* \"@openzeppelin/contracts/utils/math/Math.sol\":10429:10430   */\n      0x08\n        /* \"@openzeppelin/contracts/utils/math/Math.sol\":10419:10430   */\n      add\n        /* \"@openzeppelin/contracts/utils/math/Math.sol\":10349:10445   */\n    tag_336:\n        /* \"@openzeppelin/contracts/utils/math/Math.sol\":10471:10476   */\n      0x2710\n        /* \"@openzeppelin/contracts/utils/math/Math.sol\":10462:10467   */\n      dup4\n        /* \"@openzeppelin/contracts/utils/math/Math.sol\":10462:10476   */\n      lt\n        /* \"@openzeppelin/contracts/utils/math/Math.sol\":10458:10554   */\n      tag_339\n      jumpi\n        /* \"@openzeppelin/contracts/utils/math/Math.sol\":10505:10510   */\n      0x2710\n        /* \"@openzeppelin/contracts/utils/math/Math.sol\":10496:10510   */\n      dup4\n      div\n      swap3\n      pop\n        /* \"@openzeppelin/contracts/utils/math/Math.sol\":10538:10539   */\n      0x04\n        /* \"@openzeppelin/contracts/utils/math/Math.sol\":10528:10539   */\n      add\n        /* \"@openzeppelin/contracts/utils/math/Math.sol\":10458:10554   */\n    tag_339:\n        /* \"@openzeppelin/contracts/utils/math/Math.sol\":10580:10585   */\n      0x64\n        /* \"@openzeppelin/contracts/utils/math/Math.sol\":10571:10576   */\n      dup4\n        /* \"@openzeppelin/contracts/utils/math/Math.sol\":10571:10585   */\n      lt\n        /* \"@openzeppelin/contracts/utils/math/Math.sol\":10567:10663   */\n      tag_342\n      jumpi\n        /* \"@openzeppelin/contracts/utils/math/Math.sol\":10614:10619   */\n      0x64\n        /* \"@openzeppelin/contracts/utils/math/Math.sol\":10605:10619   */\n      dup4\n      div\n      swap3\n      pop\n        /* \"@openzeppelin/contracts/utils/math/Math.sol\":10647:10648   */\n      0x02\n        /* \"@openzeppelin/contracts/utils/math/Math.sol\":10637:10648   */\n      add\n        /* \"@openzeppelin/contracts/utils/math/Math.sol\":10567:10663   */\n    tag_342:\n        /* \"@openzeppelin/contracts/utils/math/Math.sol\":10689:10694   */\n      0x0a\n        /* \"@openzeppelin/contracts/utils/math/Math.sol\":10680:10685   */\n      dup4\n        /* \"@openzeppelin/contracts/utils/math/Math.sol\":10680:10694   */\n      lt\n        /* \"@openzeppelin/contracts/utils/math/Math.sol\":10676:10740   */\n      tag_345\n      jumpi\n        /* \"@openzeppelin/contracts/utils/math/Math.sol\":10724:10725   */\n      0x01\n        /* \"@openzeppelin/contracts/utils/math/Math.sol\":10714:10725   */\n      add\n        /* \"@openzeppelin/contracts/utils/math/Math.sol\":10676:10740   */\n    tag_345:\n        /* \"@openzeppelin/contracts/utils/math/Math.sol\":10766:10772   */\n      swap3\n        /* \"@openzeppelin/contracts/utils/math/Math.sol\":9889:10779   */\n      swap2\n      pop\n      pop\n      jump\t// out\n    tag_234:\n      pop\n      dup1\n      sload\n      0x00\n      dup3\n      sstore\n      swap1\n      0x00\n      mstore\n      keccak256(0x00, 0x20)\n      swap1\n      dup2\n      add\n      swap1\n      tag_347\n      swap2\n      swap1\n      tag_348\n      jump\t// in\n    tag_347:\n      pop\n      jump\t// out\n    tag_348:\n    tag_349:\n      dup1\n      dup3\n      gt\n      iszero\n      tag_350\n      jumpi\n      0x00\n      dup2\n      sstore\n      0x01\n      add\n      jump(tag_349)\n    tag_350:\n      pop\n      swap1\n      jump\t// out\n        /* \"#utility.yul\":378:1037   */\n    tag_73:\n        /* \"#utility.yul\":457:463   */\n      0x00\n        /* \"#utility.yul\":465:471   */\n      dup1\n        /* \"#utility.yul\":473:479   */\n      0x00\n        /* \"#utility.yul\":526:528   */\n      0x40\n        /* \"#utility.yul\":514:523   */\n      dup5\n        /* \"#utility.yul\":505:512   */\n      dup7\n        /* \"#utility.yul\":501:524   */\n      sub\n        /* \"#utility.yul\":497:529   */\n      slt\n        /* \"#utility.yul\":494:546   */\n      iszero\n      tag_358\n      jumpi\n        /* \"#utility.yul\":542:543   */\n      0x00\n        /* \"#utility.yul\":539:540   */\n      dup1\n        /* \"#utility.yul\":532:544   */\n      revert\n        /* \"#utility.yul\":494:546   */\n    tag_358:\n        /* \"#utility.yul\":578:587   */\n      dup4\n        /* \"#utility.yul\":565:588   */\n      calldataload\n        /* \"#utility.yul\":555:588   */\n      swap3\n      pop\n        /* \"#utility.yul\":639:641   */\n      0x20\n        /* \"#utility.yul\":628:637   */\n      dup5\n        /* \"#utility.yul\":624:642   */\n      add\n        /* \"#utility.yul\":611:643   */\n      calldataload\n        /* \"#utility.yul\":662:680   */\n      0xffffffffffffffff\n        /* \"#utility.yul\":703:705   */\n      dup1\n        /* \"#utility.yul\":695:701   */\n      dup3\n        /* \"#utility.yul\":692:706   */\n      gt\n        /* \"#utility.yul\":689:723   */\n      iszero\n      tag_359\n      jumpi\n        /* \"#utility.yul\":719:720   */\n      0x00\n        /* \"#utility.yul\":716:717   */\n      dup1\n        /* \"#utility.yul\":709:721   */\n      revert\n        /* \"#utility.yul\":689:723   */\n    tag_359:\n        /* \"#utility.yul\":757:763   */\n      dup2\n        /* \"#utility.yul\":746:755   */\n      dup7\n        /* \"#utility.yul\":742:764   */\n      add\n        /* \"#utility.yul\":732:764   */\n      swap2\n      pop\n        /* \"#utility.yul\":802:809   */\n      dup7\n        /* \"#utility.yul\":795:799   */\n      0x1f\n        /* \"#utility.yul\":791:793   */\n      dup4\n        /* \"#utility.yul\":787:800   */\n      add\n        /* \"#utility.yul\":783:810   */\n      slt\n        /* \"#utility.yul\":773:828   */\n      tag_360\n      jumpi\n        /* \"#utility.yul\":824:825   */\n      0x00\n        /* \"#utility.yul\":821:822   */\n      dup1\n        /* \"#utility.yul\":814:826   */\n      revert\n        /* \"#utility.yul\":773:828   */\n    tag_360:\n        /* \"#utility.yul\":864:866   */\n      dup2\n        /* \"#utility.yul\":851:867   */\n      calldataload\n        /* \"#utility.yul\":890:892   */\n      dup2\n        /* \"#utility.yul\":882:888   */\n      dup2\n        /* \"#utility.yul\":879:893   */\n      gt\n        /* \"#utility.yul\":876:910   */\n      iszero\n      tag_361\n      jumpi\n        /* \"#utility.yul\":906:907   */\n      0x00\n        /* \"#utility.yul\":903:904   */\n      dup1\n        /* \"#utility.yul\":896:908   */\n      revert\n        /* \"#utility.yul\":876:910   */\n    tag_361:\n        /* \"#utility.yul\":951:958   */\n      dup8\n        /* \"#utility.yul\":946:948   */\n      0x20\n        /* \"#utility.yul\":937:943   */\n      dup3\n        /* \"#utility.yul\":933:935   */\n      dup6\n        /* \"#utility.yul\":929:944   */\n      add\n        /* \"#utility.yul\":925:949   */\n      add\n        /* \"#utility.yul\":922:959   */\n      gt\n        /* \"#utility.yul\":919:976   */\n      iszero\n      tag_362\n      jumpi\n        /* \"#utility.yul\":972:973   */\n      0x00\n        /* \"#utility.yul\":969:970   */\n      dup1\n        /* \"#utility.yul\":962:974   */\n      revert\n        /* \"#utility.yul\":919:976   */\n    tag_362:\n        /* \"#utility.yul\":1003:1005   */\n      0x20\n        /* \"#utility.yul\":999:1001   */\n      dup4\n        /* \"#utility.yul\":995:1006   */\n      add\n        /* \"#utility.yul\":985:1006   */\n      swap5\n      pop\n        /* \"#utility.yul\":1025:1031   */\n      dup1\n        /* \"#utility.yul\":1015:1031   */\n      swap4\n      pop\n      pop\n      pop\n      pop\n        /* \"#utility.yul\":378:1037   */\n      swap3\n      pop\n      swap3\n      pop\n      swap3\n      jump\t// out\n        /* \"#utility.yul\":1042:1204   */\n    tag_351:\n      sub(shl(0xa0, 0x01), 0x01)\n        /* \"#utility.yul\":1129:1134   */\n      dup2\n        /* \"#utility.yul\":1125:1179   */\n      and\n        /* \"#utility.yul\":1118:1123   */\n      dup2\n        /* \"#utility.yul\":1115:1180   */\n      eq\n        /* \"#utility.yul\":1105:1198   */\n      tag_347\n      jumpi\n        /* \"#utility.yul\":1194:1195   */\n      0x00\n        /* \"#utility.yul\":1191:1192   */\n      dup1\n        /* \"#utility.yul\":1184:1196   */\n      revert\n        /* \"#utility.yul\":1209:1472   */\n    tag_78:\n        /* \"#utility.yul\":1276:1282   */\n      0x00\n        /* \"#utility.yul\":1329:1331   */\n      0x20\n        /* \"#utility.yul\":1317:1326   */\n      dup3\n        /* \"#utility.yul\":1308:1315   */\n      dup5\n        /* \"#utility.yul\":1304:1327   */\n      sub\n        /* \"#utility.yul\":1300:1332   */\n      slt\n        /* \"#utility.yul\":1297:1349   */\n      iszero\n      tag_366\n      jumpi\n        /* \"#utility.yul\":1345:1346   */\n      0x00\n        /* \"#utility.yul\":1342:1343   */\n      dup1\n        /* \"#utility.yul\":1335:1347   */\n      revert\n        /* \"#utility.yul\":1297:1349   */\n    tag_366:\n        /* \"#utility.yul\":1384:1393   */\n      dup2\n        /* \"#utility.yul\":1371:1394   */\n      calldataload\n        /* \"#utility.yul\":1403:1442   */\n      tag_367\n        /* \"#utility.yul\":1436:1441   */\n      dup2\n        /* \"#utility.yul\":1403:1442   */\n      tag_351\n      jump\t// in\n    tag_367:\n        /* \"#utility.yul\":1461:1466   */\n      swap4\n        /* \"#utility.yul\":1209:1472   */\n      swap3\n      pop\n      pop\n      pop\n      jump\t// out\n        /* \"#utility.yul\":1477:2158   */\n    tag_95:\n        /* \"#utility.yul\":1648:1650   */\n      0x20\n        /* \"#utility.yul\":1700:1721   */\n      dup1\n      dup3\n      mstore\n        /* \"#utility.yul\":1770:1783   */\n      dup3\n      mload\n        /* \"#utility.yul\":1673:1691   */\n      dup3\n      dup3\n      add\n        /* \"#utility.yul\":1792:1814   */\n      dup2\n      swap1\n      mstore\n        /* \"#utility.yul\":1619:1623   */\n      0x00\n      swap2\n        /* \"#utility.yul\":1648:1650   */\n      swap1\n        /* \"#utility.yul\":1871:1886   */\n      dup5\n      dup3\n      add\n      swap1\n        /* \"#utility.yul\":1845:1847   */\n      0x40\n        /* \"#utility.yul\":1830:1848   */\n      dup6\n      add\n      swap1\n        /* \"#utility.yul\":1619:1623   */\n      dup5\n        /* \"#utility.yul\":1914:2132   */\n    tag_369:\n        /* \"#utility.yul\":1928:1934   */\n      dup2\n        /* \"#utility.yul\":1925:1926   */\n      dup2\n        /* \"#utility.yul\":1922:1935   */\n      lt\n        /* \"#utility.yul\":1914:2132   */\n      iszero\n      tag_371\n      jumpi\n        /* \"#utility.yul\":1993:2006   */\n      dup4\n      mload\n      sub(shl(0xa0, 0x01), 0x01)\n        /* \"#utility.yul\":1989:2051   */\n      and\n        /* \"#utility.yul\":1977:2052   */\n      dup4\n      mstore\n        /* \"#utility.yul\":2107:2122   */\n      swap3\n      dup5\n      add\n      swap3\n        /* \"#utility.yul\":2072:2084   */\n      swap2\n      dup5\n      add\n      swap2\n        /* \"#utility.yul\":1950:1951   */\n      0x01\n        /* \"#utility.yul\":1943:1952   */\n      add\n        /* \"#utility.yul\":1914:2132   */\n      jump(tag_369)\n    tag_371:\n      pop\n        /* \"#utility.yul\":2149:2152   */\n      swap1\n      swap7\n        /* \"#utility.yul\":1477:2158   */\n      swap6\n      pop\n      pop\n      pop\n      pop\n      pop\n      pop\n      jump\t// out\n        /* \"#utility.yul\":2163:2343   */\n    tag_99:\n        /* \"#utility.yul\":2222:2228   */\n      0x00\n        /* \"#utility.yul\":2275:2277   */\n      0x20\n        /* \"#utility.yul\":2263:2272   */\n      dup3\n        /* \"#utility.yul\":2254:2261   */\n      dup5\n        /* \"#utility.yul\":2250:2273   */\n      sub\n        /* \"#utility.yul\":2246:2278   */\n      slt\n        /* \"#utility.yul\":2243:2295   */\n      iszero\n      tag_373\n      jumpi\n        /* \"#utility.yul\":2291:2292   */\n      0x00\n        /* \"#utility.yul\":2288:2289   */\n      dup1\n        /* \"#utility.yul\":2281:2293   */\n      revert\n        /* \"#utility.yul\":2243:2295   */\n    tag_373:\n      pop\n        /* \"#utility.yul\":2314:2337   */\n      calldataload\n      swap2\n        /* \"#utility.yul\":2163:2343   */\n      swap1\n      pop\n      jump\t// out\n        /* \"#utility.yul\":2831:3303   */\n    tag_125:\n        /* \"#utility.yul\":2908:2914   */\n      0x00\n        /* \"#utility.yul\":2916:2922   */\n      dup1\n        /* \"#utility.yul\":2924:2930   */\n      0x00\n        /* \"#utility.yul\":2977:2979   */\n      0x60\n        /* \"#utility.yul\":2965:2974   */\n      dup5\n        /* \"#utility.yul\":2956:2963   */\n      dup7\n        /* \"#utility.yul\":2952:2975   */\n      sub\n        /* \"#utility.yul\":2948:2980   */\n      slt\n        /* \"#utility.yul\":2945:2997   */\n      iszero\n      tag_377\n      jumpi\n        /* \"#utility.yul\":2993:2994   */\n      0x00\n        /* \"#utility.yul\":2990:2991   */\n      dup1\n        /* \"#utility.yul\":2983:2995   */\n      revert\n        /* \"#utility.yul\":2945:2997   */\n    tag_377:\n        /* \"#utility.yul\":3032:3041   */\n      dup4\n        /* \"#utility.yul\":3019:3042   */\n      calldataload\n        /* \"#utility.yul\":3051:3090   */\n      tag_378\n        /* \"#utility.yul\":3084:3089   */\n      dup2\n        /* \"#utility.yul\":3051:3090   */\n      tag_351\n      jump\t// in\n    tag_378:\n        /* \"#utility.yul\":3109:3114   */\n      swap3\n      pop\n        /* \"#utility.yul\":3161:3163   */\n      0x20\n        /* \"#utility.yul\":3146:3164   */\n      dup5\n      add\n        /* \"#utility.yul\":3133:3165   */\n      calldataload\n      swap2\n      pop\n        /* \"#utility.yul\":3217:3219   */\n      0x40\n        /* \"#utility.yul\":3202:3220   */\n      dup5\n      add\n        /* \"#utility.yul\":3189:3221   */\n      calldataload\n        /* \"#utility.yul\":3230:3271   */\n      tag_379\n        /* \"#utility.yul\":3189:3221   */\n      dup2\n        /* \"#utility.yul\":3230:3271   */\n      tag_351\n      jump\t// in\n    tag_379:\n        /* \"#utility.yul\":3290:3297   */\n      dup1\n        /* \"#utility.yul\":3280:3297   */\n      swap2\n      pop\n      pop\n        /* \"#utility.yul\":2831:3303   */\n      swap3\n      pop\n      swap3\n      pop\n      swap3\n      jump\t// out\n        /* \"#utility.yul\":5048:5175   */\n    tag_352:\n        /* \"#utility.yul\":5109:5119   */\n      0x4e487b71\n        /* \"#utility.yul\":5104:5107   */\n      0xe0\n        /* \"#utility.yul\":5100:5120   */\n      shl\n        /* \"#utility.yul\":5097:5098   */\n      0x00\n        /* \"#utility.yul\":5090:5121   */\n      mstore\n        /* \"#utility.yul\":5140:5144   */\n      0x11\n        /* \"#utility.yul\":5137:5138   */\n      0x04\n        /* \"#utility.yul\":5130:5145   */\n      mstore\n        /* \"#utility.yul\":5164:5168   */\n      0x24\n        /* \"#utility.yul\":5161:5162   */\n      0x00\n        /* \"#utility.yul\":5154:5169   */\n      revert\n        /* \"#utility.yul\":5180:5305   */\n    tag_206:\n        /* \"#utility.yul\":5245:5254   */\n      dup1\n      dup3\n      add\n        /* \"#utility.yul\":5266:5276   */\n      dup1\n      dup3\n      gt\n        /* \"#utility.yul\":5263:5299   */\n      iszero\n      tag_345\n      jumpi\n        /* \"#utility.yul\":5279:5297   */\n      tag_345\n      tag_352\n      jump\t// in\n        /* \"#utility.yul\":5310:5437   */\n    tag_324:\n        /* \"#utility.yul\":5371:5381   */\n      0x4e487b71\n        /* \"#utility.yul\":5366:5369   */\n      0xe0\n        /* \"#utility.yul\":5362:5382   */\n      shl\n        /* \"#utility.yul\":5359:5360   */\n      0x00\n        /* \"#utility.yul\":5352:5383   */\n      mstore\n        /* \"#utility.yul\":5402:5406   */\n      0x12\n        /* \"#utility.yul\":5399:5400   */\n      0x04\n        /* \"#utility.yul\":5392:5407   */\n      mstore\n        /* \"#utility.yul\":5426:5430   */\n      0x24\n        /* \"#utility.yul\":5423:5424   */\n      0x00\n        /* \"#utility.yul\":5416:5431   */\n      revert\n        /* \"#utility.yul\":5442:5554   */\n    tag_208:\n        /* \"#utility.yul\":5474:5475   */\n      0x00\n        /* \"#utility.yul\":5500:5501   */\n      dup3\n        /* \"#utility.yul\":5490:5525   */\n      tag_396\n      jumpi\n        /* \"#utility.yul\":5505:5523   */\n      tag_396\n      tag_324\n      jump\t// in\n    tag_396:\n      pop\n        /* \"#utility.yul\":5539:5548   */\n      mod\n      swap1\n        /* \"#utility.yul\":5442:5554   */\n      jump\t// out\n        /* \"#utility.yul\":5913:6040   */\n    tag_224:\n        /* \"#utility.yul\":5974:5984   */\n      0x4e487b71\n        /* \"#utility.yul\":5969:5972   */\n      0xe0\n        /* \"#utility.yul\":5965:5985   */\n      shl\n        /* \"#utility.yul\":5962:5963   */\n      0x00\n        /* \"#utility.yul\":5955:5986   */\n      mstore\n        /* \"#utility.yul\":6005:6009   */\n      0x32\n        /* \"#utility.yul\":6002:6003   */\n      0x04\n        /* \"#utility.yul\":5995:6010   */\n      mstore\n        /* \"#utility.yul\":6029:6033   */\n      0x24\n        /* \"#utility.yul\":6026:6027   */\n      0x00\n        /* \"#utility.yul\":6019:6034   */\n      revert\n        /* \"#utility.yul\":6045:6173   */\n    tag_227:\n        /* \"#utility.yul\":6112:6121   */\n      dup2\n      dup2\n      sub\n        /* \"#utility.yul\":6133:6144   */\n      dup2\n      dup2\n      gt\n        /* \"#utility.yul\":6130:6167   */\n      iszero\n      tag_345\n      jumpi\n        /* \"#utility.yul\":6147:6165   */\n      tag_345\n      tag_352\n      jump\t// in\n        /* \"#utility.yul\":6178:6346   */\n    tag_229:\n        /* \"#utility.yul\":6251:6260   */\n      dup1\n      dup3\n      mul\n        /* \"#utility.yul\":6282:6291   */\n      dup2\n      iszero\n        /* \"#utility.yul\":6299:6314   */\n      dup3\n      dup3\n      div\n        /* \"#utility.yul\":6293:6315   */\n      dup5\n      eq\n        /* \"#utility.yul\":6279:6316   */\n      or\n        /* \"#utility.yul\":6269:6340   */\n      tag_345\n      jumpi\n        /* \"#utility.yul\":6320:6338   */\n      tag_345\n      tag_352\n      jump\t// in\n        /* \"#utility.yul\":6702:6952   */\n    tag_353:\n        /* \"#utility.yul\":6787:6788   */\n      0x00\n        /* \"#utility.yul\":6797:6910   */\n    tag_407:\n        /* \"#utility.yul\":6811:6817   */\n      dup4\n        /* \"#utility.yul\":6808:6809   */\n      dup2\n        /* \"#utility.yul\":6805:6818   */\n      lt\n        /* \"#utility.yul\":6797:6910   */\n      iszero\n      tag_409\n      jumpi\n        /* \"#utility.yul\":6887:6898   */\n      dup2\n      dup2\n      add\n        /* \"#utility.yul\":6881:6899   */\n      mload\n        /* \"#utility.yul\":6868:6879   */\n      dup4\n      dup3\n      add\n        /* \"#utility.yul\":6861:6900   */\n      mstore\n        /* \"#utility.yul\":6833:6835   */\n      0x20\n        /* \"#utility.yul\":6826:6836   */\n      add\n        /* \"#utility.yul\":6797:6910   */\n      jump(tag_407)\n    tag_409:\n      pop\n      pop\n        /* \"#utility.yul\":6944:6945   */\n      0x00\n        /* \"#utility.yul\":6926:6942   */\n      swap2\n      add\n        /* \"#utility.yul\":6919:6946   */\n      mstore\n        /* \"#utility.yul\":6702:6952   */\n      jump\t// out\n        /* \"#utility.yul\":6957:7558   */\n    tag_258:\n        /* \"#utility.yul\":7299:7331   */\n      0x7468652076616c7565206d757374206265206d756c7469706c65206f66200000\n        /* \"#utility.yul\":7294:7297   */\n      dup2\n        /* \"#utility.yul\":7287:7332   */\n      mstore\n        /* \"#utility.yul\":7269:7272   */\n      0x00\n        /* \"#utility.yul\":7361:7367   */\n      dup3\n        /* \"#utility.yul\":7355:7368   */\n      mload\n        /* \"#utility.yul\":7377:7452   */\n      tag_411\n        /* \"#utility.yul\":7445:7451   */\n      dup2\n        /* \"#utility.yul\":7440:7442   */\n      0x1e\n        /* \"#utility.yul\":7435:7438   */\n      dup6\n        /* \"#utility.yul\":7431:7443   */\n      add\n        /* \"#utility.yul\":7424:7428   */\n      0x20\n        /* \"#utility.yul\":7416:7422   */\n      dup8\n        /* \"#utility.yul\":7412:7429   */\n      add\n        /* \"#utility.yul\":7377:7452   */\n      tag_353\n      jump\t// in\n    tag_411:\n        /* \"#utility.yul\":7516:7524   */\n      0x2045746865720000000000000000000000000000000000000000000000000000\n        /* \"#utility.yul\":7511:7513   */\n      0x1e\n        /* \"#utility.yul\":7471:7487   */\n      swap4\n      swap1\n      swap2\n      add\n        /* \"#utility.yul\":7503:7514   */\n      swap3\n      dup4\n      add\n        /* \"#utility.yul\":7496:7525   */\n      mstore\n      pop\n        /* \"#utility.yul\":7549:7551   */\n      0x24\n        /* \"#utility.yul\":7541:7552   */\n      add\n      swap2\n        /* \"#utility.yul\":6957:7558   */\n      swap1\n      pop\n      jump\t// out\n        /* \"#utility.yul\":7563:7959   */\n    tag_261:\n        /* \"#utility.yul\":7712:7714   */\n      0x20\n        /* \"#utility.yul\":7701:7710   */\n      dup2\n        /* \"#utility.yul\":7694:7715   */\n      mstore\n        /* \"#utility.yul\":7675:7679   */\n      0x00\n        /* \"#utility.yul\":7744:7750   */\n      dup3\n        /* \"#utility.yul\":7738:7751   */\n      mload\n        /* \"#utility.yul\":7787:7793   */\n      dup1\n        /* \"#utility.yul\":7782:7784   */\n      0x20\n        /* \"#utility.yul\":7771:7780   */\n      dup5\n        /* \"#utility.yul\":7767:7785   */\n      add\n        /* \"#utility.yul\":7760:7794   */\n      mstore\n        /* \"#utility.yul\":7803:7882   */\n      tag_413\n        /* \"#utility.yul\":7875:7881   */\n      dup2\n        /* \"#utility.yul\":7870:7872   */\n      0x40\n        /* \"#utility.yul\":7859:7868   */\n      dup6\n        /* \"#utility.yul\":7855:7873   */\n      add\n        /* \"#utility.yul\":7850:7852   */\n      0x20\n        /* \"#utility.yul\":7842:7848   */\n      dup8\n        /* \"#utility.yul\":7838:7853   */\n      add\n        /* \"#utility.yul\":7803:7882   */\n      tag_353\n      jump\t// in\n    tag_413:\n        /* \"#utility.yul\":7943:7945   */\n      0x1f\n        /* \"#utility.yul\":7922:7937   */\n      add\n      not(0x1f)\n        /* \"#utility.yul\":7918:7947   */\n      and\n        /* \"#utility.yul\":7903:7948   */\n      swap2\n      swap1\n      swap2\n      add\n        /* \"#utility.yul\":7950:7952   */\n      0x40\n        /* \"#utility.yul\":7899:7953   */\n      add\n      swap3\n        /* \"#utility.yul\":7563:7959   */\n      swap2\n      pop\n      pop\n      jump\t// out\n        /* \"#utility.yul\":7964:8084   */\n    tag_263:\n        /* \"#utility.yul\":8004:8005   */\n      0x00\n        /* \"#utility.yul\":8030:8031   */\n      dup3\n        /* \"#utility.yul\":8020:8055   */\n      tag_416\n      jumpi\n        /* \"#utility.yul\":8035:8053   */\n      tag_416\n      tag_324\n      jump\t// in\n    tag_416:\n      pop\n        /* \"#utility.yul\":8069:8078   */\n      div\n      swap1\n        /* \"#utility.yul\":7964:8084   */\n      jump\t// out\n        /* \"#utility.yul\":8447:8582   */\n    tag_273:\n        /* \"#utility.yul\":8486:8489   */\n      0x00\n        /* \"#utility.yul\":8507:8524   */\n      0x01\n      dup3\n      add\n        /* \"#utility.yul\":8504:8547   */\n      tag_420\n      jumpi\n        /* \"#utility.yul\":8527:8545   */\n      tag_420\n      tag_352\n      jump\t// in\n    tag_420:\n      pop\n        /* \"#utility.yul\":8574:8575   */\n      0x01\n        /* \"#utility.yul\":8563:8576   */\n      add\n      swap1\n        /* \"#utility.yul\":8447:8582   */\n      jump\t// out\n        /* \"#utility.yul\":9785:9969   */\n    tag_303:\n        /* \"#utility.yul\":9855:9861   */\n      0x00\n        /* \"#utility.yul\":9908:9910   */\n      0x20\n        /* \"#utility.yul\":9896:9905   */\n      dup3\n        /* \"#utility.yul\":9887:9894   */\n      dup5\n        /* \"#utility.yul\":9883:9906   */\n      sub\n        /* \"#utility.yul\":9879:9911   */\n      slt\n        /* \"#utility.yul\":9876:9928   */\n      iszero\n      tag_424\n      jumpi\n        /* \"#utility.yul\":9924:9925   */\n      0x00\n        /* \"#utility.yul\":9921:9922   */\n      dup1\n        /* \"#utility.yul\":9914:9926   */\n      revert\n        /* \"#utility.yul\":9876:9928   */\n    tag_424:\n      pop\n        /* \"#utility.yul\":9947:9963   */\n      mload\n      swap2\n        /* \"#utility.yul\":9785:9969   */\n      swap1\n      pop\n      jump\t// out\n        /* \"#utility.yul\":10381:10508   */\n    tag_318:\n        /* \"#utility.yul\":10442:10452   */\n      0x4e487b71\n        /* \"#utility.yul\":10437:10440   */\n      0xe0\n        /* \"#utility.yul\":10433:10453   */\n      shl\n        /* \"#utility.yul\":10430:10431   */\n      0x00\n        /* \"#utility.yul\":10423:10454   */\n      mstore\n        /* \"#utility.yul\":10473:10477   */\n      0x41\n        /* \"#utility.yul\":10470:10471   */\n      0x04\n        /* \"#utility.yul\":10463:10478   */\n      mstore\n        /* \"#utility.yul\":10497:10501   */\n      0x24\n        /* \"#utility.yul\":10494:10495   */\n      0x00\n        /* \"#utility.yul\":10487:10502   */\n      revert\n\n    auxdata: 0xa2646970667358221220a1ea7ee8ef384fe5a233112d982186af8b5f9611af48a3acdf87a69f5fcfd60c64736f6c63430008110033\n}\n",
    "bytecode": {
      "linkReferences": {},
      "object": "60a0604052600060025534801561001557600080fd5b506040516200169238038062001692833981016040819052610036916100c7565b6001600160a01b0381166080819052604051632b77c09f60e21b81523060048201526001602482015282919063addf027c90604401600060405180830381600087803b15801561008557600080fd5b505af1158015610099573d6000803e3d6000fd5b5050600180546001600160a01b03191633179055506100be91506107089050426100f7565b6000555061011e565b6000602082840312156100d957600080fd5b81516001600160a01b03811681146100f057600080fd5b9392505050565b8082018082111561011857634e487b7160e01b600052601160045260246000fd5b92915050565b60805161154a6200014860003960008181610419015281816106d00152610e9b015261154a6000f3fe6080604052600436106102195760003560e01c806371bab6661161011d578063a88f4672116100b0578063dd64e5341161007f578063ea3a149911610064578063ea3a1499146105bc578063f2613269146105e9578063fe188184146105fe57600080fd5b8063dd64e53414610571578063dea12bad146105a757600080fd5b8063a88f467214610511578063ba946d7914610526578063bf90fb4e1461053c578063c6944fa01461055c57600080fd5b806393a563b5116100ec57806393a563b5146104a357806396c85ef3146104b85780639b894703146104dc578063a36ff4d8146104f157600080fd5b806371bab666146104075780637bdf25251461043b578063851244f71461045b57806391d8b14e1461049b57600080fd5b80634664611e116101b057806350b447121161017f5780635a58acdd116101645780635a58acdd146103b75780636032a4f9146103d757806371827b7b146103f257600080fd5b806350b447121461036a57806355fbe857146103a257600080fd5b80634664611e146103075780634665096d1461031d5780634788af7c146103335780634ed026221461034857600080fd5b80631209b1f6116101ec5780631209b1f61461029557806335580df2146102b05780633718d90a146102c757806337c28e63146102e757600080fd5b806306f7f3bf1461021e5780630789c6071461024757806307b9fc57146102695780630fb5a6b41461027f575b600080fd5b34801561022a57600080fd5b5061023460045481565b6040519081526020015b60405180910390f35b34801561025357600080fd5b5033600090815260066020526040902054610234565b34801561027557600080fd5b50610234600a5481565b34801561028b57600080fd5b5061023461070881565b3480156102a157600080fd5b50610234662386f26fc1000081565b3480156102bc57600080fd5b506102c561061e565b005b3480156102d357600080fd5b506102c56102e2366004611205565b6106c5565b3480156102f357600080fd5b506102c5610302366004611296565b610816565b34801561031357600080fd5b5061023460055481565b34801561032957600080fd5b5061023460005481565b34801561033f57600080fd5b506102c561089d565b34801561035457600080fd5b5061035d610a54565b60405161023e91906112ba565b34801561037657600080fd5b5061038a610385366004611307565b610ab6565b6040516001600160a01b03909116815260200161023e565b3480156103ae57600080fd5b506102c5610ae0565b3480156103c357600080fd5b5060015461038a906001600160a01b031681565b3480156103e357600080fd5b5061023466038d7ea4c6800081565b3480156103fe57600080fd5b506102c5610aea565b34801561041357600080fd5b5061038a7f000000000000000000000000000000000000000000000000000000000000000081565b34801561044757600080fd5b506102c5610456366004611320565b610b89565b34801561046757600080fd5b5061048b610476366004611307565b60086020526000908152604090205460ff1681565b604051901515815260200161023e565b6102c5610bc6565b3480156104af57600080fd5b50610234610cf5565b3480156104c457600080fd5b5033600090815260066020526040902054151561048b565b3480156104e857600080fd5b50610234606481565b3480156104fd57600080fd5b5060095461038a906001600160a01b031681565b34801561051d57600080fd5b506102c5610d0b565b34801561053257600080fd5b5061023460025481565b34801561054857600080fd5b50600b5461038a906001600160a01b031681565b34801561056857600080fd5b50610234610e20565b34801561057d57600080fd5b5061023461058c366004611296565b6001600160a01b031660009081526006602052604090205490565b3480156105b357600080fd5b506102c5610e38565b3480156105c857600080fd5b506102346105d7366004611296565b60066020526000908152604090205481565b3480156105f557600080fd5b506102c5610f50565b34801561060a57600080fd5b5060035461038a906001600160a01b031681565b6001546001600160a01b031633146106885760405162461bcd60e51b815260206004820152602260248201527f43616c6c6572206973206e6f7420746865206c6f7474657279206f706572617460448201526137b960f11b60648201526084015b60405180910390fd5b600280546000918290556040513392839183156108fc0291849190818181858888f193505050501580156106c0573d6000803e3d6000fd5b505050565b336001600160a01b037f0000000000000000000000000000000000000000000000000000000000000000161461073d5760405162461bcd60e51b815260206004820152601660248201527f43616c6c6572206e6f74204169726e6f64652052525000000000000000000000604482015260640161067f565b60008381526008602052604090205460ff1661079b5760405162461bcd60e51b815260206004820152601460248201527f52657175657374204944206e6f74206b6e6f776e000000000000000000000000604482015260640161067f565b6000838152600860205260408120805460ff191690556107bd82840184611307565b6007549091506107ce906001611378565b6107d890826113a1565b60055560405181815284907f1ca47bacd454c26163f84eff4aa514e291ba9fa67ad6029e39567c122bbed30f9060200160405180910390a250505050565b6001546001600160a01b0316331461087b5760405162461bcd60e51b815260206004820152602260248201527f43616c6c6572206973206e6f7420746865206c6f7474657279206f706572617460448201526137b960f11b606482015260840161067f565b600b80546001600160a01b0319166001600160a01b0392909216919091179055565b6001546001600160a01b031633146109025760405162461bcd60e51b815260206004820152602260248201527f43616c6c6572206973206e6f7420746865206c6f7474657279206f706572617460448201526137b960f11b606482015260840161067f565b6007546109515760405162461bcd60e51b815260206004820152601960248201527f4e6f207469636b65747320776572652070757263686173656400000000000000604482015260640161067f565b610959610e38565b6000600760055481548110610970576109706113b5565b600091825260209091200154600380546001600160a01b0319166001600160a01b03909216918217905590506109b466038d7ea4c68000662386f26fc100006113cb565b6007546109c191906113de565b6001600160a01b038216600090815260066020526040812080549091906109e9908490611378565b90915550506001600160a01b038116600090815260066020526040902054600455600754610a1f9066038d7ea4c68000906113de565b60026000828254610a309190611378565b90915550610a429050600760006111cb565b610a4e61070842611378565b60005550565b60606007805480602002602001604051908101604052809291908181526020018280548015610aac57602002820191906000526020600020905b81546001600160a01b03168152600190910190602001808311610a8e575b5050505050905090565b60078181548110610ac657600080fd5b6000918252602090912001546001600160a01b0316905081565b610ae8610e38565b565b33600090815260066020526040902054610b465760405162461bcd60e51b815260206004820152601660248201527f43616c6c6572206973206e6f7420612077696e6e657200000000000000000000604482015260640161067f565b3360008181526006602052604080822080549083905590519091839183156108fc0291849190818181858888f193505050501580156106c0573d6000803e3d6000fd5b600980546001600160a01b038086166001600160a01b031992831617909255600a849055600b8054928416929091169190911790556106c0610ae0565b610bd7662386f26fc10000346113a1565b15610be8662386f26fc10000611048565b604051602001610bf89190611419565b60405160208183030381529060405290610c255760405162461bcd60e51b815260040161067f9190611485565b506000610c39662386f26fc10000346114b8565b9050610c43610cf5565b811115610c925760405162461bcd60e51b815260206004820152601d60248201527f4e6f7420656e6f756768207469636b65747320617661696c61626c652e000000604482015260640161067f565b60005b81811015610cf157600780546001810182556000919091527fa66cc928b5edb82af9bd49922954155ab7b0942694bea4ce44661d9a8736c6880180546001600160a01b0319163317905580610ce9816114cc565b915050610c95565b5050565b600754600090610d069060646113cb565b905090565b600054421015610d5d5760405162461bcd60e51b815260206004820152601b60248201527f746865206c6f7474657279206e6f742065787069726564207965740000000000604482015260640161067f565b60005b600754811015610e1357600060078281548110610d7f57610d7f6113b5565b6000918252602082200154600780546001600160a01b0390921693509084908110610dac57610dac6113b5565b6000918252602082200180546001600160a01b0319166001600160a01b0393841617905560405191831691662386f26fc100009082818181858883f19350505050158015610dfe573d6000803e3d6000fd5b50508080610e0b906114cc565b915050610d60565b50610ae8600760006111cb565b600754600090610d0690662386f26fc10000906113de565b600954600a54600b54604051636e6be03f60e01b81526001600160a01b0393841660048201526024810192909252306044830181905290831660648301526084820152631b8c6c8560e11b60a482015260e060c4820152600060e48201819052917f00000000000000000000000000000000000000000000000000000000000000001690636e6be03f90610104016020604051808303816000875af1158015610ee5573d6000803e3d6000fd5b505050506040513d601f19601f82011682018060405250810190610f0991906114e5565b600081815260086020526040808220805460ff191660011790555191925082917fcba2da2f3c0c732a104019a3104936397dde7343964c1518ceb760052e4537b19190a250565b6001546001600160a01b03163314610fb55760405162461bcd60e51b815260206004820152602260248201527f43616c6c6572206973206e6f7420746865206c6f7474657279206f706572617460448201526137b960f11b606482015260840161067f565b6007541561102b5760405162461bcd60e51b815260206004820152602660248201527f43616e6e6f74205265737461727420447261772061732044726177206973206960448201527f6e20706c61790000000000000000000000000000000000000000000000000000606482015260840161067f565b611037600760006111cb565b61104361070842611378565b600055565b60606000611055836110e8565b600101905060008167ffffffffffffffff811115611075576110756114fe565b6040519080825280601f01601f19166020018201604052801561109f576020820181803683370190505b5090508181016020015b600019017f3031323334353637383961626364656600000000000000000000000000000000600a86061a8153600a85049450846110a957509392505050565b6000807a184f03e93ff9f4daa797ed6e38ed64bf6a1f0100000000000000008310611131577a184f03e93ff9f4daa797ed6e38ed64bf6a1f010000000000000000830492506040015b6d04ee2d6d415b85acef8100000000831061115d576d04ee2d6d415b85acef8100000000830492506020015b662386f26fc10000831061117b57662386f26fc10000830492506010015b6305f5e1008310611193576305f5e100830492506008015b61271083106111a757612710830492506004015b606483106111b9576064830492506002015b600a83106111c5576001015b92915050565b50805460008255906000526020600020908101906111e991906111ec565b50565b5b8082111561120157600081556001016111ed565b5090565b60008060006040848603121561121a57600080fd5b83359250602084013567ffffffffffffffff8082111561123957600080fd5b818601915086601f83011261124d57600080fd5b81358181111561125c57600080fd5b87602082850101111561126e57600080fd5b6020830194508093505050509250925092565b6001600160a01b03811681146111e957600080fd5b6000602082840312156112a857600080fd5b81356112b381611281565b9392505050565b6020808252825182820181905260009190848201906040850190845b818110156112fb5783516001600160a01b0316835292840192918401916001016112d6565b50909695505050505050565b60006020828403121561131957600080fd5b5035919050565b60008060006060848603121561133557600080fd5b833561134081611281565b925060208401359150604084013561135781611281565b809150509250925092565b634e487b7160e01b600052601160045260246000fd5b808201808211156111c5576111c5611362565b634e487b7160e01b600052601260045260246000fd5b6000826113b0576113b061138b565b500690565b634e487b7160e01b600052603260045260246000fd5b818103818111156111c5576111c5611362565b80820281158282048414176111c5576111c5611362565b60005b838110156114105781810151838201526020016113f8565b50506000910152565b7f7468652076616c7565206d757374206265206d756c7469706c65206f6620000081526000825161145181601e8501602087016113f5565b7f2045746865720000000000000000000000000000000000000000000000000000601e939091019283015250602401919050565b60208152600082518060208401526114a48160408501602087016113f5565b601f01601f19169190910160400192915050565b6000826114c7576114c761138b565b500490565b6000600182016114de576114de611362565b5060010190565b6000602082840312156114f757600080fd5b5051919050565b634e487b7160e01b600052604160045260246000fdfea2646970667358221220a1ea7ee8ef384fe5a233112d982186af8b5f9611af48a3acdf87a69f5fcfd60c64736f6c63430008110033",
      "opcodes": "PUSH1 0xA0 PUSH1 0x40 MSTORE PUSH1 0x0 PUSH1 0x2 SSTORE CALLVALUE DUP1 ISZERO PUSH2 0x15 JUMPI PUSH1 0x0 DUP1 REVERT JUMPDEST POP PUSH1 0x40 MLOAD PUSH3 0x1692 CODESIZE SUB DUP1 PUSH3 0x1692 DUP4 CODECOPY DUP2 ADD PUSH1 0x40 DUP2 SWAP1 MSTORE PUSH2 0x36 SWAP2 PUSH2 0xC7 JUMP JUMPDEST PUSH1 0x1 PUSH1 0x1 PUSH1 0xA0 SHL SUB DUP2 AND PUSH1 0x80 DUP2 SWAP1 MSTORE PUSH1 0x40 MLOAD PUSH4 0x2B77C09F PUSH1 0xE2 SHL DUP2 MSTORE ADDRESS PUSH1 0x4 DUP3 ADD MSTORE PUSH1 0x1 PUSH1 0x24 DUP3 ADD MSTORE DUP3 SWAP2 SWAP1 PUSH4 0xADDF027C SWAP1 PUSH1 0x44 ADD PUSH1 0x0 PUSH1 0x40 MLOAD DUP1 DUP4 SUB DUP2 PUSH1 0x0 DUP8 DUP1 EXTCODESIZE ISZERO DUP1 ISZERO PUSH2 0x85 JUMPI PUSH1 0x0 DUP1 REVERT JUMPDEST POP GAS CALL ISZERO DUP1 ISZERO PUSH2 0x99 JUMPI RETURNDATASIZE PUSH1 0x0 DUP1 RETURNDATACOPY RETURNDATASIZE PUSH1 0x0 REVERT JUMPDEST POP POP PUSH1 0x1 DUP1 SLOAD PUSH1 0x1 PUSH1 0x1 PUSH1 0xA0 SHL SUB NOT AND CALLER OR SWAP1 SSTORE POP PUSH2 0xBE SWAP2 POP PUSH2 0x708 SWAP1 POP TIMESTAMP PUSH2 0xF7 JUMP JUMPDEST PUSH1 0x0 SSTORE POP PUSH2 0x11E JUMP JUMPDEST PUSH1 0x0 PUSH1 0x20 DUP3 DUP5 SUB SLT ISZERO PUSH2 0xD9 JUMPI PUSH1 0x0 DUP1 REVERT JUMPDEST DUP2 MLOAD PUSH1 0x1 PUSH1 0x1 PUSH1 0xA0 SHL SUB DUP2 AND DUP2 EQ PUSH2 0xF0 JUMPI PUSH1 0x0 DUP1 REVERT JUMPDEST SWAP4 SWAP3 POP POP POP JUMP JUMPDEST DUP1 DUP3 ADD DUP1 DUP3 GT ISZERO PUSH2 0x118 JUMPI PUSH4 0x4E487B71 PUSH1 0xE0 SHL PUSH1 0x0 MSTORE PUSH1 0x11 PUSH1 0x4 MSTORE PUSH1 0x24 PUSH1 0x0 REVERT JUMPDEST SWAP3 SWAP2 POP POP JUMP JUMPDEST PUSH1 0x80 MLOAD PUSH2 0x154A PUSH3 0x148 PUSH1 0x0 CODECOPY PUSH1 0x0 DUP2 DUP2 PUSH2 0x419 ADD MSTORE DUP2 DUP2 PUSH2 0x6D0 ADD MSTORE PUSH2 0xE9B ADD MSTORE PUSH2 0x154A PUSH1 0x0 RETURN INVALID PUSH1 0x80 PUSH1 0x40 MSTORE PUSH1 0x4 CALLDATASIZE LT PUSH2 0x219 JUMPI PUSH1 0x0 CALLDATALOAD PUSH1 0xE0 SHR DUP1 PUSH4 0x71BAB666 GT PUSH2 0x11D JUMPI DUP1 PUSH4 0xA88F4672 GT PUSH2 0xB0 JUMPI DUP1 PUSH4 0xDD64E534 GT PUSH2 0x7F JUMPI DUP1 PUSH4 0xEA3A1499 GT PUSH2 0x64 JUMPI DUP1 PUSH4 0xEA3A1499 EQ PUSH2 0x5BC JUMPI DUP1 PUSH4 0xF2613269 EQ PUSH2 0x5E9 JUMPI DUP1 PUSH4 0xFE188184 EQ PUSH2 0x5FE JUMPI PUSH1 0x0 DUP1 REVERT JUMPDEST DUP1 PUSH4 0xDD64E534 EQ PUSH2 0x571 JUMPI DUP1 PUSH4 0xDEA12BAD EQ PUSH2 0x5A7 JUMPI PUSH1 0x0 DUP1 REVERT JUMPDEST DUP1 PUSH4 0xA88F4672 EQ PUSH2 0x511 JUMPI DUP1 PUSH4 0xBA946D79 EQ PUSH2 0x526 JUMPI DUP1 PUSH4 0xBF90FB4E EQ PUSH2 0x53C JUMPI DUP1 PUSH4 0xC6944FA0 EQ PUSH2 0x55C JUMPI PUSH1 0x0 DUP1 REVERT JUMPDEST DUP1 PUSH4 0x93A563B5 GT PUSH2 0xEC JUMPI DUP1 PUSH4 0x93A563B5 EQ PUSH2 0x4A3 JUMPI DUP1 PUSH4 0x96C85EF3 EQ PUSH2 0x4B8 JUMPI DUP1 PUSH4 0x9B894703 EQ PUSH2 0x4DC JUMPI DUP1 PUSH4 0xA36FF4D8 EQ PUSH2 0x4F1 JUMPI PUSH1 0x0 DUP1 REVERT JUMPDEST DUP1 PUSH4 0x71BAB666 EQ PUSH2 0x407 JUMPI DUP1 PUSH4 0x7BDF2525 EQ PUSH2 0x43B JUMPI DUP1 PUSH4 0x851244F7 EQ PUSH2 0x45B JUMPI DUP1 PUSH4 0x91D8B14E EQ PUSH2 0x49B JUMPI PUSH1 0x0 DUP1 REVERT JUMPDEST DUP1 PUSH4 0x4664611E GT PUSH2 0x1B0 JUMPI DUP1 PUSH4 0x50B44712 GT PUSH2 0x17F JUMPI DUP1 PUSH4 0x5A58ACDD GT PUSH2 0x164 JUMPI DUP1 PUSH4 0x5A58ACDD EQ PUSH2 0x3B7 JUMPI DUP1 PUSH4 0x6032A4F9 EQ PUSH2 0x3D7 JUMPI DUP1 PUSH4 0x71827B7B EQ PUSH2 0x3F2 JUMPI PUSH1 0x0 DUP1 REVERT JUMPDEST DUP1 PUSH4 0x50B44712 EQ PUSH2 0x36A JUMPI DUP1 PUSH4 0x55FBE857 EQ PUSH2 0x3A2 JUMPI PUSH1 0x0 DUP1 REVERT JUMPDEST DUP1 PUSH4 0x4664611E EQ PUSH2 0x307 JUMPI DUP1 PUSH4 0x4665096D EQ PUSH2 0x31D JUMPI DUP1 PUSH4 0x4788AF7C EQ PUSH2 0x333 JUMPI DUP1 PUSH4 0x4ED02622 EQ PUSH2 0x348 JUMPI PUSH1 0x0 DUP1 REVERT JUMPDEST DUP1 PUSH4 0x1209B1F6 GT PUSH2 0x1EC JUMPI DUP1 PUSH4 0x1209B1F6 EQ PUSH2 0x295 JUMPI DUP1 PUSH4 0x35580DF2 EQ PUSH2 0x2B0 JUMPI DUP1 PUSH4 0x3718D90A EQ PUSH2 0x2C7 JUMPI DUP1 PUSH4 0x37C28E63 EQ PUSH2 0x2E7 JUMPI PUSH1 0x0 DUP1 REVERT JUMPDEST DUP1 PUSH4 0x6F7F3BF EQ PUSH2 0x21E JUMPI DUP1 PUSH4 0x789C607 EQ PUSH2 0x247 JUMPI DUP1 PUSH4 0x7B9FC57 EQ PUSH2 0x269 JUMPI DUP1 PUSH4 0xFB5A6B4 EQ PUSH2 0x27F JUMPI JUMPDEST PUSH1 0x0 DUP1 REVERT JUMPDEST CALLVALUE DUP1 ISZERO PUSH2 0x22A JUMPI PUSH1 0x0 DUP1 REVERT JUMPDEST POP PUSH2 0x234 PUSH1 0x4 SLOAD DUP2 JUMP JUMPDEST PUSH1 0x40 MLOAD SWAP1 DUP2 MSTORE PUSH1 0x20 ADD JUMPDEST PUSH1 0x40 MLOAD DUP1 SWAP2 SUB SWAP1 RETURN JUMPDEST CALLVALUE DUP1 ISZERO PUSH2 0x253 JUMPI PUSH1 0x0 DUP1 REVERT JUMPDEST POP CALLER PUSH1 0x0 SWAP1 DUP2 MSTORE PUSH1 0x6 PUSH1 0x20 MSTORE PUSH1 0x40 SWAP1 KECCAK256 SLOAD PUSH2 0x234 JUMP JUMPDEST CALLVALUE DUP1 ISZERO PUSH2 0x275 JUMPI PUSH1 0x0 DUP1 REVERT JUMPDEST POP PUSH2 0x234 PUSH1 0xA SLOAD DUP2 JUMP JUMPDEST CALLVALUE DUP1 ISZERO PUSH2 0x28B JUMPI PUSH1 0x0 DUP1 REVERT JUMPDEST POP PUSH2 0x234 PUSH2 0x708 DUP2 JUMP JUMPDEST CALLVALUE DUP1 ISZERO PUSH2 0x2A1 JUMPI PUSH1 0x0 DUP1 REVERT JUMPDEST POP PUSH2 0x234 PUSH7 0x2386F26FC10000 DUP2 JUMP JUMPDEST CALLVALUE DUP1 ISZERO PUSH2 0x2BC JUMPI PUSH1 0x0 DUP1 REVERT JUMPDEST POP PUSH2 0x2C5 PUSH2 0x61E JUMP JUMPDEST STOP JUMPDEST CALLVALUE DUP1 ISZERO PUSH2 0x2D3 JUMPI PUSH1 0x0 DUP1 REVERT JUMPDEST POP PUSH2 0x2C5 PUSH2 0x2E2 CALLDATASIZE PUSH1 0x4 PUSH2 0x1205 JUMP JUMPDEST PUSH2 0x6C5 JUMP JUMPDEST CALLVALUE DUP1 ISZERO PUSH2 0x2F3 JUMPI PUSH1 0x0 DUP1 REVERT JUMPDEST POP PUSH2 0x2C5 PUSH2 0x302 CALLDATASIZE PUSH1 0x4 PUSH2 0x1296 JUMP JUMPDEST PUSH2 0x816 JUMP JUMPDEST CALLVALUE DUP1 ISZERO PUSH2 0x313 JUMPI PUSH1 0x0 DUP1 REVERT JUMPDEST POP PUSH2 0x234 PUSH1 0x5 SLOAD DUP2 JUMP JUMPDEST CALLVALUE DUP1 ISZERO PUSH2 0x329 JUMPI PUSH1 0x0 DUP1 REVERT JUMPDEST POP PUSH2 0x234 PUSH1 0x0 SLOAD DUP2 JUMP JUMPDEST CALLVALUE DUP1 ISZERO PUSH2 0x33F JUMPI PUSH1 0x0 DUP1 REVERT JUMPDEST POP PUSH2 0x2C5 PUSH2 0x89D JUMP JUMPDEST CALLVALUE DUP1 ISZERO PUSH2 0x354 JUMPI PUSH1 0x0 DUP1 REVERT JUMPDEST POP PUSH2 0x35D PUSH2 0xA54 JUMP JUMPDEST PUSH1 0x40 MLOAD PUSH2 0x23E SWAP2 SWAP1 PUSH2 0x12BA JUMP JUMPDEST CALLVALUE DUP1 ISZERO PUSH2 0x376 JUMPI PUSH1 0x0 DUP1 REVERT JUMPDEST POP PUSH2 0x38A PUSH2 0x385 CALLDATASIZE PUSH1 0x4 PUSH2 0x1307 JUMP JUMPDEST PUSH2 0xAB6 JUMP JUMPDEST PUSH1 0x40 MLOAD PUSH1 0x1 PUSH1 0x1 PUSH1 0xA0 SHL SUB SWAP1 SWAP2 AND DUP2 MSTORE PUSH1 0x20 ADD PUSH2 0x23E JUMP JUMPDEST CALLVALUE DUP1 ISZERO PUSH2 0x3AE JUMPI PUSH1 0x0 DUP1 REVERT JUMPDEST POP PUSH2 0x2C5 PUSH2 0xAE0 JUMP JUMPDEST CALLVALUE DUP1 ISZERO PUSH2 0x3C3 JUMPI PUSH1 0x0 DUP1 REVERT JUMPDEST POP PUSH1 0x1 SLOAD PUSH2 0x38A SWAP1 PUSH1 0x1 PUSH1 0x1 PUSH1 0xA0 SHL SUB AND DUP2 JUMP JUMPDEST CALLVALUE DUP1 ISZERO PUSH2 0x3E3 JUMPI PUSH1 0x0 DUP1 REVERT JUMPDEST POP PUSH2 0x234 PUSH7 0x38D7EA4C68000 DUP2 JUMP JUMPDEST CALLVALUE DUP1 ISZERO PUSH2 0x3FE JUMPI PUSH1 0x0 DUP1 REVERT JUMPDEST POP PUSH2 0x2C5 PUSH2 0xAEA JUMP JUMPDEST CALLVALUE DUP1 ISZERO PUSH2 0x413 JUMPI PUSH1 0x0 DUP1 REVERT JUMPDEST POP PUSH2 0x38A PUSH32 0x0 DUP2 JUMP JUMPDEST CALLVALUE DUP1 ISZERO PUSH2 0x447 JUMPI PUSH1 0x0 DUP1 REVERT JUMPDEST POP PUSH2 0x2C5 PUSH2 0x456 CALLDATASIZE PUSH1 0x4 PUSH2 0x1320 JUMP JUMPDEST PUSH2 0xB89 JUMP JUMPDEST CALLVALUE DUP1 ISZERO PUSH2 0x467 JUMPI PUSH1 0x0 DUP1 REVERT JUMPDEST POP PUSH2 0x48B PUSH2 0x476 CALLDATASIZE PUSH1 0x4 PUSH2 0x1307 JUMP JUMPDEST PUSH1 0x8 PUSH1 0x20 MSTORE PUSH1 0x0 SWAP1 DUP2 MSTORE PUSH1 0x40 SWAP1 KECCAK256 SLOAD PUSH1 0xFF AND DUP2 JUMP JUMPDEST PUSH1 0x40 MLOAD SWAP1 ISZERO ISZERO DUP2 MSTORE PUSH1 0x20 ADD PUSH2 0x23E JUMP JUMPDEST PUSH2 0x2C5 PUSH2 0xBC6 JUMP JUMPDEST CALLVALUE DUP1 ISZERO PUSH2 0x4AF JUMPI PUSH1 0x0 DUP1 REVERT JUMPDEST POP PUSH2 0x234 PUSH2 0xCF5 JUMP JUMPDEST CALLVALUE DUP1 ISZERO PUSH2 0x4C4 JUMPI PUSH1 0x0 DUP1 REVERT JUMPDEST POP CALLER PUSH1 0x0 SWAP1 DUP2 MSTORE PUSH1 0x6 PUSH1 0x20 MSTORE PUSH1 0x40 SWAP1 KECCAK256 SLOAD ISZERO ISZERO PUSH2 0x48B JUMP JUMPDEST CALLVALUE DUP1 ISZERO PUSH2 0x4E8 JUMPI PUSH1 0x0 DUP1 REVERT JUMPDEST POP PUSH2 0x234 PUSH1 0x64 DUP2 JUMP JUMPDEST CALLVALUE DUP1 ISZERO PUSH2 0x4FD JUMPI PUSH1 0x0 DUP1 REVERT JUMPDEST POP PUSH1 0x9 SLOAD PUSH2 0x38A SWAP1 PUSH1 0x1 PUSH1 0x1 PUSH1 0xA0 SHL SUB AND DUP2 JUMP JUMPDEST CALLVALUE DUP1 ISZERO PUSH2 0x51D JUMPI PUSH1 0x0 DUP1 REVERT JUMPDEST POP PUSH2 0x2C5 PUSH2 0xD0B JUMP JUMPDEST CALLVALUE DUP1 ISZERO PUSH2 0x532 JUMPI PUSH1 0x0 DUP1 REVERT JUMPDEST POP PUSH2 0x234 PUSH1 0x2 SLOAD DUP2 JUMP JUMPDEST CALLVALUE DUP1 ISZERO PUSH2 0x548 JUMPI PUSH1 0x0 DUP1 REVERT JUMPDEST POP PUSH1 0xB SLOAD PUSH2 0x38A SWAP1 PUSH1 0x1 PUSH1 0x1 PUSH1 0xA0 SHL SUB AND DUP2 JUMP JUMPDEST CALLVALUE DUP1 ISZERO PUSH2 0x568 JUMPI PUSH1 0x0 DUP1 REVERT JUMPDEST POP PUSH2 0x234 PUSH2 0xE20 JUMP JUMPDEST CALLVALUE DUP1 ISZERO PUSH2 0x57D JUMPI PUSH1 0x0 DUP1 REVERT JUMPDEST POP PUSH2 0x234 PUSH2 0x58C CALLDATASIZE PUSH1 0x4 PUSH2 0x1296 JUMP JUMPDEST PUSH1 0x1 PUSH1 0x1 PUSH1 0xA0 SHL SUB AND PUSH1 0x0 SWAP1 DUP2 MSTORE PUSH1 0x6 PUSH1 0x20 MSTORE PUSH1 0x40 SWAP1 KECCAK256 SLOAD SWAP1 JUMP JUMPDEST CALLVALUE DUP1 ISZERO PUSH2 0x5B3 JUMPI PUSH1 0x0 DUP1 REVERT JUMPDEST POP PUSH2 0x2C5 PUSH2 0xE38 JUMP JUMPDEST CALLVALUE DUP1 ISZERO PUSH2 0x5C8 JUMPI PUSH1 0x0 DUP1 REVERT JUMPDEST POP PUSH2 0x234 PUSH2 0x5D7 CALLDATASIZE PUSH1 0x4 PUSH2 0x1296 JUMP JUMPDEST PUSH1 0x6 PUSH1 0x20 MSTORE PUSH1 0x0 SWAP1 DUP2 MSTORE PUSH1 0x40 SWAP1 KECCAK256 SLOAD DUP2 JUMP JUMPDEST CALLVALUE DUP1 ISZERO PUSH2 0x5F5 JUMPI PUSH1 0x0 DUP1 REVERT JUMPDEST POP PUSH2 0x2C5 PUSH2 0xF50 JUMP JUMPDEST CALLVALUE DUP1 ISZERO PUSH2 0x60A JUMPI PUSH1 0x0 DUP1 REVERT JUMPDEST POP PUSH1 0x3 SLOAD PUSH2 0x38A SWAP1 PUSH1 0x1 PUSH1 0x1 PUSH1 0xA0 SHL SUB AND DUP2 JUMP JUMPDEST PUSH1 0x1 SLOAD PUSH1 0x1 PUSH1 0x1 PUSH1 0xA0 SHL SUB AND CALLER EQ PUSH2 0x688 JUMPI PUSH1 0x40 MLOAD PUSH3 0x461BCD PUSH1 0xE5 SHL DUP2 MSTORE PUSH1 0x20 PUSH1 0x4 DUP3 ADD MSTORE PUSH1 0x22 PUSH1 0x24 DUP3 ADD MSTORE PUSH32 0x43616C6C6572206973206E6F7420746865206C6F7474657279206F7065726174 PUSH1 0x44 DUP3 ADD MSTORE PUSH2 0x37B9 PUSH1 0xF1 SHL PUSH1 0x64 DUP3 ADD MSTORE PUSH1 0x84 ADD JUMPDEST PUSH1 0x40 MLOAD DUP1 SWAP2 SUB SWAP1 REVERT JUMPDEST PUSH1 0x2 DUP1 SLOAD PUSH1 0x0 SWAP2 DUP3 SWAP1 SSTORE PUSH1 0x40 MLOAD CALLER SWAP3 DUP4 SWAP2 DUP4 ISZERO PUSH2 0x8FC MUL SWAP2 DUP5 SWAP2 SWAP1 DUP2 DUP2 DUP2 DUP6 DUP9 DUP9 CALL SWAP4 POP POP POP POP ISZERO DUP1 ISZERO PUSH2 0x6C0 JUMPI RETURNDATASIZE PUSH1 0x0 DUP1 RETURNDATACOPY RETURNDATASIZE PUSH1 0x0 REVERT JUMPDEST POP POP POP JUMP JUMPDEST CALLER PUSH1 0x1 PUSH1 0x1 PUSH1 0xA0 SHL SUB PUSH32 0x0 AND EQ PUSH2 0x73D JUMPI PUSH1 0x40 MLOAD PUSH3 0x461BCD PUSH1 0xE5 SHL DUP2 MSTORE PUSH1 0x20 PUSH1 0x4 DUP3 ADD MSTORE PUSH1 0x16 PUSH1 0x24 DUP3 ADD MSTORE PUSH32 0x43616C6C6572206E6F74204169726E6F64652052525000000000000000000000 PUSH1 0x44 DUP3 ADD MSTORE PUSH1 0x64 ADD PUSH2 0x67F JUMP JUMPDEST PUSH1 0x0 DUP4 DUP2 MSTORE PUSH1 0x8 PUSH1 0x20 MSTORE PUSH1 0x40 SWAP1 KECCAK256 SLOAD PUSH1 0xFF AND PUSH2 0x79B JUMPI PUSH1 0x40 MLOAD PUSH3 0x461BCD PUSH1 0xE5 SHL DUP2 MSTORE PUSH1 0x20 PUSH1 0x4 DUP3 ADD MSTORE PUSH1 0x14 PUSH1 0x24 DUP3 ADD MSTORE PUSH32 0x52657175657374204944206E6F74206B6E6F776E000000000000000000000000 PUSH1 0x44 DUP3 ADD MSTORE PUSH1 0x64 ADD PUSH2 0x67F JUMP JUMPDEST PUSH1 0x0 DUP4 DUP2 MSTORE PUSH1 0x8 PUSH1 0x20 MSTORE PUSH1 0x40 DUP2 KECCAK256 DUP1 SLOAD PUSH1 0xFF NOT AND SWAP1 SSTORE PUSH2 0x7BD DUP3 DUP5 ADD DUP5 PUSH2 0x1307 JUMP JUMPDEST PUSH1 0x7 SLOAD SWAP1 SWAP2 POP PUSH2 0x7CE SWAP1 PUSH1 0x1 PUSH2 0x1378 JUMP JUMPDEST PUSH2 0x7D8 SWAP1 DUP3 PUSH2 0x13A1 JUMP JUMPDEST PUSH1 0x5 SSTORE PUSH1 0x40 MLOAD DUP2 DUP2 MSTORE DUP5 SWAP1 PUSH32 0x1CA47BACD454C26163F84EFF4AA514E291BA9FA67AD6029E39567C122BBED30F SWAP1 PUSH1 0x20 ADD PUSH1 0x40 MLOAD DUP1 SWAP2 SUB SWAP1 LOG2 POP POP POP POP JUMP JUMPDEST PUSH1 0x1 SLOAD PUSH1 0x1 PUSH1 0x1 PUSH1 0xA0 SHL SUB AND CALLER EQ PUSH2 0x87B JUMPI PUSH1 0x40 MLOAD PUSH3 0x461BCD PUSH1 0xE5 SHL DUP2 MSTORE PUSH1 0x20 PUSH1 0x4 DUP3 ADD MSTORE PUSH1 0x22 PUSH1 0x24 DUP3 ADD MSTORE PUSH32 0x43616C6C6572206973206E6F7420746865206C6F7474657279206F7065726174 PUSH1 0x44 DUP3 ADD MSTORE PUSH2 0x37B9 PUSH1 0xF1 SHL PUSH1 0x64 DUP3 ADD MSTORE PUSH1 0x84 ADD PUSH2 0x67F JUMP JUMPDEST PUSH1 0xB DUP1 SLOAD PUSH1 0x1 PUSH1 0x1 PUSH1 0xA0 SHL SUB NOT AND PUSH1 0x1 PUSH1 0x1 PUSH1 0xA0 SHL SUB SWAP3 SWAP1 SWAP3 AND SWAP2 SWAP1 SWAP2 OR SWAP1 SSTORE JUMP JUMPDEST PUSH1 0x1 SLOAD PUSH1 0x1 PUSH1 0x1 PUSH1 0xA0 SHL SUB AND CALLER EQ PUSH2 0x902 JUMPI PUSH1 0x40 MLOAD PUSH3 0x461BCD PUSH1 0xE5 SHL DUP2 MSTORE PUSH1 0x20 PUSH1 0x4 DUP3 ADD MSTORE PUSH1 0x22 PUSH1 0x24 DUP3 ADD MSTORE PUSH32 0x43616C6C6572206973206E6F7420746865206C6F7474657279206F7065726174 PUSH1 0x44 DUP3 ADD MSTORE PUSH2 0x37B9 PUSH1 0xF1 SHL PUSH1 0x64 DUP3 ADD MSTORE PUSH1 0x84 ADD PUSH2 0x67F JUMP JUMPDEST PUSH1 0x7 SLOAD PUSH2 0x951 JUMPI PUSH1 0x40 MLOAD PUSH3 0x461BCD PUSH1 0xE5 SHL DUP2 MSTORE PUSH1 0x20 PUSH1 0x4 DUP3 ADD MSTORE PUSH1 0x19 PUSH1 0x24 DUP3 ADD MSTORE PUSH32 0x4E6F207469636B65747320776572652070757263686173656400000000000000 PUSH1 0x44 DUP3 ADD MSTORE PUSH1 0x64 ADD PUSH2 0x67F JUMP JUMPDEST PUSH2 0x959 PUSH2 0xE38 JUMP JUMPDEST PUSH1 0x0 PUSH1 0x7 PUSH1 0x5 SLOAD DUP2 SLOAD DUP2 LT PUSH2 0x970 JUMPI PUSH2 0x970 PUSH2 0x13B5 JUMP JUMPDEST PUSH1 0x0 SWAP2 DUP3 MSTORE PUSH1 0x20 SWAP1 SWAP2 KECCAK256 ADD SLOAD PUSH1 0x3 DUP1 SLOAD PUSH1 0x1 PUSH1 0x1 PUSH1 0xA0 SHL SUB NOT AND PUSH1 0x1 PUSH1 0x1 PUSH1 0xA0 SHL SUB SWAP1 SWAP3 AND SWAP2 DUP3 OR SWAP1 SSTORE SWAP1 POP PUSH2 0x9B4 PUSH7 0x38D7EA4C68000 PUSH7 0x2386F26FC10000 PUSH2 0x13CB JUMP JUMPDEST PUSH1 0x7 SLOAD PUSH2 0x9C1 SWAP2 SWAP1 PUSH2 0x13DE JUMP JUMPDEST PUSH1 0x1 PUSH1 0x1 PUSH1 0xA0 SHL SUB DUP3 AND PUSH1 0x0 SWAP1 DUP2 MSTORE PUSH1 0x6 PUSH1 0x20 MSTORE PUSH1 0x40 DUP2 KECCAK256 DUP1 SLOAD SWAP1 SWAP2 SWAP1 PUSH2 0x9E9 SWAP1 DUP5 SWAP1 PUSH2 0x1378 JUMP JUMPDEST SWAP1 SWAP2 SSTORE POP POP PUSH1 0x1 PUSH1 0x1 PUSH1 0xA0 SHL SUB DUP2 AND PUSH1 0x0 SWAP1 DUP2 MSTORE PUSH1 0x6 PUSH1 0x20 MSTORE PUSH1 0x40 SWAP1 KECCAK256 SLOAD PUSH1 0x4 SSTORE PUSH1 0x7 SLOAD PUSH2 0xA1F SWAP1 PUSH7 0x38D7EA4C68000 SWAP1 PUSH2 0x13DE JUMP JUMPDEST PUSH1 0x2 PUSH1 0x0 DUP3 DUP3 SLOAD PUSH2 0xA30 SWAP2 SWAP1 PUSH2 0x1378 JUMP JUMPDEST SWAP1 SWAP2 SSTORE POP PUSH2 0xA42 SWAP1 POP PUSH1 0x7 PUSH1 0x0 PUSH2 0x11CB JUMP JUMPDEST PUSH2 0xA4E PUSH2 0x708 TIMESTAMP PUSH2 0x1378 JUMP JUMPDEST PUSH1 0x0 SSTORE POP JUMP JUMPDEST PUSH1 0x60 PUSH1 0x7 DUP1 SLOAD DUP1 PUSH1 0x20 MUL PUSH1 0x20 ADD PUSH1 0x40 MLOAD SWAP1 DUP2 ADD PUSH1 0x40 MSTORE DUP1 SWAP3 SWAP2 SWAP1 DUP2 DUP2 MSTORE PUSH1 0x20 ADD DUP3 DUP1 SLOAD DUP1 ISZERO PUSH2 0xAAC JUMPI PUSH1 0x20 MUL DUP3 ADD SWAP2 SWAP1 PUSH1 0x0 MSTORE PUSH1 0x20 PUSH1 0x0 KECCAK256 SWAP1 JUMPDEST DUP2 SLOAD PUSH1 0x1 PUSH1 0x1 PUSH1 0xA0 SHL SUB AND DUP2 MSTORE PUSH1 0x1 SWAP1 SWAP2 ADD SWAP1 PUSH1 0x20 ADD DUP1 DUP4 GT PUSH2 0xA8E JUMPI JUMPDEST POP POP POP POP POP SWAP1 POP SWAP1 JUMP JUMPDEST PUSH1 0x7 DUP2 DUP2 SLOAD DUP2 LT PUSH2 0xAC6 JUMPI PUSH1 0x0 DUP1 REVERT JUMPDEST PUSH1 0x0 SWAP2 DUP3 MSTORE PUSH1 0x20 SWAP1 SWAP2 KECCAK256 ADD SLOAD PUSH1 0x1 PUSH1 0x1 PUSH1 0xA0 SHL SUB AND SWAP1 POP DUP2 JUMP JUMPDEST PUSH2 0xAE8 PUSH2 0xE38 JUMP JUMPDEST JUMP JUMPDEST CALLER PUSH1 0x0 SWAP1 DUP2 MSTORE PUSH1 0x6 PUSH1 0x20 MSTORE PUSH1 0x40 SWAP1 KECCAK256 SLOAD PUSH2 0xB46 JUMPI PUSH1 0x40 MLOAD PUSH3 0x461BCD PUSH1 0xE5 SHL DUP2 MSTORE PUSH1 0x20 PUSH1 0x4 DUP3 ADD MSTORE PUSH1 0x16 PUSH1 0x24 DUP3 ADD MSTORE PUSH32 0x43616C6C6572206973206E6F7420612077696E6E657200000000000000000000 PUSH1 0x44 DUP3 ADD MSTORE PUSH1 0x64 ADD PUSH2 0x67F JUMP JUMPDEST CALLER PUSH1 0x0 DUP2 DUP2 MSTORE PUSH1 0x6 PUSH1 0x20 MSTORE PUSH1 0x40 DUP1 DUP3 KECCAK256 DUP1 SLOAD SWAP1 DUP4 SWAP1 SSTORE SWAP1 MLOAD SWAP1 SWAP2 DUP4 SWAP2 DUP4 ISZERO PUSH2 0x8FC MUL SWAP2 DUP5 SWAP2 SWAP1 DUP2 DUP2 DUP2 DUP6 DUP9 DUP9 CALL SWAP4 POP POP POP POP ISZERO DUP1 ISZERO PUSH2 0x6C0 JUMPI RETURNDATASIZE PUSH1 0x0 DUP1 RETURNDATACOPY RETURNDATASIZE PUSH1 0x0 REVERT JUMPDEST PUSH1 0x9 DUP1 SLOAD PUSH1 0x1 PUSH1 0x1 PUSH1 0xA0 SHL SUB DUP1 DUP7 AND PUSH1 0x1 PUSH1 0x1 PUSH1 0xA0 SHL SUB NOT SWAP3 DUP4 AND OR SWAP1 SWAP3 SSTORE PUSH1 0xA DUP5 SWAP1 SSTORE PUSH1 0xB DUP1 SLOAD SWAP3 DUP5 AND SWAP3 SWAP1 SWAP2 AND SWAP2 SWAP1 SWAP2 OR SWAP1 SSTORE PUSH2 0x6C0 PUSH2 0xAE0 JUMP JUMPDEST PUSH2 0xBD7 PUSH7 0x2386F26FC10000 CALLVALUE PUSH2 0x13A1 JUMP JUMPDEST ISZERO PUSH2 0xBE8 PUSH7 0x2386F26FC10000 PUSH2 0x1048 JUMP JUMPDEST PUSH1 0x40 MLOAD PUSH1 0x20 ADD PUSH2 0xBF8 SWAP2 SWAP1 PUSH2 0x1419 JUMP JUMPDEST PUSH1 0x40 MLOAD PUSH1 0x20 DUP2 DUP4 SUB SUB DUP2 MSTORE SWAP1 PUSH1 0x40 MSTORE SWAP1 PUSH2 0xC25 JUMPI PUSH1 0x40 MLOAD PUSH3 0x461BCD PUSH1 0xE5 SHL DUP2 MSTORE PUSH1 0x4 ADD PUSH2 0x67F SWAP2 SWAP1 PUSH2 0x1485 JUMP JUMPDEST POP PUSH1 0x0 PUSH2 0xC39 PUSH7 0x2386F26FC10000 CALLVALUE PUSH2 0x14B8 JUMP JUMPDEST SWAP1 POP PUSH2 0xC43 PUSH2 0xCF5 JUMP JUMPDEST DUP2 GT ISZERO PUSH2 0xC92 JUMPI PUSH1 0x40 MLOAD PUSH3 0x461BCD PUSH1 0xE5 SHL DUP2 MSTORE PUSH1 0x20 PUSH1 0x4 DUP3 ADD MSTORE PUSH1 0x1D PUSH1 0x24 DUP3 ADD MSTORE PUSH32 0x4E6F7420656E6F756768207469636B65747320617661696C61626C652E000000 PUSH1 0x44 DUP3 ADD MSTORE PUSH1 0x64 ADD PUSH2 0x67F JUMP JUMPDEST PUSH1 0x0 JUMPDEST DUP2 DUP2 LT ISZERO PUSH2 0xCF1 JUMPI PUSH1 0x7 DUP1 SLOAD PUSH1 0x1 DUP2 ADD DUP3 SSTORE PUSH1 0x0 SWAP2 SWAP1 SWAP2 MSTORE PUSH32 0xA66CC928B5EDB82AF9BD49922954155AB7B0942694BEA4CE44661D9A8736C688 ADD DUP1 SLOAD PUSH1 0x1 PUSH1 0x1 PUSH1 0xA0 SHL SUB NOT AND CALLER OR SWAP1 SSTORE DUP1 PUSH2 0xCE9 DUP2 PUSH2 0x14CC JUMP JUMPDEST SWAP2 POP POP PUSH2 0xC95 JUMP JUMPDEST POP POP JUMP JUMPDEST PUSH1 0x7 SLOAD PUSH1 0x0 SWAP1 PUSH2 0xD06 SWAP1 PUSH1 0x64 PUSH2 0x13CB JUMP JUMPDEST SWAP1 POP SWAP1 JUMP JUMPDEST PUSH1 0x0 SLOAD TIMESTAMP LT ISZERO PUSH2 0xD5D JUMPI PUSH1 0x40 MLOAD PUSH3 0x461BCD PUSH1 0xE5 SHL DUP2 MSTORE PUSH1 0x20 PUSH1 0x4 DUP3 ADD MSTORE PUSH1 0x1B PUSH1 0x24 DUP3 ADD MSTORE PUSH32 0x746865206C6F7474657279206E6F742065787069726564207965740000000000 PUSH1 0x44 DUP3 ADD MSTORE PUSH1 0x64 ADD PUSH2 0x67F JUMP JUMPDEST PUSH1 0x0 JUMPDEST PUSH1 0x7 SLOAD DUP2 LT ISZERO PUSH2 0xE13 JUMPI PUSH1 0x0 PUSH1 0x7 DUP3 DUP2 SLOAD DUP2 LT PUSH2 0xD7F JUMPI PUSH2 0xD7F PUSH2 0x13B5 JUMP JUMPDEST PUSH1 0x0 SWAP2 DUP3 MSTORE PUSH1 0x20 DUP3 KECCAK256 ADD SLOAD PUSH1 0x7 DUP1 SLOAD PUSH1 0x1 PUSH1 0x1 PUSH1 0xA0 SHL SUB SWAP1 SWAP3 AND SWAP4 POP SWAP1 DUP5 SWAP1 DUP2 LT PUSH2 0xDAC JUMPI PUSH2 0xDAC PUSH2 0x13B5 JUMP JUMPDEST PUSH1 0x0 SWAP2 DUP3 MSTORE PUSH1 0x20 DUP3 KECCAK256 ADD DUP1 SLOAD PUSH1 0x1 PUSH1 0x1 PUSH1 0xA0 SHL SUB NOT AND PUSH1 0x1 PUSH1 0x1 PUSH1 0xA0 SHL SUB SWAP4 DUP5 AND OR SWAP1 SSTORE PUSH1 0x40 MLOAD SWAP2 DUP4 AND SWAP2 PUSH7 0x2386F26FC10000 SWAP1 DUP3 DUP2 DUP2 DUP2 DUP6 DUP9 DUP4 CALL SWAP4 POP POP POP POP ISZERO DUP1 ISZERO PUSH2 0xDFE JUMPI RETURNDATASIZE PUSH1 0x0 DUP1 RETURNDATACOPY RETURNDATASIZE PUSH1 0x0 REVERT JUMPDEST POP POP DUP1 DUP1 PUSH2 0xE0B SWAP1 PUSH2 0x14CC JUMP JUMPDEST SWAP2 POP POP PUSH2 0xD60 JUMP JUMPDEST POP PUSH2 0xAE8 PUSH1 0x7 PUSH1 0x0 PUSH2 0x11CB JUMP JUMPDEST PUSH1 0x7 SLOAD PUSH1 0x0 SWAP1 PUSH2 0xD06 SWAP1 PUSH7 0x2386F26FC10000 SWAP1 PUSH2 0x13DE JUMP JUMPDEST PUSH1 0x9 SLOAD PUSH1 0xA SLOAD PUSH1 0xB SLOAD PUSH1 0x40 MLOAD PUSH4 0x6E6BE03F PUSH1 0xE0 SHL DUP2 MSTORE PUSH1 0x1 PUSH1 0x1 PUSH1 0xA0 SHL SUB SWAP4 DUP5 AND PUSH1 0x4 DUP3 ADD MSTORE PUSH1 0x24 DUP2 ADD SWAP3 SWAP1 SWAP3 MSTORE ADDRESS PUSH1 0x44 DUP4 ADD DUP2 SWAP1 MSTORE SWAP1 DUP4 AND PUSH1 0x64 DUP4 ADD MSTORE PUSH1 0x84 DUP3 ADD MSTORE PUSH4 0x1B8C6C85 PUSH1 0xE1 SHL PUSH1 0xA4 DUP3 ADD MSTORE PUSH1 0xE0 PUSH1 0xC4 DUP3 ADD MSTORE PUSH1 0x0 PUSH1 0xE4 DUP3 ADD DUP2 SWAP1 MSTORE SWAP2 PUSH32 0x0 AND SWAP1 PUSH4 0x6E6BE03F SWAP1 PUSH2 0x104 ADD PUSH1 0x20 PUSH1 0x40 MLOAD DUP1 DUP4 SUB DUP2 PUSH1 0x0 DUP8 GAS CALL ISZERO DUP1 ISZERO PUSH2 0xEE5 JUMPI RETURNDATASIZE PUSH1 0x0 DUP1 RETURNDATACOPY RETURNDATASIZE PUSH1 0x0 REVERT JUMPDEST POP POP POP POP PUSH1 0x40 MLOAD RETURNDATASIZE PUSH1 0x1F NOT PUSH1 0x1F DUP3 ADD AND DUP3 ADD DUP1 PUSH1 0x40 MSTORE POP DUP2 ADD SWAP1 PUSH2 0xF09 SWAP2 SWAP1 PUSH2 0x14E5 JUMP JUMPDEST PUSH1 0x0 DUP2 DUP2 MSTORE PUSH1 0x8 PUSH1 0x20 MSTORE PUSH1 0x40 DUP1 DUP3 KECCAK256 DUP1 SLOAD PUSH1 0xFF NOT AND PUSH1 0x1 OR SWAP1 SSTORE MLOAD SWAP2 SWAP3 POP DUP3 SWAP2 PUSH32 0xCBA2DA2F3C0C732A104019A3104936397DDE7343964C1518CEB760052E4537B1 SWAP2 SWAP1 LOG2 POP JUMP JUMPDEST PUSH1 0x1 SLOAD PUSH1 0x1 PUSH1 0x1 PUSH1 0xA0 SHL SUB AND CALLER EQ PUSH2 0xFB5 JUMPI PUSH1 0x40 MLOAD PUSH3 0x461BCD PUSH1 0xE5 SHL DUP2 MSTORE PUSH1 0x20 PUSH1 0x4 DUP3 ADD MSTORE PUSH1 0x22 PUSH1 0x24 DUP3 ADD MSTORE PUSH32 0x43616C6C6572206973206E6F7420746865206C6F7474657279206F7065726174 PUSH1 0x44 DUP3 ADD MSTORE PUSH2 0x37B9 PUSH1 0xF1 SHL PUSH1 0x64 DUP3 ADD MSTORE PUSH1 0x84 ADD PUSH2 0x67F JUMP JUMPDEST PUSH1 0x7 SLOAD ISZERO PUSH2 0x102B JUMPI PUSH1 0x40 MLOAD PUSH3 0x461BCD PUSH1 0xE5 SHL DUP2 MSTORE PUSH1 0x20 PUSH1 0x4 DUP3 ADD MSTORE PUSH1 0x26 PUSH1 0x24 DUP3 ADD MSTORE PUSH32 0x43616E6E6F742052657374617274204472617720617320447261772069732069 PUSH1 0x44 DUP3 ADD MSTORE PUSH32 0x6E20706C61790000000000000000000000000000000000000000000000000000 PUSH1 0x64 DUP3 ADD MSTORE PUSH1 0x84 ADD PUSH2 0x67F JUMP JUMPDEST PUSH2 0x1037 PUSH1 0x7 PUSH1 0x0 PUSH2 0x11CB JUMP JUMPDEST PUSH2 0x1043 PUSH2 0x708 TIMESTAMP PUSH2 0x1378 JUMP JUMPDEST PUSH1 0x0 SSTORE JUMP JUMPDEST PUSH1 0x60 PUSH1 0x0 PUSH2 0x1055 DUP4 PUSH2 0x10E8 JUMP JUMPDEST PUSH1 0x1 ADD SWAP1 POP PUSH1 0x0 DUP2 PUSH8 0xFFFFFFFFFFFFFFFF DUP2 GT ISZERO PUSH2 0x1075 JUMPI PUSH2 0x1075 PUSH2 0x14FE JUMP JUMPDEST PUSH1 0x40 MLOAD SWAP1 DUP1 DUP3 MSTORE DUP1 PUSH1 0x1F ADD PUSH1 0x1F NOT AND PUSH1 0x20 ADD DUP3 ADD PUSH1 0x40 MSTORE DUP1 ISZERO PUSH2 0x109F JUMPI PUSH1 0x20 DUP3 ADD DUP2 DUP1 CALLDATASIZE DUP4 CALLDATACOPY ADD SWAP1 POP JUMPDEST POP SWAP1 POP DUP2 DUP2 ADD PUSH1 0x20 ADD JUMPDEST PUSH1 0x0 NOT ADD PUSH32 0x3031323334353637383961626364656600000000000000000000000000000000 PUSH1 0xA DUP7 MOD BYTE DUP2 MSTORE8 PUSH1 0xA DUP6 DIV SWAP5 POP DUP5 PUSH2 0x10A9 JUMPI POP SWAP4 SWAP3 POP POP POP JUMP JUMPDEST PUSH1 0x0 DUP1 PUSH27 0x184F03E93FF9F4DAA797ED6E38ED64BF6A1F010000000000000000 DUP4 LT PUSH2 0x1131 JUMPI PUSH27 0x184F03E93FF9F4DAA797ED6E38ED64BF6A1F010000000000000000 DUP4 DIV SWAP3 POP PUSH1 0x40 ADD JUMPDEST PUSH14 0x4EE2D6D415B85ACEF8100000000 DUP4 LT PUSH2 0x115D JUMPI PUSH14 0x4EE2D6D415B85ACEF8100000000 DUP4 DIV SWAP3 POP PUSH1 0x20 ADD JUMPDEST PUSH7 0x2386F26FC10000 DUP4 LT PUSH2 0x117B JUMPI PUSH7 0x2386F26FC10000 DUP4 DIV SWAP3 POP PUSH1 0x10 ADD JUMPDEST PUSH4 0x5F5E100 DUP4 LT PUSH2 0x1193 JUMPI PUSH4 0x5F5E100 DUP4 DIV SWAP3 POP PUSH1 0x8 ADD JUMPDEST PUSH2 0x2710 DUP4 LT PUSH2 0x11A7 JUMPI PUSH2 0x2710 DUP4 DIV SWAP3 POP PUSH1 0x4 ADD JUMPDEST PUSH1 0x64 DUP4 LT PUSH2 0x11B9 JUMPI PUSH1 0x64 DUP4 DIV SWAP3 POP PUSH1 0x2 ADD JUMPDEST PUSH1 0xA DUP4 LT PUSH2 0x11C5 JUMPI PUSH1 0x1 ADD JUMPDEST SWAP3 SWAP2 POP POP JUMP JUMPDEST POP DUP1 SLOAD PUSH1 0x0 DUP3 SSTORE SWAP1 PUSH1 0x0 MSTORE PUSH1 0x20 PUSH1 0x0 KECCAK256 SWAP1 DUP2 ADD SWAP1 PUSH2 0x11E9 SWAP2 SWAP1 PUSH2 0x11EC JUMP JUMPDEST POP JUMP JUMPDEST JUMPDEST DUP1 DUP3 GT ISZERO PUSH2 0x1201 JUMPI PUSH1 0x0 DUP2 SSTORE PUSH1 0x1 ADD PUSH2 0x11ED JUMP JUMPDEST POP SWAP1 JUMP JUMPDEST PUSH1 0x0 DUP1 PUSH1 0x0 PUSH1 0x40 DUP5 DUP7 SUB SLT ISZERO PUSH2 0x121A JUMPI PUSH1 0x0 DUP1 REVERT JUMPDEST DUP4 CALLDATALOAD SWAP3 POP PUSH1 0x20 DUP5 ADD CALLDATALOAD PUSH8 0xFFFFFFFFFFFFFFFF DUP1 DUP3 GT ISZERO PUSH2 0x1239 JUMPI PUSH1 0x0 DUP1 REVERT JUMPDEST DUP2 DUP7 ADD SWAP2 POP DUP7 PUSH1 0x1F DUP4 ADD SLT PUSH2 0x124D JUMPI PUSH1 0x0 DUP1 REVERT JUMPDEST DUP2 CALLDATALOAD DUP2 DUP2 GT ISZERO PUSH2 0x125C JUMPI PUSH1 0x0 DUP1 REVERT JUMPDEST DUP8 PUSH1 0x20 DUP3 DUP6 ADD ADD GT ISZERO PUSH2 0x126E JUMPI PUSH1 0x0 DUP1 REVERT JUMPDEST PUSH1 0x20 DUP4 ADD SWAP5 POP DUP1 SWAP4 POP POP POP POP SWAP3 POP SWAP3 POP SWAP3 JUMP JUMPDEST PUSH1 0x1 PUSH1 0x1 PUSH1 0xA0 SHL SUB DUP2 AND DUP2 EQ PUSH2 0x11E9 JUMPI PUSH1 0x0 DUP1 REVERT JUMPDEST PUSH1 0x0 PUSH1 0x20 DUP3 DUP5 SUB SLT ISZERO PUSH2 0x12A8 JUMPI PUSH1 0x0 DUP1 REVERT JUMPDEST DUP2 CALLDATALOAD PUSH2 0x12B3 DUP2 PUSH2 0x1281 JUMP JUMPDEST SWAP4 SWAP3 POP POP POP JUMP JUMPDEST PUSH1 0x20 DUP1 DUP3 MSTORE DUP3 MLOAD DUP3 DUP3 ADD DUP2 SWAP1 MSTORE PUSH1 0x0 SWAP2 SWAP1 DUP5 DUP3 ADD SWAP1 PUSH1 0x40 DUP6 ADD SWAP1 DUP5 JUMPDEST DUP2 DUP2 LT ISZERO PUSH2 0x12FB JUMPI DUP4 MLOAD PUSH1 0x1 PUSH1 0x1 PUSH1 0xA0 SHL SUB AND DUP4 MSTORE SWAP3 DUP5 ADD SWAP3 SWAP2 DUP5 ADD SWAP2 PUSH1 0x1 ADD PUSH2 0x12D6 JUMP JUMPDEST POP SWAP1 SWAP7 SWAP6 POP POP POP POP POP POP JUMP JUMPDEST PUSH1 0x0 PUSH1 0x20 DUP3 DUP5 SUB SLT ISZERO PUSH2 0x1319 JUMPI PUSH1 0x0 DUP1 REVERT JUMPDEST POP CALLDATALOAD SWAP2 SWAP1 POP JUMP JUMPDEST PUSH1 0x0 DUP1 PUSH1 0x0 PUSH1 0x60 DUP5 DUP7 SUB SLT ISZERO PUSH2 0x1335 JUMPI PUSH1 0x0 DUP1 REVERT JUMPDEST DUP4 CALLDATALOAD PUSH2 0x1340 DUP2 PUSH2 0x1281 JUMP JUMPDEST SWAP3 POP PUSH1 0x20 DUP5 ADD CALLDATALOAD SWAP2 POP PUSH1 0x40 DUP5 ADD CALLDATALOAD PUSH2 0x1357 DUP2 PUSH2 0x1281 JUMP JUMPDEST DUP1 SWAP2 POP POP SWAP3 POP SWAP3 POP SWAP3 JUMP JUMPDEST PUSH4 0x4E487B71 PUSH1 0xE0 SHL PUSH1 0x0 MSTORE PUSH1 0x11 PUSH1 0x4 MSTORE PUSH1 0x24 PUSH1 0x0 REVERT JUMPDEST DUP1 DUP3 ADD DUP1 DUP3 GT ISZERO PUSH2 0x11C5 JUMPI PUSH2 0x11C5 PUSH2 0x1362 JUMP JUMPDEST PUSH4 0x4E487B71 PUSH1 0xE0 SHL PUSH1 0x0 MSTORE PUSH1 0x12 PUSH1 0x4 MSTORE PUSH1 0x24 PUSH1 0x0 REVERT JUMPDEST PUSH1 0x0 DUP3 PUSH2 0x13B0 JUMPI PUSH2 0x13B0 PUSH2 0x138B JUMP JUMPDEST POP MOD SWAP1 JUMP JUMPDEST PUSH4 0x4E487B71 PUSH1 0xE0 SHL PUSH1 0x0 MSTORE PUSH1 0x32 PUSH1 0x4 MSTORE PUSH1 0x24 PUSH1 0x0 REVERT JUMPDEST DUP2 DUP2 SUB DUP2 DUP2 GT ISZERO PUSH2 0x11C5 JUMPI PUSH2 0x11C5 PUSH2 0x1362 JUMP JUMPDEST DUP1 DUP3 MUL DUP2 ISZERO DUP3 DUP3 DIV DUP5 EQ OR PUSH2 0x11C5 JUMPI PUSH2 0x11C5 PUSH2 0x1362 JUMP JUMPDEST PUSH1 0x0 JUMPDEST DUP4 DUP2 LT ISZERO PUSH2 0x1410 JUMPI DUP2 DUP2 ADD MLOAD DUP4 DUP3 ADD MSTORE PUSH1 0x20 ADD PUSH2 0x13F8 JUMP JUMPDEST POP POP PUSH1 0x0 SWAP2 ADD MSTORE JUMP JUMPDEST PUSH32 0x7468652076616C7565206D757374206265206D756C7469706C65206F66200000 DUP2 MSTORE PUSH1 0x0 DUP3 MLOAD PUSH2 0x1451 DUP2 PUSH1 0x1E DUP6 ADD PUSH1 0x20 DUP8 ADD PUSH2 0x13F5 JUMP JUMPDEST PUSH32 0x2045746865720000000000000000000000000000000000000000000000000000 PUSH1 0x1E SWAP4 SWAP1 SWAP2 ADD SWAP3 DUP4 ADD MSTORE POP PUSH1 0x24 ADD SWAP2 SWAP1 POP JUMP JUMPDEST PUSH1 0x20 DUP2 MSTORE PUSH1 0x0 DUP3 MLOAD DUP1 PUSH1 0x20 DUP5 ADD MSTORE PUSH2 0x14A4 DUP2 PUSH1 0x40 DUP6 ADD PUSH1 0x20 DUP8 ADD PUSH2 0x13F5 JUMP JUMPDEST PUSH1 0x1F ADD PUSH1 0x1F NOT AND SWAP2 SWAP1 SWAP2 ADD PUSH1 0x40 ADD SWAP3 SWAP2 POP POP JUMP JUMPDEST PUSH1 0x0 DUP3 PUSH2 0x14C7 JUMPI PUSH2 0x14C7 PUSH2 0x138B JUMP JUMPDEST POP DIV SWAP1 JUMP JUMPDEST PUSH1 0x0 PUSH1 0x1 DUP3 ADD PUSH2 0x14DE JUMPI PUSH2 0x14DE PUSH2 0x1362 JUMP JUMPDEST POP PUSH1 0x1 ADD SWAP1 JUMP JUMPDEST PUSH1 0x0 PUSH1 0x20 DUP3 DUP5 SUB SLT ISZERO PUSH2 0x14F7 JUMPI PUSH1 0x0 DUP1 REVERT JUMPDEST POP MLOAD SWAP2 SWAP1 POP JUMP JUMPDEST PUSH4 0x4E487B71 PUSH1 0xE0 SHL PUSH1 0x0 MSTORE PUSH1 0x41 PUSH1 0x4 MSTORE PUSH1 0x24 PUSH1 0x0 REVERT INVALID LOG2 PUSH5 0x6970667358 0x22 SLT KECCAK256 LOG1 0xEA PUSH31 0xE8EF384FE5A233112D982186AF8B5F9611AF48A3ACDF87A69F5FCFD60C6473 PUSH16 0x6C634300081100330000000000000000 "
    },
    "gasEstimates": {
      "creation": {
        "codeDepositCost": "1090000",
        "executionCost": "infinite",
        "totalCost": "infinite"
      },
      "external": {
        "BuyTickets()": "infinite",
        "CurrentWinningReward()": "2512",
        "DrawWinnerTicket()": "infinite",
        "IsWinner()": "2439",
        "RefundAll()": "infinite",
        "RemainingTickets()": "2427",
        "WithdrawCommission()": "infinite",
        "WithdrawWinnings()": "infinite",
        "airnode()": "2448",
        "airnodeRrp()": "infinite",
        "checkWinningsAmount()": "2418",
        "duration()": "297",
        "endpointIdUint256()": "2375",
        "expectingRequestWithIdToBeFulfilled(bytes32)": "2540",
        "expiration()": "2352",
        "fulfillUint256(bytes32,bytes)": "infinite",
        "getTickets()": "infinite",
        "getWinningsForAddress(address)": "2587",
        "lastWinner()": "2447",
        "lastWinnerAmount()": "2331",
        "lotteryOperator()": "2404",
        "makeRequestUint256()": "infinite",
        "maxTickets()": "273",
        "operatorTotalCommission()": "2351",
        "restartDraw()": "infinite",
        "setRequestParameters(address,bytes32,address)": "infinite",
        "setSponsorWallet(address)": "26817",
        "sponsorWallet()": "2426",
        "startRandomNumber()": "infinite",
        "ticketCommission()": "273",
        "ticketPrice()": "230",
        "tickets(uint256)": "4682",
        "winningNumber()": "2330",
        "winnings(address)": "2568"
      }
    },
    "methodIdentifiers": {
      "BuyTickets()": "91d8b14e",
      "CurrentWinningReward()": "c6944fa0",
      "DrawWinnerTicket()": "4788af7c",
      "IsWinner()": "96c85ef3",
      "RefundAll()": "a88f4672",
      "RemainingTickets()": "93a563b5",
      "WithdrawCommission()": "35580df2",
      "WithdrawWinnings()": "71827b7b",
      "airnode()": "a36ff4d8",
      "airnodeRrp()": "71bab666",
      "checkWinningsAmount()": "0789c607",
      "duration()": "0fb5a6b4",
      "endpointIdUint256()": "07b9fc57",
      "expectingRequestWithIdToBeFulfilled(bytes32)": "851244f7",
      "expiration()": "4665096d",
      "fulfillUint256(bytes32,bytes)": "3718d90a",
      "getTickets()": "4ed02622",
      "getWinningsForAddress(address)": "dd64e534",
      "lastWinner()": "fe188184",
      "lastWinnerAmount()": "06f7f3bf",
      "lotteryOperator()": "5a58acdd",
      "makeRequestUint256()": "dea12bad",
      "maxTickets()": "9b894703",
      "operatorTotalCommission()": "ba946d79",
      "restartDraw()": "f2613269",
      "setRequestParameters(address,bytes32,address)": "7bdf2525",
      "setSponsorWallet(address)": "37c28e63",
      "sponsorWallet()": "bf90fb4e",
      "startRandomNumber()": "55fbe857",
      "ticketCommission()": "6032a4f9",
      "ticketPrice()": "1209b1f6",
      "tickets(uint256)": "50b44712",
      "winningNumber()": "4664611e",
      "winnings(address)": "ea3a1499"
    }
  },
  "storageLayout": {
    "storage": [
      {
        "astId": 19,
        "contract": "Lottery.sol:Lottery",
        "label": "expiration",
        "offset": 0,
        "slot": "0",
        "type": "t_uint256"
      },
      {
        "astId": 21,
        "contract": "Lottery.sol:Lottery",
        "label": "lotteryOperator",
        "offset": 0,
        "slot": "1",
        "type": "t_address"
      },
      {
        "astId": 24,
        "contract": "Lottery.sol:Lottery",
        "label": "operatorTotalCommission",
        "offset": 0,
        "slot": "2",
        "type": "t_uint256"
      },
      {
        "astId": 26,
        "contract": "Lottery.sol:Lottery",
        "label": "lastWinner",
        "offset": 0,
        "slot": "3",
        "type": "t_address"
      },
      {
        "astId": 28,
        "contract": "Lottery.sol:Lottery",
        "label": "lastWinnerAmount",
        "offset": 0,
        "slot": "4",
        "type": "t_uint256"
      },
      {
        "astId": 30,
        "contract": "Lottery.sol:Lottery",
        "label": "winningNumber",
        "offset": 0,
        "slot": "5",
        "type": "t_uint256"
      },
      {
        "astId": 34,
        "contract": "Lottery.sol:Lottery",
        "label": "winnings",
        "offset": 0,
        "slot": "6",
        "type": "t_mapping(t_address,t_uint256)"
      },
      {
        "astId": 37,
        "contract": "Lottery.sol:Lottery",
        "label": "tickets",
        "offset": 0,
        "slot": "7",
        "type": "t_array(t_address)dyn_storage"
      },
      {
        "astId": 41,
        "contract": "Lottery.sol:Lottery",
        "label": "expectingRequestWithIdToBeFulfilled",
        "offset": 0,
        "slot": "8",
        "type": "t_mapping(t_bytes32,t_bool)"
      },
      {
        "astId": 53,
        "contract": "Lottery.sol:Lottery",
        "label": "airnode",
        "offset": 0,
        "slot": "9",
        "type": "t_address"
      },
      {
        "astId": 55,
        "contract": "Lottery.sol:Lottery",
        "label": "endpointIdUint256",
        "offset": 0,
        "slot": "10",
        "type": "t_bytes32"
      },
      {
        "astId": 57,
        "contract": "Lottery.sol:Lottery",
        "label": "sponsorWallet",
        "offset": 0,
        "slot": "11",
        "type": "t_address"
      }
    ],
    "types": {
      "t_address": {
        "encoding": "inplace",
        "label": "address",
        "numberOfBytes": "20"
      },
      "t_array(t_address)dyn_storage": {
        "base": "t_address",
        "encoding": "dynamic_array",
        "label": "address[]",
        "numberOfBytes": "32"
      },
      "t_bool": {
        "encoding": "inplace",
        "label": "bool",
        "numberOfBytes": "1"
      },
      "t_bytes32": {
        "encoding": "inplace",
        "label": "bytes32",
        "numberOfBytes": "32"
      },
      "t_mapping(t_address,t_uint256)": {
        "encoding": "mapping",
        "key": "t_address",
        "label": "mapping(address => uint256)",
        "numberOfBytes": "32",
        "value": "t_uint256"
      },
      "t_mapping(t_bytes32,t_bool)": {
        "encoding": "mapping",
        "key": "t_bytes32",
        "label": "mapping(bytes32 => bool)",
        "numberOfBytes": "32",
        "value": "t_bool"
      },
      "t_uint256": {
        "encoding": "inplace",
        "label": "uint256",
        "numberOfBytes": "32"
      }
    }
  },
  "userdoc": {
    "kind": "user",
    "methods": {},
    "version": 1
  }
}